:0408000028EF29F0C4
:08080800046ED8CF05F0E0CF2B
:1008100006F00001E9CF0CF0EACF07F0E1CF08F0D5
:10082000E2CF09F0D9CF0AF0DACF0BF0F3CF12F014
:10083000F4CF13F0FACF14F0F5CF15F0F6CF16F091
:10084000F7CF17F000C00EF001C00FF002C010F09B
:1008500003C011F09DA630EF04F09EB6D2EF09F070
:10086000A0A236EF04F0A1B22CEF07F09DA23CEF5E
:1008700004F09EB2F0EF06F09DAA42EF04F09EBA9B
:100880003DEF05F09DA848EF04F09EB80FEF05F08E
:10089000F2AA4EEF04F0F2B4DAEF06F09DA054EFA6
:1008A00004F09EB072EF08F0F2A65AEF04F0F2B036
:1008B000F4EF06F00EC000F00FC001F010C002F01F
:1008C00011C003F00CC0E9FF07C0EAFF078E08C0A3
:1008D000E1FF09C0E2FF0AC0D9FF0BC0DAFF12C076
:1008E000F3FF13C0F4FF14C0FAFF15C0F5FF16C0E4
:1008F000F6FF17C0F7FF045006C0E0FF05C0D8FFA1
:100900001000F36ED890F734F66EF746010EF71626
:10091000320EF626090EF7220900F5500900F626D8
:10092000F550F722F350F626000EF7220900F55095
:10093000120026002D0034003A003F004100440020
:10094000470051005C00620066006A006F007200A0
:10095000750079007F0086008D0040464143544F6A
:100960005259004056455253494F4E00405354414E
:100970005455530040414E544D500040504D00409E
:1009800052504900404241540040505752494E464F
:100990004F204F4E0040505752494E464F204F4631
:1009A0004600404C5052535441004054494D45007C
:1009B0004044415445004052544343460040414462
:1009C00031004041443200404245455000405245CC
:1009D00044204F4E0040524544204F46460040427E
:1009E0004C5545204F4E0040424C5545204F464601
:1009F000000002018B51016A8A5D03E28AC200F0A5
:100A00000CD0006A080E8C6F8A3700368B51005C60
:100A1000D8B0006E01368C2FF7D70001120001010B
:100A20007751765D18E0036A7751160FE96E010E73
:100A30000320EA6EEFCF87F287C2ADFF010E772564
:100A40000201896F8A6F600E8B6F0001D2DF00C0D8
:100A500077F103D001019D9800019E985AEF04F0B0
:100A600004009EAAFDD7ABCF1AF0AECF01F01AA2B8
:100A700002D0AB98AB884BEF05F0036A0101D85167
:100A8000780FE96E010E0320EA6EEACF8BF2E9CF10
:100A90008AF20001E5D78BC2EAFF8AC2E9FF01C0F2
:100AA000EFFFD8C187F2010E0101D8250201896F3D
:100AB0008A6F600E8B6F00019CDF00C0D8F10101CE
:100AC000D951D85D02E187C2D8F19E9A00015AEF50
:100AD00004F00A0D49324320616464726573732027
:100AE00053656C65637465643A004932435F4E4FE9
:100AF000524D414C0A0D00004932435F4D494E4969
:100B00004D414C0A0D004932435F4E4F5254430A47
:100B10000D000A0D555053205049636F2052455324
:100B2000544152542043415553453A200000524508
:100B30005345545F494E535452554354494F4E0008
:100B40005744545F46524F4D5F534C45455000004B
:100B50005744545F54494D454F5554004D434C52F2
:100B60005F46524F4D5F534C454550004E4F524DDE
:100B7000414C5F504F5745525F55500042524F57BE
:100B80004E4F55545F5245535441525400004D430B
:100B90004C525F46524F4D5F52554E00554E4B4E94
:100BA0004F574E20524541534F4E0000010E020157
:100BB000875F0CE3020EEA6E870EE96EEF5006E0E7
:100BC000040E006E002EFED7EF2EFAD700011200A1
:100BD00093948A9493928A92010E02018B6F8B51A7
:100BE00008081AE38AC203F089C2E9FF8AC2EAFF51
:100BF000EF50800B03E193908A9002D093908A800B
:100C00008AC2EAFF89C2E9FFD890EF3693948A84BA
:100C100093948A948B2BE3D793928A8293928A92AD
:100C200000011200010E006E02018751016E04E006
:100C3000D8900036012EFCD70050FF0A1B161BC0AF
:100C400088F2020E8A6F880E896F0001C1DF1200E0
:100C50000B0E0101096FC80E0201876F0001A6DFAC
:100C6000030E0201876F0001DDDF1200010E006E2E
:100C700002018751016E04E0D8900036012EFCD7A6
:100C800000501B121BC088F2020E8A6F880E896FFB
:100C900000019EDF12000B0E0101096FC80E020158
:100CA000876F000183DFC051965D09E303E1955131
:100CB000BF5D05E2030E0201876F0001B3DF9451AF
:100CC000C05D09E303E1BF51935D05E2030E02013C
:100CD000876F0001CBDF120001010CAF06D00001CD
:100CE000DADF01010C9F05D004D00001B1DF010162
:100CF0000C8F0001B9EF06F001010CA504D0000132
:100D0000A7DF3BD001010001722D01D003D0725149
:100D1000100830E1735109E0010A09E0030A09E013
:100D2000010A16E0070A16E024D092DF22D0B3DFD2
:100D300020D002011151030805E20001ACDF0201DD
:100D4000116B03D0000184DF0201112B000111D0CF
:100D5000C3D70FD002011151030805E2000178DF6B
:100D60000201116B03D0000196DF0201112B00017B
:100D700000D003D0725301E16BDFE2EF06F0D953EC
:100D800002E0D90707D00201876B00014BDFDC537B
:100D900001E0DC0764530CE1DA5302E0DA0708D023
:100DA000010E0201876F00013DDFDD5301E0DD0729
:100DB000E9EF06F0F60ED76E3B0ED66EFC5301E05F
:100DC000FC079AD70201125302E0120705D0000176
:100DD000D6D70A0E0201126FF29400015AEF04F006
:100DE00000009E925AEF04F0936881CF87F2000EC4
:100DF000020113BB010E886F000E87BB010E885DD8
:100E000005E00101052B87C213F202010000F290F8
:100E100000015AEF04F0000E016EC250C30B011026
:100E2000C26EC28202018891C2A2888188B105D0B7
:100E30008891C2A288810400F9D7C2B2FED7C4CF7C
:100E4000C0F00001C3CFBFF012000101076900012B
:100E5000869D929A899A1200FE0EB36ED30EB26EE0
:100E60000101122BD8B4132B00017A2D01D08689F1
:100E700001010CA101D0F8D000018683CCDFFC5326
:100E800035E1ED51020832E00C0E016EC250C30B89
:100E90000110C26EC28202018791C2A2878187B10E
:100EA00004D08791C2A28781FAD7C2B2FED7C4CF3D
:100EB000F5F00001C3CFF4F0080E016EC250C30B71
:100EC0000110C26EC28202018791C2A2878187B1DE
:100ED00004D08791C2A28781FAD7C2B2FED7C4CF0D
:100EE000F7F00001C3CFF6F0400EFC6F86A50AD0E4
:100EF000949A8B8A929E898E929C898C01010C898E
:100F0000B3D00001F25302E1F35304E0F251D8B43C
:100F1000F307F2070101085325E008070001C0515B
:100F2000985D21E303E1BF51975D1DE3ED2D1BD0DB
:100F300086A919D08ADF929C898C01010C89020E46
:100F40000001ED6FEDC054F06EC0EFF00101036BD6
:100F5000026B030E0001F36FE80EF26F3C0E01010D
:100F6000116F82D000010101095325E0090700013A
:100F7000C051985D21E303E1BF51975D1DE3ED2D65
:100F80001BD086A919D061DF929C898C01010C8944
:100F9000020E0001ED6FEDC054F00101036B026B16
:100FA0006EC0EFF0030E0001F36FE80EF26F3C0E1F
:100FB0000101116F59D00001ED2D57D086A955D0F0
:100FC000F25353E1F35351E101010853D8B402D075
:100FD00000014BD00953D8B402D0000146D0E2C082
:100FE000E0F0E1C0DFF0E4C0E2F0E3C0E1F0C0C057
:100FF000E4F0BFC0E3F00F0E0001E125016E000E2A
:10100000E221036E0350E05D11E303E1DF51015C77
:101010000DE20F0EE325016E000EE421036E035076
:10102000E25D04E30AE1E151015C07E3C051985D30
:101030001CE303E1BF51975D18E307DF929C898CA5
:1010400001010C89020E0001ED6FEDC054F00101A9
:10105000036B026B6EC0EFF0030E0001F36FE80E3E
:10106000F26F3C0E0101116F00010000A1925AEFD6
:1010700004F002018839006E0F0E001600500A0DB0
:10108000F3CF89F288510F0B8925016E0001120000
:1010900002018751060804E3872B87C201F007D0BD
:1010A0008751070804E1010E876F87C201F0000134
:1010B00071EF09F087C28AF20A0E02018B6F0001FC
:1010C00098DC01380201886FF00E881787C28AF217
:1010D0000A0E8B6F00018DDC005002018825016E25
:1010E00000011200CEA0FED7CE500201146FCFCF68
:1010F00015F227530EE114C287F2800E1525886F72
:10110000020E875F000E885B88C2CFFF87C2CEFFCA
:101110002DD02751000815E22751800812E314C290
:1011200087F2800E1525886F27518727000E8823A8
:10113000020E875F000E885B88C2CFFF87C2CEFF9A
:1011400015D02751800812E214C287F2800E1525AF
:10115000886F800E275D875F000E885B020E875FB9
:10116000000E885B88C2CFFF87C2CEFF16A141D098
:1011700020517F0B876F886F00017BDF01C017F262
:10118000020121517F0B876F886F000172DF01C060
:1011900018F2020122513F0B876F886F000169DF4F
:1011A00001C019F202012351070B876F886F0001FC
:1011B00060DF01C01AF2020124513F0B876F886F74
:1011C000000157DF01C01BF2020125511F0B876F81
:1011D000886F00014EDF01C01CF2020126517F0B17
:1011E000876F886F000145DF01C01DF20201169173
:1011F000CAD016B101D0172B01010CA501D036D0F1
:1012000000017A2D0BD0ED51020808E101011153C4
:10121000D8A402D0000102D011070001EF5302E070
:10122000EF0705D0EF5303E101010C8B00016B3D8B
:1012300001D003D06B5301E06B070101075304E0B9
:10124000073D01D001D007070001ED51020807E179
:1012500086A905D00101022BD8B4032B000101019E
:10126000105301E010070CB701D00C870D5301E0BB
:101270000D070E5301E00E070A5301E00A070001B3
:1012800086AF08D001010B53D8A402D0000102D0D0
:101290000B07000101010451055D04E1000186997D
:1012A0000AD001010451055D05E0000186890101B4
:1012B000056B062B000105C104F1020117513C0822
:1012C0003DE1182B176B18513C0838E1192B186BAE
:1012D0001951180833E11B2B196B1AC287F2000150
:1012E000D7D601C01AF202011B511D0806E11C519C
:1012F000020803E11D51030B18E11B511E0803E115
:101300001C51020812E01B511F080CE11C5104087B
:101310000CE01C51060809E01C51090806E01C51AC
:101320000B0803E01B51200803E11C2B010E1B6F6F
:101330001C510D0803E11D2B010E1C6F17C287F213
:101340000001B8DE01C020F218C287F2B3DE01C08E
:1013500021F219C287F2AEDE01C022F21AC287F270
:10136000A9DE01C023F21BC287F2A4DE01C024F271
:101370001CC287F29FDE01C025F21DC287F29ADEF1
:1013800001C026F202019E9000015AEF04F0C950FC
:101390008AC2C9FFC6889E96C7B0FED7016AC6B882
:1013A000012A1200C7BA04D002012A6BC7B42A8FDF
:1013B00002012A512A2B886F550E006E002EFED78F
:1013C00088518008D8A06CD08851800803E1C9CF2B
:1013D00087F206D0C69C9EA6FED7C950C688876FE6
:1013E000885303E08851800803E187C229F258D06E
:1013F000882D03D087C21EF253D08851010850E2D5
:10140000885180084DE02951D00816E11E51070887
:101410000AE31E511E2B036A200FE96E020E032001
:10142000EA6E87C2EFFF1E51070806E1800ECF6EFD
:10143000CE6A1681020E1F6F2951D2080EE11E518D
:101440000E080AE31E511E2B036A540FE96E000EAC
:101450000320EA6E87C2EFFF23D02951D4080EE1A2
:101460001E5108080AE31E511E2B036A200FE96E65
:10147000020E0320EA6E87C2EFFF12D02951D60870
:101480000EE11E5119080AE31E511E2B036A630F59
:10149000E96E000E0320EA6E87C2EFFF01D0000064
:1014A00088517F08D8B09BD08851800802E1C9CF0D
:1014B00087F22951D10819E11E5108080EE31E5187
:1014C0001E2B036A200FE96E020E0320EA6EEFCF97
:1014D0008AF200015CDF08D002011E51080805E213
:1014E0008A69000154DF000002012951D3081AE182
:1014F0001E510E080EE31E511E2B036A540FE96E97
:10150000000E0320EA6EEFCF8AF2000140DF08D020
:1015100002011E510E0805E28A69000138DF000051
:1015200002015DD02951D5081AE11E5108080EE3C9
:101530001E511E2B036A200FE96E020E0320EA6E75
:10154000EFCF8AF2000123DF08D002011E51080804
:1015500005E28A6900011BDF0000020140D0295129
:10156000D7081AE11E5119080EE31E511E2B036AFB
:10157000630FE96E000E0320EA6EEFCF8AF20001DE
:1015800006DF08D002011E51190805E28A69000130
:10159000FEDE0000020123D02951D90806E18A6944
:1015A0000001F5DE00001AD002012951DB0806E136
:1015B0008A690001ECDE000011D002012951DD082A
:1015C00006E18A690001E3DE000008D0020129512A
:1015D000DF0805E18A690001DADE000002019E965B
:1015E00000015AEF04F00A0D2D2D2D2D2D2D2D2D3E
:1015F0002D2D2D2D2D2D2D2D2D2D2D2D2D2D0A0D5E
:1016000000000A0D0A0D2D2D2D2D2D2D2D2D2D2DEA
:101610002D2D2D2D2D2D2D2D2D2D2D2D0A0D7777A9
:10162000772E70696D6F64756C65732E636F6D00D6
:101630000A0D555053205049636F204861726477FA
:101640006172652052656C656173653A2056312E72
:10165000303000000A0D555053205049636F204828
:10166000617264776172652052656C656173653A79
:101670002056312E313000000A0D5550532050496C
:10168000636F2048617264776172652052656C6592
:101690006173653A2056312E313100000A0D556EC6
:1016A0006B6E6F776E20547970653A25580A0D007D
:1016B0000A0D4669726D776172652052656C6561CD
:1016C00073653A2056257300312E302058424D4321
:1016D0002030342E30392E323031352030783338C6
:1016E00000000A0D555053205049636F2052544357
:1016F0002054696D653A253032753A253032753A95
:10170000253032750A0D00000A0D555550532050F2
:1017100049636F2052544320446174653A25303444
:101720004C753A253032753A253032750A0D000075
:101730004C6F7720506F77657220526573746172B9
:10174000742054696D6528204C505253544120290F
:1017500069732575207365636F6E64730A0D0000ED
:101760000A0D506F776572696E6720536F757263EB
:10177000653A0000424154004C505200525049001A
:10178000554E4B4E4F5700000A0D412F4431205605
:10179000616C75652069733A254C58205B6D565D08
:1017A00000000A0D412F44322056616C7565206996
:1017B000733A254C58205B6D565D00000A0D52505F
:1017C0006920566F6C746167653A25782E257820FC
:1017D00056000A0D42415420566F6C746167653A99
:1017E00025782E25782056000A0D55505320504953
:1017F000636F205374617475730A0D000A0D41768E
:10180000657261676520506F776572696E672056F3
:10181000616C756573000A0D416E616C6F672F44D2
:1018200069676974616C20436F6E76657274657266
:101830002056616C756573000A0D46696C6520530E
:101840006166652053687574646F776E207768658C
:101850006E20506F776572206C6F6F7365205469CE
:101860006D652069733A2575205365636F6E6473E7
:1018700000000A0D46696C65205361666520536857
:101880007574646F776E207768656E20506F77652A
:1018900072206C6F6F73652054696D657220697377
:1018A000204F46462C20555053205049636F2077D7
:1018B000696C6C20776F726B20756E74696C206236
:1018C00061747465727920646973636861726765B5
:1018D00064000A0D5265616C2054696D6520436C8B
:1018E0006F636B20436F7272656374696F6E20461D
:1018F0006163746F722076616C75652069733A203C
:10190000307825780A0D0000466163746F72792083
:1019100044656661756C74732053657474696E6791
:101920002075702050726F6365647572650A0D00D2
:101930000A0D45726173696E6720555053205049F6
:10194000636F20696E7465726E616C2045455052FC
:101950004F4D00000A0D454550524F4D20457261D4
:10196000736564000A0D466163746F7279204C6F71
:101970007720506F7765722052657374617274209E
:1019800054696D652069733A202575205365636F2E
:101990006E6473000A0D466163746F727920426150
:1019A00074746572792052756E6E696E6720546921
:1019B0006D652069732073657420746F3A202575F6
:1019C000207365636F6E647300000A0D4361626C7F
:1019D0006520506F7765722052657475726E207441
:1019E000657374696E672074696D656F75742073B3
:1019F000657420746F3A202575205365636F6E649B
:101A000073000A0D5374696C6C20416C6976652013
:101A100054696D657220686173206265656E20642B
:101A2000697361626C6564000A0D53657474696E54
:101A3000672075702052544300000A0D466163749C
:101A40006F727920536574757020596561723A32EE
:101A50003030300A0D466163746F727920536574BB
:101A60007570204D6F6E74683A30310A0D466163AF
:101A7000746F727920536574757020446F773A30B3
:101A8000310A0D466163746F727920536574757005
:101A9000204461793A3031000A0D5265616C20545E
:101AA000696D6520436C6F636B20436F7272656371
:101AB00074696F6E20466163746F72207365742061
:101AC000746F2030205365636F6E647300000A0DDD
:101AD00058424D432046756E6374696F6E616C6940
:101AE000747920686173206265656E206469736132
:101AF000626C656400000A0D465353442054696DBE
:101B0000656F75742053657420746F20257520539C
:101B100065636F6E647300000A0D577269747469AF
:101B20006E6720466163746F7279205365747570B7
:101B300020206461746120746F20555053205049F7
:101B4000636F20454550524F4D000A0D446174614A
:101B5000207772697474656E20746F20555053201D
:101B60005049636F20454550524F4D000A0D426564
:101B700065700A0D00000A0D42616420436F6D6DAF
:101B8000616E643A2573200A0D000A0D5265736573
:101B90007474696E6720555053205049636F0A0D65
:101BA00000000A0D5175697474696E672066726F62
:101BB0006D2046535344204C505200000A0D55509E
:101BC00053205049636F2053797374656D205374AB
:101BD00061727465640A0D000A0D5261737062656A
:101BE0007272792050692069732072756E6E6E670B
:101BF000202D20626F6F74696E672070726F74653C
:101C00006374696F6E2064697361626C65640A0D48
:101C100000000A0D5261737062657272792050691A
:101C2000206973204E4F542072756E6E696E670A7C
:101C30000D000A0D526173706265727279205069ED
:101C4000205368757474696E6720646F776E2068BE
:101C50006173206265656E20646574656374656494
:101C600000000A0D526173706265727279205069CA
:101C7000205368757474696E6720646F776E20688E
:101C80006173206265656E20636F6D706C6574654D
:101C900064000A0D555053205049636F20537973E7
:101CA00074656D20456E746572696E67204C505284
:101CB000204D6F6465000A0D5374696C6C20416C93
:101CC0006976652054696D65722072656163686527
:101CD000732030302C20555053205049636F2046DC
:101CE00053534420686173206265656E20696E6994
:101CF00074696174656400000A0D5374696C6C202A
:101D0000416C6976652054696D6572205550532089
:101D10005049636F204653534420686173206265C5
:101D2000656E20636F6D706C6574656400000A0DEC
:101D300052657374617274696E672074686520738C
:101D4000797374656D000A0D696E70757428504959
:101D50004E5F465353442920213D203029207C7C6E
:101D6000207270695F72756E203D3D204F464600BF
:101D70000A0D4653534420427574746F6E2050729E
:101D8000657373656420555053205049636F204636
:101D900053534420686173206265656E20696E69E3
:101DA00074696174656400000A0D4653534420420F
:101DB0007574746F6E20507265737365642055502E
:101DC00053205049636F2046535344206861732069
:101DD0006265656E20636F6D706C6574656400008C
:101DE0000A0D555053205049636F20537973746521
:101DF0006D20456E746572696E67204C5052204D9F
:101E00006F6465000A0D4C6F7720426174746572CF
:101E10007920555053205049636F20465353442036
:101E2000686173206265656E20696E6974696174AA
:101E3000656400000A0D4C6F77204261747465720E
:101E40007920555053205049636F20465353442006
:101E5000686173206265656E20636F6D706C657478
:101E6000656400000A0D555053205049636F20539C
:101E7000797374656D20456E746572696E67204C68
:101E80005052204D6F6465000A0D54696D656420E1
:101E90004653534420555053205049636F20686186
:101EA00073206265656E20696E697469617465642A
:101EB00000000A0D54696D65642046535344205553
:101EC0005053205049636F20465353442068617338
:101ED000206265656E20636F6D706C65746564006B
:101EE0000A0D555053205049636F20537973746520
:101EF0006D20456E746572696E67204C5052204D9E
:101F00006F6465000A0D2058424D432054696D6589
:101F100064204653534420555053205049636F204A
:101F2000686173206265656E20696E6974696174A9
:101F3000656400000A0D2058424D432054696D65C8
:101F400064204653534420555053205049636F201A
:101F50004653534420686173206265656E20636F49
:101F60006D706C65746564000A0D555053205049BE
:101F7000636F2053797374656D20456E7465726963
:101F80006E67204C5052204D6F6465000A0D4E65FF
:101F900077202575207365636F6E6473206F6620EC
:101FA0004C505253544120686173206265656E2025
:101FB0007772697474656E20746F2074686520553B
:101FC0005053205049636F20454550524F4D0A0DE4
:101FD00000000A0D4E657720257520584D4243209C
:101FE00073657474696E6720686173206265656EDD
:101FF000207772697474656E20746F207468652030
:10200000555053205049636F20454550524F4D0A5B
:102010000D000A0D4E6577202575207365636F6E80
:1020200064732046535344204241542072756E6EAF
:10203000696E672054696D6520686173206265650B
:102040006E207772697474656E20746F2074686591
:1020500020555053205049636F20454550524F4DF5
:102060000A0D00000A0D4E65772025752073656303
:102070006F6E647320465353442074696D656F75A9
:102080007420686173206265656E2077726974746C
:10209000656E20746F207468652055505320504938
:1020A000636F20454550524F4D0A0D000A0D4661A1
:1020B0006E2053706565643A202575206861732031
:1020C0006265656E207772697474656E20746F2026
:1020D00074686520555053205049636F2045455022
:1020E000524F4D0A0D000A0D6E657720525443433E
:1020F00046203A20257520686173206265656E2050
:102100007772697474656E20746F207468652055E9
:102110005053205049636F20454550524F4D0A0D92
:1021200000000A0D555053205049636F20556E63CF
:102130006F6E646974696F6E616C204653534420FE
:102140005265717565737465640A0D000A0D55500A
:1021500053205049636F20556E636F6E64697469D4
:102160006F6E616C20465353442068617320626532
:10217000656E20696E6974696174656400000A0D9A
:10218000555053205049636F20556E636F6E6469DC
:1021900074696F6E616C20465353442068617320EC
:1021A0006265656E20636F6D706C657465640000B8
:1021B0000A0D555053205049636F2053797374654D
:1021C0006D20456E746572696E67204C5052204DCB
:1021D0006F6465000A0D555053205049636F2046C7
:1021E0006163746F727920536574757020526571E4
:1021F0007565737465640A0D00000A0D555053200F
:102200005049636F2052657365742052657175651E
:10221000737465640A0D00000A0D5550532050492F
:10222000636F20426F6F746C6F61646572205265DA
:10223000717565737465640A0D000A0D4856312E78
:1022400030207265636F676E697A65640A0D0000FD
:102250000A0D4856312E31207265636F676E697AB8
:1022600065640A0D00000A0D4856312E3131207286
:1022700065636F676E697A65640A0D000A0D5550D3
:1022800053205049636F20493243206861732062B4
:1022900065656E2073657420746F204932435F4E0C
:1022A0004F524D414C202D20726573657474696ED8
:1022B000670A0D000A0D555053205049636F20499D
:1022C000324320686173206265656E2073657420F7
:1022D000746F204932435F4D494E494D414C202D8A
:1022E00020726573657474696E670A0D00000A0DCB
:1022F000555053205049636F204932432068617321
:10230000206265656E2073657420746F20493243C6
:102310005F4E4F525443202D20726573657474696B
:102320006E670A0D00000A0D555053205049636F27
:102330002052544320686173206265656E20757079
:1023400064617465642066726F6D207468652052E4
:1023500050690000F2CF59F2F29EA96AA69CA69E8F
:10236000A680A850020159BFF28E586F5851A00A9A
:10237000000105E0010A08E0030A0BE00FD0F00EAF
:10238000776ED00EC86E0ED0F80E776ED00EC86E77
:1023900009D0FA0E776ED20EC86E04D0F80E776EA2
:1023A000D00EC86E1200F00EBD1694948B941200DD
:1023B00002017351D8B471D0006E7751D8B46DD08A
:1023C000002604E3810E002668E204D07F0E005E42
:1023D00064E363E074C27BF278517B1B748F788F67
:1023E00076517A03F4CF7DF275517903F4CF03F07F
:1023F000F3CF7CF27A03F3507D27F4507C23000E58
:10240000032276517903F3507D27F4507C23000E8C
:10241000026A0322022274517A03F3507C27F4509B
:102420000322000E022274517903F3500326F45064
:102430000222000E016A012276517803F3507C27B4
:10244000F4500322000E0222012275517803F3504A
:102450000326F4500222000E012274517803F35037
:102460000226F4500122002A01BE05D07C37033633
:10247000023601360006000E7CAF0AD0032A022283
:102480000122015005E1025003E1035001E1002A5D
:102490007BBF018E7BAF019E04D0006A016A026A95
:1024A000036A0001120002015F51D8B4A5D06B6F1E
:1024B0006351D8B4A1D06B5F05E37F0E6B27D8B012
:1024C0009BD006D0810E6B5FD8A096D0D8B494D0A4
:1024D0006BC200F0016A026A036A6A6B60C269F249
:1024E000698F61C268F262C267F2190E6B6F665142
:1024F000675F0DE2010E685F0AE2695F08E26A5FEA
:1025000006E26A2B692B682B6651672728D0655134
:10251000685F12E2010E695F0FE26A5F0DE26A2BEB
:10252000692B655168276651672719E3682B17E106
:10253000692B15E16A2B13D064518009695F0EE2A3
:10254000010E6A5F0BE26A2B6451800969276551AD
:102550006827E9E3692BE7E16A2BE5D703806B2F56
:1025600001D00BD0D8906737683769376A37D89071
:102570000336023601366C37BAD76CA106D0D89034
:102580000132023203326C3302D0000635E06CBFF8
:102590001ED0D8906737683769376A376651675FEA
:1025A00007E2010E685F04E2695F02E26A5F1AE314
:1025B0006551685F05E2010E695F02E26A5F12E33E
:1025C00064518009695F03E2010E6A5F0BE3032A2D
:1025D00009E1022A07E1012A05E1002A0DE00132A2
:1025E0000232033260C26BF264516B1B6BAF02D0DC
:1025F000018E06D0019E04D0006A016A026A036A55
:102600000001120074C27BF2020178517B1B7BAF88
:1026100005D0D894D89074BFD8802FD074C27BF2E4
:1026200077C27CF273517C5F06E07BAF26D0D85036
:10263000010AD86E22D078C27CF274517C5F06E029
:102640007BAF1BD0D850010AD86E17D079C27CF26C
:1026500075517C5F06E07BAF10D0D850010AD86E70
:102660000CD07AC27CF276517C5F06E07BAF05D05D
:10267000D850010AD86E01D0D890000112008E0EF9
:10268000006E02017351005E74C202F075C201F067
:10269000028E005209E0D890025202E1015204E099
:1026A00002320132002EF7D774AF05D0011E021E90
:1026B000012AD8B4022A000112008E0E006E78C2E0
:1026C00001F077C202F0036A015209E102C001F091
:1026D000026A080E005E015202E1006A08D0D8903A
:1026E00001BE04D0023601360006F9D7019E120061
:1026F000800ED8A202D002017C1B0201816B826B8A
:1027000078C280F27C51801B7751D8B4DFD07F6FC4
:10271000006E7B51D8B4E3D07F5FD8B483D03EE362
:102720007CC285F2858F7DC284F27EC283F2826B89
:10273000D89085338433833382337F2FF8D780AFAB
:1027400003D08181E0D081917F918189020EEA6E70
:102750007A0EE96EEBD0819980BF0AD07FA113D0A9
:102760008533843383338233002AD8B4C7D00BD067
:1027700085BF0CD0D89082378337843785370006E1
:10278000D8B4BCD0F5D7818D6DD0819D78C280F250
:1027900078AF02D0858FABD0859FA9D07BC27FF266
:1027A0007BC200F077517F5F78C285F2858F79C256
:1027B00084F27AC283F2826BD89085338433833378
:1027C00082337F2FF8D780AF03D081839CD0819351
:1027D0007F91818B020EEA6E7E0EE96EA7D0819BFF
:1027E00080BF0AD07FA113D08533843383338233F3
:1027F000002AD8B483D00BD085BF0CD0D8908237B4
:102800008337843785370006D8B478D0F5D7818FE1
:1028100029D0819F7CC280F27CAF02D0858F67D0A7
:10282000859F65D07CC285F2858F7DC284F27EC291
:1028300083F280AF04D0859F818565D08195826BBE
:102840007F91020EEA6E7A0EE96E70D080BF1CD0C6
:1028500078C280F27FA106D08533843383338233FC
:10286000002A4CE082AF0BD0832B09E1842B07E1D7
:10287000852B05E1853384338333002A3FE081BD16
:1028800084D781BFC6D71CD0800E851B85AF04D0EE
:102890003AD07CC280F20AD078C280F2855306E139
:1028A000845304E1835302E1006A21D085BF08D03C
:1028B000D8908237833784378537002EF7D71ED0DC
:1028C00080AF02D0858F13D0859F11D07BC200F0DE
:1028D0007CC285F27DC284F27EC283F208D077C2C8
:1028E00000F078C285F279C284F27AC283F285C29E
:1028F00001F084C202F083C203F034D0006A016A9E
:10290000026A036A2FD0826B831F841F851F821F78
:10291000822B05E1832B03E1842B01E1852B81B11F
:1029200012D781B354D781B589D7B3D7EF50832756
:1029300005E3842B03E1852BD8B47F81ED52EF5062
:10294000842703E3852BD8B47F81ED52EF50EFBE8F
:1029500001D0800A8527D8B07F8181B9FCD681BBA0
:102960003ED774D7000112000201729166C26BF269
:1029700065C26AF264C269F263C268F266C276F244
:1029800065C275F264C274F263C273F27A6B796BDA
:10299000786B776B000136DE06E3020172816951C4
:1029A000800A696F00016BC276F26AC275F269C271
:1029B00074F268C273F202017A6B796B786B8E0ED7
:1029C000776F00011FDE01E217E16BC276F26AC287
:1029D00075F269C274F268C273F251DE02C078F215
:1029E00001C077F26ADE03C06FF202C06EF201C06E
:1029F0006DF200C06CF2C7D06BC276F26AC275F29B
:102A000069C274F268C273F2800E02017A6F960E88
:102A1000796F180E786F960E776F0001F3DDD8A0EE
:102A2000AAD06BC276F26AC275F269C274F268C249
:102A300073F202017A6B796B786B700E776F00011D
:102A4000B7DC03C076F202C075F201C074F200C0B8
:102A500073F215DE02C071F201C070F26BC276F241
:102A60006AC275F269C274F268C273F202017A6BCB
:102A7000796B786B700E776F00019ADC03C076F289
:102A800002C075F201C074F200C073F271C278F234
:102A900070C277F212DED88276C27AF275C279F20B
:102AA00074C278F273C277F203C07EF202C07DF284
:102AB00001C07CF200C07BF21BDE0201766B756BFD
:102AC000746B8E0E736F03C07AF202C079F201C08C
:102AD00078F200C077F200016BDC03C06BF202C039
:102AE0006AF201C069F200C068F271C278F270C285
:102AF00077F2E3DD0201766B756B746B8E0E736F8C
:102B000003C07AF202C079F201C078F200C077F215
:102B100000014EDC03C06FF202C06EF201C06DF224
:102B200000C06CF26BC276F26AC275F269C274F2CE
:102B300068C273F2A4DD02C078F201C077F2BDDD95
:102B4000D8926FC27AF26EC279F26DC278F26CC21C
:102B500077F203C07EF202C07DF201C07CF200C0B9
:102B60007BF2C6DD03C06FF202C06EF201C06DF2EF
:102B700000C06CF208D06BC26FF26AC26EF269C21A
:102B80006DF268C26CF26BC276F26AC275F269C20B
:102B900074F268C273F273DD02C078F201C077F29A
:102BA0008CDDD8826BC27AF26AC279F269C278F29D
:102BB00068C277F203C07EF202C07DF201C07CF2EF
:102BC00000C07BF295DD03C06BF202C06AF201C067
:102BD00069F200C068F2020172A103D06D51800A4F
:102BE0006D6F6BC276F26AC275F269C274F268C226
:102BF00073F27A6B796B786B776B000103DD3AE0E7
:102C0000020172A11BD0675319E1D8826FC27AF218
:102C10006EC279F26DC278F26CC277F27E6B7D6B18
:102C20007C6B7F0E7B6F000163DD03C06FF202C01F
:102C30006EF201C06DF200C06CF2020172B11BD0E5
:102C4000672D19D0D8926FC27AF26EC279F26DC236
:102C500078F26CC277F27E6B7D6B7C6B7F0E7B6F44
:102C6000000146DD03C06FF202C06EF201C06DF2DA
:102C700000C06CF2020166C276F265C275F264C2EF
:102C800074F263C273F27A6B796B786B776B0001C5
:102C9000B9DC06E102016F6B6E6B6D6B6C6B000152
:102CA0006CC200F06DC201F06EC202F06FC203F0A0
:102CB00066EF16F062C266F261C265F260C264F24B
:102CC0005FC263F20201676B00014ED6120058C268
:102CD00076F257C275F256C274F255C273F29A0E6A
:102CE00002017A6F990E796F190E786F7E0E776FE9
:102CF0000001D8EC11F003C05EF202C05DF201C029
:102D00005CF200C05BF203C076F202C075F201C053
:102D100074F200C073F202017A6BC00E796F7F0EFD
:102D2000786F880E776F0001D8EC11F003C05EF267
:102D300002C05DF201C05CF200C05BF203C062F24F
:102D400002C061F201C060F200C05FF2330E020106
:102D5000666F656F530E646F800E636F000153ECF6
:102D600012F003C05EF202C05DF201C05CF200C06E
:102D70005BF203C062F202C061F201C060F200C007
:102D80005FF298DF03C076F202C075F201C074F200
:102D900000C073F274DC02C05AF201C059F20201A1
:102DA00059C201F05AC202F00001120058C276F274
:102DB00057C275F256C274F255C273F2990E0201EF
:102DC0007A6F796F190E786F7E0E776F0001D8ECED
:102DD00011F003C05EF202C05DF201C05CF200C0FF
:102DE0005BF203C076F202C075F201C074F200C05B
:102DF00073F202017A6BC00E796F7F0E786F880EC6
:102E0000776F0001D8EC11F003C05EF202C05DF2F2
:102E100001C05CF200C05BF203C062F202C061F26A
:102E200001C060F200C05FF2330E0201666F656F91
:102E3000530E646F800E636F000153EC12F003C0F9
:102E40005EF202C05DF201C05CF200C05BF203C042
:102E500062F202C061F201C060F200C05FF22ADFDC
:102E600003C076F202C075F201C074F200C073F2C2
:102E700006DC02C05AF201C059F2020159C201F047
:102E80005AC202F000011200D8B204D0020EEA6E5B
:102E90006B0EE96E006A016A026A036A02016B6BDB
:102EA0006C6B6D6B6E6B6A516911681167112CE068
:102EB000200E6F6FD89063376437653766376B378E
:102EC0006C376D376E376A516E5D08E169516D5D23
:102ED00005E168516C5D02E167516B5D0FE367517D
:102EE0006B5F6851D8A0683D6C5F6951D8A0693D9F
:102EF0006D5F6A51D8A06A3D6E5FD880003601369A
:102F0000023603366F2FD6D76BC2EFFF6CC2ECFFD1
:102F10006DC2ECFF6EC2ECFF000112005CC266F2F3
:102F20005BC265F25AC264F259C263F258C26AF2D5
:102F300057C269F256C268F255C267F2A5DF025065
:102F400004E1015002E100502EE103C066F202C02C
:102F500065F201C064F200C063F202016A6B696B42
:102F6000686B040E676F00018FDF025004E10150AF
:102F700002E100501BE103C066F202C065F201C02D
:102F800064F200C063F202016A6B696B686B040E45
:102F9000676F000179DF025004E1015002E1005047
:102FA00008E1006A06D0040ECA6E05D0050ECA6E8E
:102FB00002D0060ECA6E000600C0CBFF7BEF2BF0DE
:102FC0000201676B686B010E696FDA6AD96A020EDB
:102FD0006C6F5F0E6B6F020EEA6E630EE96E6CC271
:102FE000E2FF6BC2E1FF69C26AF2D890E550EE02DF
:102FF000F3506723F45068236A2FF7D767C2DEFFC8
:1030000068C267F2686BD8B0682B6B2BD8B46C2B96
:10301000692B69510508DFE100011200CBCF57F29F
:103020000201586B572BD8B4582BD89057375837C4
:1030300057375837626B616B58C260F257C25FF204
:10304000666B656B56C264F255C263F20001B8DF6D
:1030500003C066F202C065F201C064F200C063F210
:1030600002016A6B696B030E686FE80E676F0001FF
:103070000BDF00C002F0013200320132003200C02A
:10308000BEFF0236023602360236CF0EBD16300EB5
:103090000214BD1283EF2BF0020EEA6E5A0EE96E97
:1030A000EF500EE0140E016E006A002EFED7012EC6
:1030B000FBD7BF0E006E002EFED700D0EF2EF2D74A
:1030C00012000201619101017751765D03E1020175
:1030D00061810101036A7651160FE96E010E03202A
:1030E000EA6E60C2EFFF010E76250201646F196A75
:1030F000F2BE198EF29E8A6F600E8B6F0001F9ECA2
:1031000004F019BEF28E00C062F201017751020193
:10311000625DD8A402D00001F8D762C276F161A145
:1031200001D09D88000112000900F5520CE0F6CF95
:1031300059F2F7CF5AF2F5CF60F2C3DF59C2F6FF6A
:103140005AC2F7FFF1D712005CC201F05BC200F077
:103150000066012A0900F5CFEEFF002EFBD7012EF5
:10316000F9D7F86AC3EF18F0F86A070EF76EFE0E8B
:10317000F66E020EEA6E580EE96E02015C6B010EED
:103180005B6F0001E1D758C25AF202015AC201F046
:10319000000112000900F6CF5AF2F7CF5BF2F5CF2B
:1031A00060F28FDF5AC2F6FF5BC2F7FF0201592FB0
:1031B00001D002D00001EED70001120002015ABF77
:1031C00011D00F0E006E593900160A0E005C03E292
:1031D000300E002602D05A51002600C060F20001D5
:1031E00070DF02010F0E59170A0E595D02E2300E10
:1031F00002D05A9F5A51592759C260F2000161DF2B
:103200001200E60EF66E150EF76E8EDF12000A0E35
:103210000201606F000155DF0D0E0201606F0001B9
:1032200050DF1200020EF66E160EF76E7DDF9CDF89
:103230000150500A05E0010A09E0020A0DE012D02F
:10324000300EF66E160EF76E6FDF2BD0540EF66E44
:10325000160EF76E69DF25D0780EF66E160EF76E35
:1032600063DF1FD081DF01C058F29C0EF66E160E90
:10327000F76E0F0E0201596F00018CDF58C259F230
:10328000370E02015A6F000199DF0A0E0201606FCA
:10329000000117DF0D0E0201606F000112DFB1DFC8
:1032A00010D0B00EF66E160EF76E150E0201596FA5
:1032B000000170DFC80EF66E160EF76E35DFA1DF67
:1032C000A6DF12000150196AF2BE198EF29E58C292
:1032D0008AF2640E02018B6F0001F9EC04F019BE52
:1032E000F28E00C058F20150300E08E1020159A3DD
:1032F0000FD059B70DD059B9200E04D002015997FB
:1033000059995981012601C060F20001DADE0201FB
:10331000196AF2BE198EF29E58C28AF20A0E8B6F9B
:103320000001F9EC04F019BEF28E00C058F2015011
:10333000300E08E1020159B70AD059A108D059B995
:10334000200E0001012601C060F2BBDE0201300E3A
:10335000582758C260F20001B4DE120002011D6B52
:10336000010E1B6F1BC21AF21AC21CF2196B19C292
:1033700017F2196AF2BE198EF29E17C287F2000187
:103380005AEC08F019BEF28E01C020F2196AF2BEA2
:10339000198EF29E18C287F25AEC08F019BEF28E0E
:1033A00001C021F2196AF2BE198EF29E19C287F28B
:1033B0005AEC08F019BEF28E01C022F2196AF2BE70
:1033C000198EF29E1AC287F25AEC08F019BEF28EDC
:1033D00001C023F2196AF2BE198EF29E1BC287F257
:1033E0005AEC08F019BEF28E01C024F2196AF2BE3E
:1033F000198EF29E1CC287F25AEC08F019BEF28EAA
:1034000001C025F2196AF2BE198EF29E1DC287F222
:103410005AEC08F019BEF28E01C026F21200020129
:10342000596B586B196AF2BE198EF29E010E876FA6
:10343000000136EC06F019BEF28E648F0201596B62
:10344000586B59532CE158512A0829E3036A585103
:103450002A0FE96E000E0320EA6EEFCF5AF2A6B2F1
:10346000FED7A694F250006EF29E58C2A9FF5AC22F
:10347000A8FFA69CA69EA6840F01550EA76EAA0EB5
:10348000A76EA6820050F2120A0E02015A6F0001C6
:1034900003DE04000201582BD8B4592BD2D7196A85
:1034A000F2BE198EF29E010E876F000112EC06F03B
:1034B00019BEF28E649F1200D20EF66E0A0EF76EDF
:1034C00033DEF2CF59F2F29EA96AA69CA69EA68090
:1034D000A850020159BFF28E586F5851A00A00013E
:1034E00005E0010A09E0030A0DE012D0EA0EF66ECB
:1034F0000A0EF76E19DE0CD0F80EF66E0A0EF76E95
:1035000013DE06D0060EF66E0B0EF76E0DDE00D043
:103510001200196AF2BE198EF29E070E0201876F21
:10352000000136EC06F019BEF28E7CDE080EF66E57
:10353000190EF76EF9DD300EF66E190EF76EF4DD2A
:103540000201576B566B575100081FE3A6B2FED716
:10355000A694F250006EF29E56C2A9FFA868A69CDF
:10356000A69EA6840F01550EA76EAA0EA76EA68270
:103570000050F21204000A0E02015A6F00018CDDA5
:103580000201562BD8B4572BDED7540EF66E190E07
:10359000F76E0001C9DDA10E2A6E030E2F6E2FC03B
:1035A0006DF0640EF66E190EF76E250E0201596F5E
:1035B0000001F0DD2FC058F21B0E0201596F00010F
:1035C00081DE8B0EF66E190EF76E080E0201596F32
:1035D0000001E0DD2D0E2C6E2CC06CF0940EF66E0A
:1035E000190EF76E2A0E0201596F0001D3DD6CC06F
:1035F00058F21B0E0201596F000164DEC00EF66E18
:10360000190EF76E080E0201596F0001C3DD030E9B
:103610002D6E2DC06EF0CA0EF66E190EF76E2D0EC1
:103620000201596F0001B6DD6EC058F21B0E020197
:10363000596F000147DEF90EF66E190EF76E080E8F
:103640000201596F0001A6DD020EF66E1A0EF76E2A
:103650006BDD6B69280EF66E1A0EF76E65DD7EDE89
:103660003A0EF66E1A0EF76E5FDD980EF66E1A0EB3
:10367000F76E5ADD0201276B27C230F0CE0EF66ED0
:103680001A0EF76E000150DD7A6B7AC033F0F60E39
:10369000F66E1A0EF76E160E0201596F00017ADDF2
:1036A000200E0201586F1B0E596F00010BDE0E0E2B
:1036B000F66E1B0EF76E080E0201596F00016ADDEF
:1036C000200E7B6F7BC02BF00400180EF66E1B0ED5
:1036D000F76E2ADDA4DE4A0EF66E1B0EF76E24DDB1
:1036E00096DD196AF2BE198EF29E070E0201876FEF
:1036F000000112EC06F019BEF28EAAEC11F0DCDE2D
:103700001200196AF2BE198EF29E070E0201876F2F
:10371000000112EC06F019BEF28E196AF2BE198E83
:10372000F29E010E0201876F000112EC06F019BE35
:10373000F28E196AF2BE198EF29E0201876B0001A9
:1037400012EC06F019BEF28E196AF2BE198EF29EC4
:10375000050E0201876F000112EC06F019BEF28E11
:10376000196AF2BE198EF29E060E0201876F0001E1
:1037700012EC06F019BEF28E1200CBDEF29A0201B4
:10378000556B5551040854E3020E566FFA0E5A6FEA
:10379000000182DC0201562FF9D704000001B1DFDD
:1037A000929A899AFA0E02015A6F000175DC0400A0
:1037B000929A898A196AF2BE198EF29E050E02014A
:1037C000876F000136EC06F019BEF28E196AF2BE60
:1037D000198EF29E060E0201876F000136EC06F08C
:1037E00019BEF28E196AF2BE198EF29E0201876B23
:1037F000000136EC06F019BEF28E196AF2BE198E7F
:10380000F29E010E0201876F000136EC06F019BE30
:10381000F28E196AF2BE198EF29E070E0201876FB0
:10382000000136EC06F019BEF28E0201552BA9D725
:10383000929A899AF28A320E5A6F00012DDC8A0E12
:10384000F66E1B0EF76E70DC320E02015A6F00012D
:1038500023DCFF001200120EF66E0B0EF76E64DC16
:1038600002015551000A00010DE0030A11E0040AAB
:1038700015E00C0A19E0070A1DE0020A21E0010A1E
:1038800025E02AD02E0EF66E0B0EF76E4DDC29D0F9
:10389000400EF66E0B0EF76E47DC23D0500EF66E20
:1038A0000B0EF76E41DC1DD05C0EF66E0B0EF76E44
:1038B0003BDC17D06C0EF66E0B0EF76E35DC11D0BC
:1038C0007C0EF66E0B0EF76E2FDC0BD08E0EF66EA6
:1038D0000B0EF76E29DC05D09C0EF66E0B0EF76E04
:1038E00023DC0A0E0201606F000161EC18F00D0E7E
:1038F0000201606F000161EC18F0D8EF2BF00201BB
:10390000556B55512E080BE3036A5551DA0FE96EDA
:10391000010E0320EA6EEF6A0400552BF2D7010175
:103920000C9D02010A6B000112000C0EBD12120068
:10393000FCDF320E02015A6F00014CEC18F0D3ECA0
:1039400011F043EF20F002016669656960C262F21E
:103950005FC261F2646B636B655302E166533FE0E3
:103960006551D8B4660765076251260809E2FF0A67
:1039700003E161510F0804E2FF0E016E026E33D0C5
:10398000625102080CE2FF0A03E16151E70807E215
:10399000E80E615F030E625B100E64271FD0625356
:1039A00003E16151630807E2640E615F000E625B30
:1039B000010E642713D0625303E16151090809E243
:1039C0000A0E615F000E625B100E6327000E642317
:1039D00005D0615163276251642301D0BDD763C212
:1039E00001F064C202F000011200D89002010E350D
:1039F000036AC10FE96E000E0320EA6EC0C0ECFF3F
:103A0000ED52BFC0EFFF0E51000802E20E6B01D075
:103A10000E2B0001BC6BBB6BBA6BB96B0201566B12
:103A20005651010816E3D8905635036AC10FE96E66
:103A3000000E0320EA6EECCF03F0ED52EF500001D0
:103A4000B9270350BA23000EBB23BC230201562B17
:103A5000E7D7D8900001BC31BB31BA31016EB93122
:103A6000BD6F01C0BEF0BEC078F2BDC077F25DECA4
:103A700013F003C076F202C075F201C074F200C008
:103A800073F285C07AF284C079F283C078F282C082
:103A900077F2D8EC11F003C076F202C075F201C0E3
:103AA00074F200C073F23FEC13F002C058F201C090
:103AB00057F258C260F257C25FF245DF02C058F0B9
:103AC00001C057F074EF1FF0196AF2BE198EF29E12
:103AD000320E0201876F0001D6EC05F019BEF28E9E
:103AE00012008693040E016EC250C30B0110C26E09
:103AF000EBDFC282C2B2FED7C4CF58F20201C3CFFD
:103B000057F2000186B305D058C2B4F057C2B3F0E3
:103B100015D08693040E016EC250C30B0110C26E05
:103B2000D3DFC282C2B2FED7C4CF58F20201C3CFE4
:103B300057F258C2B4F057C2B3F00001D890020156
:103B40000D35036AB50FE96E000E0320EA6EB4C0AE
:103B5000ECFFED52B3C0EFFF0D51000802E20D6B18
:103B600001D00D2B0001B06BAF6BAE6BAD6B0201E2
:103B7000566B5651010816E3D8905635036AB50FB7
:103B8000E96E000E0320EA6EECCF03F0ED52EF5029
:103B90000001AD270350AE23000EAF23B023020176
:103BA000562BE7D7D8900001B031AF31AE31016E5E
:103BB000AD31B16F01C0B2F0B2C078F2B1C077F2EE
:103BC0005DEC13F003C076F202C075F201C074F22E
:103BD00000C073F281C07AF280C079F27FC078F2BF
:103BE0007EC077F2D8EC11F003C076F202C075F215
:103BF00001C074F200C073F23FEC13F002C05AF23D
:103C000001C059F25AC260F259C25FF29CDE02C092
:103C100056F001C055F075EF1FF0D89002010F3536
:103C2000036ACB0FE96E000E0320EA6EF5C0ECFFCD
:103C3000ED52F4C0EFFF0F51000802E20F6B01D00C
:103C40000F2B0001C86BC76BC66BC56B0201566BAF
:103C50005651010816E3D8905635036ACB0FE96E2A
:103C6000000E0320EA6EECCF03F0ED52EF5000019E
:103C7000C5270350C623000EC723C8230201562BB5
:103C8000E7D7D8900001C831C731C631016EC531C0
:103C9000C96F01C0CAF0CAC078F2C9C077F25DEC42
:103CA00013F003C076F202C075F201C074F200C0D6
:103CB00073F2330E02017A6F796F530E786F760EBE
:103CC000776F0001D8EC11F003C05EF202C05DF224
:103CD00001C05CF200C05BF2D88203C07AF202C07D
:103CE00079F201C078F200C077F2330E02017E6FE4
:103CF0007D6F7C6F7E0E7B6F000178EC13F003C04C
:103D00005EF202C05DF201C05CF200C05BF203C073
:103D100062F202C061F201C060F200C05FF2770E91
:103D20000201666FBE0E656F1F0E646F790E636FC2
:103D3000000153EC12F003C05AF202C059F201C064
:103D400058F200C057F25AC276F259C275F258C200
:103D500074F257C273F23FEC13F002C05CF201C080
:103D60005BF2196AF2BE198EF29E01C087F25AEC1C
:103D700008F019BEF28E01C060F076EF1FF0D89007
:103D800002011035036AD50FE96E000E0320EA6EBA
:103D9000F7C0ECFFED52F6C0EFFF1051000802E251
:103DA000106B01D0102B0001D26BD16BD06BCF6B9D
:103DB0000201566B5651010816E3D8905635036A36
:103DC000D50FE96E000E0320EA6EECCF03F0ED5242
:103DD000EF500001CF270350D023000ED123D22370
:103DE0000201562BE7D7D8900001D231D131D03122
:103DF000016ECF31D36F01C0D4F0D4C078F2D3C0FC
:103E000077F25DEC13F003C076F202C075F201C0E8
:103E100074F200C073F2330E02017A6F796F530EA1
:103E2000786F760E776F0001D8EC11F003C05EF268
:103E300002C05DF201C05CF200C05BF2D88203C038
:103E40007AF202C079F201C078F200C077F2CD0EAA
:103E500002017E6FCC0E7D6F4C0E7C6F7D0E7B6FF2
:103E6000000178EC13F003C05EF202C05DF201C005
:103E70005CF200C05BF203C062F202C061F201C0FA
:103E800060F200C05FF2770E0201666FBE0E656FD2
:103E90001F0E646F790E636F000153EC12F003C0C4
:103EA0005AF202C059F201C058F200C057F25AC289
:103EB00076F259C275F258C274F257C273F23FECEF
:103EC00013F002C05CF201C05BF2196AF2BE198EF7
:103ED000F29E01C087F25AEC08F019BEF28E01C0C2
:103EE00061F077EF1FF081D5FCD597D648D7120047
:103EF000D95311E1DC530FE156C2D9F057C2DCF0BF
:103F0000196AF2BE198EF29E0201876B000136EC2F
:103F100006F019BEF28E1200010E0201566F020E5B
:103F2000576F0001E5DF196AF2BE198EF29E070E87
:103F30000201876F000112EC06F019BEF28E040038
:103F400001011051010A000109E0030A20E0010A01
:103F500037E0070A4EE0010A65E07DD0196AF2BE3B
:103F6000198EF29E050E0201876F000136EC06F0F5
:103F700019BEF28E196AF2BE198EF29E060E020169
:103F8000876F000112EC06F019BEF28E64D0196A38
:103F9000F2BE198EF29E050E0201876F000112EC2F
:103FA00006F019BEF28E196AF2BE198EF29E060E46
:103FB0000201876F000136EC06F019BEF28E4BD07D
:103FC000196AF2BE198EF29E050E0201876F00017A
:103FD00036EC06F019BEF28E196AF2BE198EF29E08
:103FE000060E0201876F000112EC06F019BEF28E78
:103FF00032D0196AF2BE198EF29E050E0201876F49
:10400000000112EC06F019BEF28E196AF2BE198E8A
:10401000F29E060E0201876F000136EC06F019BE13
:10402000F28E19D0196AF2BE198EF29E050E0201A7
:10403000876F000136EC06F019BEF28E196AF2BEE7
:10404000198EF29E060E0201876F000112EC06F037
:1040500019BEF28E00D049EF20F0010E736F726F1F
:10406000060E0101106F10C155F20C97105313E0AA
:104070000F0E02015A6F00014CEC18F001010CA761
:1040800004D0000155D401010C97040000012BDF7E
:1040900043D70101EBD70001726B929E898E929CEF
:1040A000899C01010C990001EBEF2BF086A946D009
:1040B00002015551FC0F43E2040F0001A1EF20F073
:1040C000196AF2BE198EF29E010E0201876F00017D
:1040D00036EC06F019BEF28E6481020130D0196A06
:1040E000F2BE198EF29E010E0201876F000136ECBE
:1040F00006F019BEF28E6483020121D0196AF2BE65
:10410000198EF29E010E0201876F000136EC06F057
:1041100019BEF28E6485020112D0196AF2BE198EA0
:10412000F29E010E0201876F000136EC06F019BE07
:10413000F28E6487020103D002D000010201000167
:104140001200E824F76AF7365D0FF66E410EF7228B
:104150000A00F550FA6E0800F550F96EC040DE40D6
:10416000FC401A4101010F51070806E1030E02014C
:10417000556F00019BDF01010001FAEF2BF00BD01E
:10418000BE51965D08E303E19551BD5D04E2020175
:10419000556B00018BDF12000201566B556B566B9D
:1041A000556B56531BE155512A0818E3036A5551C4
:1041B0002A0FE96E000E0320EA6EF2CF59F2F29E4A
:1041C00055C2A9FFA69CA69EA680A85059BFF28EF4
:1041D000EF6E0400552BD8B4562BE3D70001FFEF48
:1041E0002BF0030E0101076F0001868B868D1200F4
:1041F000A09201010C8100018683ED51020862E169
:104200006EC0EFF0070EF16FD00EF06F929C899C9C
:1042100001010C990400000E016EC250C30B011085
:10422000C26E0001F05302E1F15332E0F051D8B414
:10423000F107F007C28202015591C2A2558155B122
:1042400004D05591C2A25581FAD7C2B2FED7C4CFCD
:10425000C0F00001C3CFBFF0C051985D18E303E187
:104260009751BF5D14E2929C898C01010C89040076
:10427000020E0001ED6FEDC054F0030EF36FE80E77
:10428000F26F01010C910C9BA08220D00001CAD7D3
:10429000E06BDF6BE26BE16BE46BE36BC06BBF6BFE
:1042A000929C899C01010C9900019BDF010EED6F2E
:1042B000EDC054F0030EF36FE80EF26F0101036BD3
:1042C000026B000101010C910C9BA0820001120005
:1042D00001010CAB03D000018BDF010100013BEFBA
:1042E0002CF00CD0B251885D09E303E18751B15D38
:1042F00005E2010E0201556F0001D8DE40EF2CF0FF
:104300000101075316E1000186BB02D0010111D063
:10431000869BB10E0101086F00019451C05D08E356
:1043200003E1BF51935D04E286B502D0929A898A77
:104330000101000112006F2D0DD0196AF2BE198E15
:10434000F29E050E0201876F000136EC06F019BEE1
:10435000F28E0CD0196AF2BE198EF29E050E020181
:10436000876F000112EC06F019BEF28E702D0DD091
:10437000196AF2BE198EF29E060E0201876F0001C5
:1043800036EC06F019BEF28E0CD0196AF2BE198E08
:10439000F29E060E0201876F000112EC06F019BEB4
:1043A000F28E1200020157C2E9FF58C2EAFF5D6BAC
:1043B0005C6BECCF5BF2ED52EFCF5AF2020E572559
:1043C000E96E000E5821EA6EEFCFFCFF595302E16F
:1043D000010E596F59C224F05BC2FAFF5AC2E8FFBE
:1043E000F96E000112008685E06BDF6BE26BE16B1A
:1043F000E46BE36BC06BBF6B01010C95949A8B8AE5
:10440000929E898E929C898C0C89030E0001F36F19
:10441000E80EF26F01010C91050E0E6F010E000106
:10442000EF6F850ED56EB50EB16E196AF2BE198E9C
:10443000F29E640E0201876F0001D6EC05F019BEF2
:10444000F28EAAEC11F0196AF2BE198EF29E640E79
:104450000201876F0001D6EC05F019BEF28EF28AD8
:104460009D82A0829D889D8A9D86F2867D8A0A0E05
:1044700002015A6F00014CEC18F0A20EF66E1B0EF2
:10448000F76E94EC18F0FA0E02015A6F00014CEC32
:1044900018F0AEDE869F0101036B026B0201566BC2
:1044A000250E556F56C258F2576F010E596F000115
:1044B00079DF1200196AF2BE198EF29E0BEC07F03A
:1044C00019BEF28EC0519A5D09E303E19951BF5DB7
:1044D00005E201010C9304D003D0000101010C831B
:1044E00000011200B48EB4ACFED7C050C00B32092C
:1044F000C06EC08EC2803C0E016EC250C30B011054
:10450000C26EC282020155B104D05591C2A255813A
:10451000FAD7C2B2FED7C4CF9EF00001C3CF9DF040
:10452000C050C00B3409C06EC08EC2809E510008BE
:1045300009E2FF0A03E19D51C10804E2949A8B9AB3
:104540000400FED71200196AF2BE198EF29E040E04
:104550000201876F000136EC06F019BEF28E196A6F
:10456000F2BE198EF29E040E0201876F000112EC5A
:1045700006F019BEF28EFA0E02015A6F00014CECE1
:1045800018F0196AF2BE198EF29E040E0201876FAE
:10459000000112EC06F019BEF28E196AF2BE198EF5
:1045A000F29E040E0201876F000136EC06F019BE80
:1045B000F28E12007151020802E195EC1CF012001B
:1045C0007151020802E1D3EC11F01200196AF2BE37
:1045D000198EF29E020E0201876F000112EC06F0A6
:1045E00019BEF28E7BC00AF101010A5312E00001EC
:1045F000A2DE0400190E02015A6F00014CEC18F003
:10460000010E0201566F020E576F000171DCECD7EC
:104610000101196AF2BE198EF29E020E0201876F25
:10462000000136EC06F019BEF28E1200DA5312E1E8
:10463000DD5310E155C2DAF056C2DDF0196AF2BE60
:10464000198EF29E010E0201876F000136EC06F012
:1046500019BEF28E1200645338E1B2518A5D0BE349
:1046600003E1B151895D07E3010E0201556F020EAE
:10467000566F0001DBDF8A51B25D12E303E1B151F5
:10468000895D0EE2B2518C5D0BE303E1B1518B5DAC
:1046900007E3010E0201556F050E566F0001C6DFDC
:1046A0008C51B25D12E303E1B1518B5D0EE2B25168
:1046B0008E5D0BE303E1B1518D5D07E3010E020155
:1046C000556F140E566F0001B1DFBBEF32F08693C9
:1046D000240E016EC250C30B0110C26E64EC1DF0BB
:1046E000C282C2B2FED7C4CF56F20201C3CF55F286
:1046F000000186B305D056C2FEF055C2FDF018D0B9
:104700008693240E016EC250C30B0110C26E64EC7E
:104710001DF0C282C2B2FED7C4CF56F20201C3CF8F
:1047200055F2000186B304D056C2FEF055C2FDF02A
:104730000201626B616BFEC060F2FDC05FF2666BEE
:10474000020E656F8B0E646F0B0E636F0001E0EC61
:1047500017F003C062F202C061F201C060F200C053
:104760005FF2D89203C066F202C065F201C064F243
:1047700000C063F202016A6B696B270E686F100E4E
:10478000676F000144EC17F003C05EF202C05DF2F7
:1047900001C05CF200C05BF20201626B616B0C0E47
:1047A000606F9A0E5F6F5EC266F25DC265F25CC2B8
:1047B00064F25BC263F20001E0EC17F003C062F246
:1047C00002C061F201C060F200C05FF2D89203C083
:1047D00066F202C065F201C064F200C063F2020139
:1047E0006A6B696B270E686F100E676F000144ECEF
:1047F00017F003C05AF202C059F201C058F200C0CB
:1048000057F258C260F257C25FF2A3EC1CF002C02C
:104810005AF001C059F0FAEF32F086932C0E016E77
:10482000C250C30B0110C26E64EC1DF0C282C2B252
:10483000FED7C4CF56F20201C3CF55F2000186B3B2
:1048400005D056C200F155C2FFF018D086932C0E49
:10485000016EC250C30B0110C26E64EC1DF0C28227
:10486000C2B2FED7C4CF56F20201C3CF55F2000147
:1048700086B304D056C200F155C2FFF00201626B4C
:10488000616B00C160F2FFC05FF2666B020E656F84
:104890008B0E646F0B0E636F0001E0EC17F003C02A
:1048A00062F202C061F201C060F200C05FF2D89211
:1048B00003C066F202C065F201C064F200C063F298
:1048C00002016A6B696B270E686F100E676F00013B
:1048D00044EC17F003C05EF202C05DF201C05CF26E
:1048E00000C05BF20201626B616B0C0E606F9A0E8E
:1048F0005F6F5EC266F25DC265F25CC264F25BC26B
:1049000063F20001E0EC17F003C062F202C061F252
:1049100001C060F200C05FF2D89203C066F202C02C
:1049200065F201C064F200C063F202016A6B696B58
:10493000270E686F100E676F000144EC17F003C07C
:104940005AF202C059F201C058F200C057F258C2E0
:1049500060F257C25FF2A3EC1CF002C05CF001C031
:104960005BF0FCEF32F00101D951D85D0FE102019B
:10497000562B56510A08D8B002D0010107D0020EBA
:104980005A6F00014CEC18F0EED70101036AD951BF
:10499000780FE96E010E0320EA6EEFCF55F2010E9B
:1049A000D9250201586F196AF2BE198EF29E8A6FDC
:1049B000600E8B6F0001F9EC04F019BEF28E00C09E
:1049C000D9F1020155C201F000013BEF36F00201BE
:1049D000556B55511F080AE3036A55512B0FE96EB9
:1049E000020E0320EA6EEF6A552BF3D700010EEF9B
:1049F00028F0020175517703F3CF01F0F4CF00F0F6
:104A00007803F350002676517703F3500020026EAE
:104A1000000182EF25F078C203F0020177C2E9FFBE
:104A200078C2EAFFEF5205E175C201F076C202F0EA
:104A30005DD076C203F075C2E9FF76C2EAFFEF529D
:104A400052E076C27AF275C279F278C27CF277C20D
:104A50007BF27CC203F07BC2E9FF7CC2EAFFEF522B
:104A600016E079C2E9FF7AC2EAFFEFCF7DF27CC29D
:104A700003F07BC2E9FF7CC2EAFFEF507D5D07E1F6
:104A8000792BD8B47A2B7B2BD8B47C2BE2D77CC281
:104A900003F07BC2E9FF03C0EAFFEF5205E175C2F4
:104AA00001F076C202F022D0752BD8B4762B76C2F4
:104AB00003F075C2E9FF76C2EAFFEF5213E075C258
:104AC000E9FF76C2EAFFEFCF7DF278C203F077C24A
:104AD000E9FF78C2EAFFEF507D5D04E0752BD8B4A2
:104AE000762BE5D7A6D7000E016E026E0001A2EF6D
:104AF00025F00201766B4BC275F2010E786F776B71
:104B0000000177D702C076F2020101C075F2020EF1
:104B1000EA6E550EE96E02C0F7FF0150000181EC0C
:104B200004F00A000900F550EE6E0009FBE1010EE9
:104B30000201766FDA0E756F020E786F550E776F81
:104B4000000169D702C076F201C075F20201755307
:104B500002E1765304E0010E016E03D002D0000E94
:104B6000016E00011200600EF66E170EF76E94ECE7
:104B700018F0ED51020A05E0010A0AE0020A0FE00E
:104B800015D0740EF66E170EF76E94EC18F014D064
:104B9000780EF66E170EF76E94EC18F00DD07C0EB2
:104BA000F66E170EF76E94EC18F006D0800EF66EC7
:104BB000170EF76E94EC18F007EC19F01200EACF1C
:104BC0005FF2E9CF5EF202015839F0095A6F5A27B5
:104BD000E20F5B6F320F5D6F58510F0B5B275B2746
:104BE0005D27E90F5C6F5C275C2757390F0B5C274B
:104BF0005D275C375D375D1F5D3757510F0B5D27B4
:104C00005A37070E596F0A0E5C075D27FDE35B07F5
:104C10005C27FDE35A075B27FDE359075A27FDE3AD
:104C2000020EEA6E590EE96E070E5E155E9DE926CC
:104C3000000EEA22E9505D0804E1EA50020801E1B1
:104C40005E8DEF50006E08E15EBD06D05EB916D0F5
:104C50005EB702D0200E03D05E875E99300E00262C
:104C6000EACF58F2E9CF57F200C060F2000161ECE0
:104C700018F058C2EAFF57C2E9FF0201EE505EADDC
:104C8000D9D700015CEF26F0D00E02011D25556F2B
:104C9000070E566FD8B0562B080EF66E170EF76E2D
:104CA000150E596F0001CAEC18F0090EE96E56C2D4
:104CB00058F255C257F283D73A0E0201606F0001D5
:104CC00061EC18F01CC258F2010E0201596F00018C
:104CD00062EC19F03A0E0201606F000161EC18F00D
:104CE0001BC258F2010E0201596F000162EC19F06B
:104CF0000A0E0201606F000161EC18F00D0E020156
:104D0000606F000161EC18F01200E20EF66E160EF4
:104D1000F76E140E0201596F0001CAEC18F019C2A7
:104D200058F2010E0201596F000162EC19F03A0EBF
:104D30000201606F000161EC18F018C258F2010E18
:104D40000201596F000162EC19F03A0E0201606F26
:104D5000000161EC18F017C258F2010E0201596F00
:104D6000000162EC19F00A0E0201606F000161ECB3
:104D700018F00D0E0201606F000161EC18F01200D6
:104D800058C056F257C055F2BC0EF66E170EF76EAD
:104D90000E0E0201596F0001CAEC18F056C259F20A
:104DA000570E02015A6F0001DEEC18F02E0E0201C0
:104DB000606F000161EC18F055C259F2570E020104
:104DC0005A6F0001DEEC18F0200E0201606F000146
:104DD00061EC18F0560E0201606F000161EC18F0F2
:104DE000120056C056F255C055F2D20EF66E170E8E
:104DF000F76E0E0E0201596F0001CAEC18F056C290
:104E000059F2570E02015A6F0001DEEC18F02E0E17
:104E10000201606F000161EC18F055C259F2570EA3
:104E200002015A6F0001DEEC18F0200E0201606FE3
:104E3000000161EC18F0560E0201606F000161EC98
:104E400018F01200880EF66E170EF76E100E0201A3
:104E5000596F0001CAEC18F05AC059F2370E02011E
:104E60005A6F0001DEEC18F059C059F2370E0201FA
:104E70005A6F0001DEEC18F09B0EF66E170EF76EFF
:104E8000050E0201596F0001CAEC18F01200A20EC3
:104E9000F66E170EF76E100E0201596F0001CAEC84
:104EA00018F05CC059F2370E02015A6F0001DEECB7
:104EB00018F05BC059F2370E02015A6F0001DEECA8
:104EC00018F0B50EF66E170EF76E050E0201596F4B
:104ED0000001CAEC18F01200300EF66E170EF76ED5
:104EE000220E0201596F0001CAEC18F02FC058F2CF
:104EF0001B0E0201596F000162EC19F0540EF66EA0
:104F0000170EF76E0A0E0201596F0001CAEC18F075
:104F1000AEEF27F0F3EF27F012EC19F0E80EF66E83
:104F2000170EF76E94EC18F01EDEAEDEEEDEFC0E11
:104F3000F66E170EF76E94EC18F022DF52DF01ECDC
:104F400019F0160EF66E180EF76E94EC18F07ADF64
:104F50009EDF01EC19F007EC19F0BED76C3D01D0D3
:104F60001DD0380EF66E180EF76E2E0E0201596F18
:104F70000001CAEC18F06CC058F21B0E0201596F08
:104F8000000162EC19F0680EF66E180EF76E080E4E
:104F90000201596F0001CAEC18F006D0720EF66ECD
:104FA000180EF76E94EC18F0D20EF66E180EF76E1F
:104FB000300E0201596F0001CAEC18F027C259F2F5
:104FC000570E02015A6F0001DEEC18F00A0E0201C2
:104FD000606F000161EC18F00D0E0201606F0001BE
:104FE00061EC18F097D707EC19F031EF28F0EF5289
:104FF00010E0EACF56F2E9CF55F2EFCF60F261EC64
:1050000018F056C2EAFF55C2E9FFE92AD8B4EA2AE5
:10501000EED718EF29F007EC19F0D9D402014B6B49
:10502000000167DD012C07D089EC1AF007EC19F0BC
:105030007FEC1CF00BD1010E02014B6F000159DD1A
:10504000012C07D012EC19F007EC19F07FEC1CF0E2
:10505000FDD0020E02014B6F00014BDD012C06D08A
:105060005BD707EC19F07FEC1CF0F0D0040E0201C6
:105070004B6F00013EDD012C06D075DD07EC19F009
:105080007FEC1CF0E3D00D0E02014B6F000131DD0F
:10509000012C06D0D7DE07EC19F07FEC1CF0D6D03F
:1050A0000E0E02014B6F000124DD012C06D0EFDE55
:1050B00007EC19F07FEC1CF0C9D0060E02014B6F13
:1050C000000117DD012C06D08CDE07EC19F07FEC17
:1050D0001CF0BCD0050E02014B6F00010ADD012C53
:1050E00006D04EDE07EC19F07FEC1CF0AFD00A0EB4
:1050F00002014B6F0001FDDC012C06D006DE07EC3F
:1051000019F07FEC1CF0A2D00B0E02014B6F0001D6
:10511000F0DC012C06D0B8DD07EC19F07FEC1CF0B8
:1051200095D00F0E02014B6F0001E3DC012C11D072
:1051300095EC1CF0640E02015A6F00014CEC18F063
:105140006C0EF66E1B0EF76E94EC18F07FEC1CF0F4
:105150007DD0100E02014B6F0001CBDC012C11D071
:10516000010E706F196AF2BE198EF29E060E0201D0
:10517000876F000136EC06F019BEF28E7FEC1CF052
:1051800065D0110E02014B6F0001B3DC012C10D071
:10519000706B196AF2BE198EF29E060E0201876FBD
:1051A000000112EC06F019BEF28E7FEC1CF04ED01E
:1051B000120E02014B6F00019CDC012C12D0010E7B
:1051C0006F6F196AF2BE198EF29E050E0201876F8B
:1051D000000136EC06F019BEF28E7FEC1CF036D0E2
:1051E00035D0130E02014B6F000183DC012C11D06E
:1051F0006F6B196AF2BE198EF29E050E0201876F5F
:10520000000112EC06F019BEF28E7FEC1CF01ED0ED
:105210001DD0760EF66E1B0EF76E0E0E0201596F44
:105220000001CAEC18F0010EEA6EDA0EE96EDFD664
:10523000860EF66E1B0EF76E030E0201596F00010B
:10524000CAEC18F007EC19F07FEC1CF06BEF36F0AD
:10525000F86AD09E078EFE0E006E060E016E020EDC
:10526000E96E000EEA6EEE6A002EFDD7012EFBD726
:10527000700ED36E9B8C9B9E1A6AB886A00EAF6E82
:10528000010EB06EA60EAC6E900EAB6E9486948836
:10529000D20EC86E360EC66EC580CB68060ECA6EBC
:1052A0009494B76AB66A010EB96E800EBE6E0C0E8B
:1052B000BD6E02010C6B0B6B030E2A6F000E7E6E2F
:1052C000C198C19A7F50E00B7F6E799A79987A6A7B
:1052D0007B6A020E236E8D0E226E030E8E6F6F0E92
:1052E0008D6F906B8F6B00011C6A1D6AC00E7C6E07
:1052F000F19E850E006E002EFED70400196AF2BEE4
:10530000198EF29E040E0201876F000136EC06F042
:1053100019BEF28E196AF2BE198EF29E020E0201B9
:10532000876F000136EC06F019BEF28E196AF2BEE4
:10533000198EF29E030E0201876F000112EC06F037
:1053400019BEF28E929A899A949A8B9A929E899E0D
:10535000929C899C01010C9900018685D0500F0B0D
:10536000D0A8000ED080D082D088D886D8880101FD
:105370000F6F0001AAEC11F0D3EC11F00400850EC0
:10538000D56E8F0ECD6E000E0609CA6E640ECB6E02
:10539000B50EB16E0B0E7E6EC198C19A7F50E00BB8
:1053A0000A097F6EC050C00B3409C06EC08EC28027
:1053B000799A7998040E7A6E7B6EB56AB46A330E68
:1053C0000201586F576F530E566F800E556F0001D4
:1053D00067EC16F002C088F001C087F09A0E020157
:1053E000586F990E576F590E566F800E556F00010A
:1053F00067EC16F002C08AF001C089F0CD0E020100
:10540000586FCC0E576F5C0E566F800E556F0001B3
:1054100067EC16F002C08CF001C08BF0CD0E0201DB
:10542000586FCC0E576F6C0E566F800E556F000183
:1054300067EC16F002C08EF001C08DF00201586BCF
:10544000576B566B810E556F000167EC16F002C06A
:1054500090F001C08FF0330E0201586F576F030EAA
:10546000566F810E556F000167EC16F002C092F086
:1054700001C091F00201586B576B180E566F810EE8
:10548000556F0001D6EC16F002C094F001C093F005
:10549000660E0201586F576F160E566F810E556FCC
:1054A0000001D6EC16F002C096F001C095F0330E64
:1054B0000201586F576F130E566F810E556F000122
:1054C000D6EC16F002C098F001C097F09A0E0201D7
:1054D000586F990E576F110E566F810E556F000160
:1054E000D6EC16F002C09AF001C099F00201586B98
:1054F000576B600E566F800E556F0001D6EC16F09C
:1055000002C09CF001C09BF0010E0201626F616B52
:10551000780E606F850E5F6F00015AEC16F003C0C5
:1055200076F202C075F201C074F200C073F23FEC73
:1055300013F002C0A0F001C09FF0850E0201626F5F
:105540000B0E616F020E606F860E5F6F00015AECEA
:1055500016F003C076F202C075F201C074F200C00A
:1055600073F23FEC13F002C0A2F001C0A1F0CD0E27
:105570000201626FAC0E616F180E606F870E5F6F75
:1055800000015AEC16F003C076F202C075F201C0B9
:1055900074F200C073F23FEC13F002C0A4F001C03B
:1055A000A3F0670E0201626FE60E616F360E606F48
:1055B000870E5F6F00015AEC16F003C076F202C04E
:1055C00075F201C074F200C073F23FEC13F002C038
:1055D000A6F001C0A5F00201626B200E616F550EAE
:1055E000606F870E5F6F00015AEC16F003C076F211
:1055F00002C075F201C074F200C073F23FEC13F008
:1056000002C0A8F001C0A7F0CC0E0201626F3C0EF0
:10561000616F640E606F870E5F6F00015AEC16F0C9
:1056200003C076F202C075F201C074F200C073F2DA
:105630003FEC13F002C0AAF001C0A9F0340E020141
:10564000626F3B0E616F010E606F880E5F6F00012D
:105650005AEC16F003C076F202C075F201C074F283
:1056600000C073F23FEC13F002C0ACF001C0ABF02D
:10567000690E816FA20E806F090E7F6F7E0E7E6FA6
:10568000690E856FA20E846F090E836F7E0E826F86
:10569000050E0101076F056B0001869F6C69010112
:1056A0000C950A0E0001FC6F010EED6FEDC054F079
:1056B000FB0ED76E1D0ED66EF28A9D809D82FE0E69
:1056C000B36ED30EB26EA0829D889D8A9D86F286AF
:1056D0007D8AC00EF2120201586B576B090E566F8D
:1056E000600E556F5C6BF40E5B6F240E5A6F596B36
:1056F00000018EEF17F0010E0201566FF40E556F88
:1057000000010EEF18F08691949A8B8A190E02010F
:105710005A6F00014CEC18F0929E898E190E02010E
:105720005A6F00014CEC18F0929C898C01010C8995
:10573000190E02015A6F00014CEC18F0196AF2BE02
:10574000198EF29E070E0201876F000112EC06F01F
:1057500019BEF28E190E02015A6F00014CEC18F0BE
:10576000938C81BC1AD0196AF2BE198EF29E070E74
:105770000201876F000136EC06F019BEF28EBDEC17
:105780001BF0196AF2BE198EF29E070E0201876F96
:10579000000112EC06F019BEF28E320E02015A6FB1
:1057A00000014CEC18F004000FC155F22BEF1CF077
:1057B00012EC19F07FEC1CF0190E02015A6F000177
:1057C0004CEC18F001010F51070806E00F5304E0FC
:1057D00000012DEF20F00101196AF2BE198EF29E30
:1057E000030E0201876F000112EC06F019BEF28E63
:1057F000B2EF20F0BFEC20F08691CCEF20F0010159
:105800000F51070808E00F5306E030C027F20001EF
:10581000AEEC19F001012FC06DF02DC06EF02CC060
:105820006CF032C073F031C072F033C07AF02BC02C
:105830007BF000016B69EDC0EEF0EDC054F0020E9C
:10584000716F600E0101016F00017D6BBC0EF66E81
:105850001B0EF76E94EC18F05CEC1AF0050E0101CB
:105860000E6F0A0E02015A6F00014CEC18F0929470
:10587000898468EF21F0040073EC1FF071EF21F0D0
:10588000BFEC20F0A6C052F2A5C051F2050EA55DF6
:105890000201536F000E0001A6590201546F00016E
:1058A00080EC21F07A53D8A4CFEF31F086A508D050
:1058B000010E0201566F020E576F000178EC1FF0C7
:1058C00086A909D086A507D08695D80EF66E1B0E40
:1058D000F76E94EC18F086B940D186B53ED1120E21
:1058E000F66E1C0EF76E94EC18F09BEC21F0320E65
:1058F000F66E1C0EF76E94EC18F0640E02015A6FEF
:1059000000014CEC18F001010C81929C898C0C89EF
:10591000120E00017B2501010A6F0A5317E00001F6
:105920009BEC21F00400190E02015A6F00014CECAF
:1059300018F0010E0201566F020E576F000178EC4D
:105940001FF0869F0101036B026BE7D7196AF2BE55
:10595000198EF29E020E0201876F000136EC06F0EE
:1059600019BEF28E86A90AD0010106510308D8A0FB
:1059700002D0000103D00001F3EC21F001010C91F1
:10598000320E02015A6F00014CEC18F0929E899E73
:10599000929C899C01010C990400620EF66E1C0E0B
:1059A000F76E000194EC18F0ED51020807E0F1ECFD
:1059B00020F080EC21F001010C8300010400920E24
:1059C000F66E1C0EF76E94EC18F09BEC21F0929E94
:1059D000899E929C899C01010C990C85000181ECA7
:1059E0001BF0960E02015A6F00014CEC18F0D56ABC
:1059F000CC6AB36AB26AF29A9D92A0929D989D9ADF
:105A00009D9601010C85196AF2BE198EF29E020163
:105A1000876B000112EC06F019BEF28E929E899EF1
:105A2000929C899C01010C9904006DC00DF100014C
:105A30005AEC22F0640E02015A6F00014CEC18F08F
:105A4000869905C104F1640E02015A6F00014CEC05
:105A500018F00101066B0D53D8B47BD0929E899E3D
:105A6000929C899C0C99D3CF00F0D39E030000C078
:105A7000D3FF0400000172EC22F0196AF2BE198E05
:105A8000F29E0BEC07F019BEF28E9851C05D2EE32A
:105A900003E1BF51975D2AE201010CA302D000018E
:105AA00025D000018685929E898E0A0E02015A6FCA
:105AB00000014CEC18F0929C898C01010C890001CA
:105AC000A3EC22F09D820A0E02015A6F00014CECF9
:105AD00018F0DAEC22F0320E02015A6F00014CECA1
:105AE00018F00400E0EC22F0F3EC21F086A90AD0D3
:105AF000010106510108D8A002D0000103D0000125
:105B0000F3EC21F0928880B822D08685949A8B8A13
:105B1000929E898E929C898C01010C89000125EC52
:105B200007F0A3EC22F09D820A0E02015A6F0001D9
:105B30004CEC18F0DAEC22F0640E02015A6F00010E
:105B40004CEC18F00400E0EC22F0F3EC21F0010141
:105B500082D7000163D7F3EC21F06B536DE10101B3
:105B60000C81929C898C0C89000125EC07F0190EA0
:105B700002015A6F00014CEC18F004006B69B60E7C
:105B8000F66E1C0EF76E94EC18F0196AF2BE198EC0
:105B9000F29E020E0201876F000136EC06F019BE7C
:105BA000F28E196AF2BE198EF29E020E0201876F02
:105BB000000112EC06F019BEF28EE6EC22F0196A32
:105BC000F2BE198EF29E020E0201876F000136ECC2
:105BD00006F019BEF28E0400F80EF66E1C0EF76E7B
:105BE00094EC18F001010A6B036B026B929C899C88
:105BF0000C990001A3EC22F0929C898C01010C8984
:105C0000320E02015A6F00014CEC18F02E0EF66EA7
:105C10001D0EF76E94EC18F0E06BDF6BE26BE16B3E
:105C2000E46BE36BC06BBF6B01010C91320E0201A0
:105C30005A6F00014CEC18F0928880B835D186A9D3
:105C400033D101010E53D8B402D000012DD104008C
:105C5000190E02015A6F00014CEC18F0928880B8BE
:105C600002D086B913D0460EF66E1D0EF76E94EC78
:105C700018F00201566B250E556F56C258F2576F39
:105C8000010E596F0001D2EC21F014D0928880B837
:105C900011D086A90FD09BEC21F0010E5F6EDAECDB
:105CA00022F00400640E02015A6F00014CEC18F05F
:105CB000E0EC22F09BEC21F0700EF66E1D0EF76EFC
:105CC00094EC18F0640E02015A6F00014CEC18F0CD
:105CD00001010C81929C898C0C890001E6EC22F078
:105CE00001010C91320E02015A6F00014CEC18F0C8
:105CF000929E899E929C899C01010C990400A80E99
:105D0000F66E1D0EF76E000194EC18F0ED510208CE
:105D100007E0F1EC20F080EC21F001010C830001A0
:105D20000400E00EF66E1D0EF76E94EC18F09BEC7E
:105D300021F0929E899E929C899C01010C990C8570
:105D4000000181EC1BF0960E02015A6F00014CEC31
:105D500018F0D56ACC6AB36AB26AF29A9D92A092A0
:105D60009D989D9A9D9601010C85196AF2BE198E27
:105D7000F29E0201876B000112EC06F019BEF28E52
:105D8000929E899E929C899C01010C9904006DC091
:105D90000DF100015AEC22F0640E02015A6F00016D
:105DA0004CEC18F0869905C104F1640E02015A6F9B
:105DB00000014CEC18F001010D5372E0929E899E97
:105DC000929C899C0C99D3CF00F0D39E030000C015
:105DD000D3FF0400000172EC22F0196AF2BE198EA2
:105DE000F29E0BEC07F019BEF28E9851C05D2EE3C7
:105DF00003E1BF51975D2AE201010CA302D000012B
:105E000025D000018685929E898E0A0E02015A6F66
:105E100000014CEC18F0929C898C01010C89000166
:105E2000A3EC22F09D820A0E02015A6F00014CEC95
:105E300018F0DAEC22F0320E02015A6F00014CEC3D
:105E400018F00400E0EC22F0F3EC21F086A902D077
:105E5000F3EC21F0928880B822D08685949A8B8AC0
:105E6000929E898E929C898C01010C89000125ECFF
:105E700007F0A3EC22F09D820A0E02015A6F000186
:105E80004CEC18F0DAEC22F0640E02015A6F0001BB
:105E90004CEC18F00400E0EC22F0F3EC21F08BD78E
:105EA00000016ED7F3EC21F0B2518C5DD8A02BD15C
:105EB00004E18B51B15DD8B026D1ED510208D8A4D0
:105EC00022D186A920D10101035306E102510E0817
:105ED000D8A002D0000117D10E53D8B402D00001CF
:105EE00012D1040EF66E1E0EF76E000194EC18F03F
:105EF00001010C81929C898C0C890001E6EC22F056
:105F000001010C91320E02015A6F00014CEC18F0A5
:105F10000400340EF66E1E0EF76E94EC18F00400BA
:105F2000640EF66E1E0EF76E94EC18F09BEC21F0EA
:105F3000929E899E929C899C01010C99640E02019B
:105F40005A6F00014CEC18F0196AF2BE198EF29EDD
:105F50000BEC07F019BEF28E9851C05D24E303E10B
:105F6000BF51975D20E28685949A8B8A929E898E96
:105F7000929C898C01010C890001A3EC22F09D8286
:105F80000A0E02015A6F00014CEC18F0DAEC22F014
:105F9000320E02015A6F00014CEC18F00400E0ECE4
:105FA00022F0F3EC21F001010C85000181EC1BF0E3
:105FB000960E02015A6F00014CEC18F0D56ACC6ABB
:105FC000B36AB26AF29A9D92A0929D989D9A9D960C
:105FD00001010C85196AF2BE198EF29E0201876BCF
:105FE000000112EC06F019BEF28E929E899E929CE0
:105FF000899C01010C9904006DC00DF100015AEC5F
:1060000022F0640E02015A6F00014CEC18F08699E0
:1060100005C104F1640E02015A6F00014CEC18F046
:1060200001010D536EE0929E899E929C899C0C9971
:10603000D3CF00F0D39E030000C0D3FF04000001C3
:1060400072EC22F0196AF2BE198EF29E0BEC07F088
:1060500019BEF28E9851C05D2AE303E1BF51975DEE
:1060600026E201010CA302D0000121D000018685A7
:10607000949A8B8A929E898E929C898C01010C89BC
:106080000001A3EC22F09D820A0E02015A6F00016A
:106090004CEC18F0DAEC22F0320E02015A6F0001DB
:1060A0004CEC18F00400E0EC22F0F3EC21F086A9AF
:1060B00002D0F3EC21F0928880B822D08685949AA1
:1060C0008B8A929E898E929C898C01010C89000199
:1060D00025EC07F0A3EC22F09D820A0E02015A6F14
:1060E00000014CEC18F0DAEC22F0640E02015A6F59
:1060F00000014CEC18F00400E0EC22F0F3EC21F08D
:106100008FD7000172D7ED51020821E186A91FD077
:106110000101035306E102510F08D8A002D000018B
:1061200016D000016C3D01D012D086BF10D0010105
:106130000E53D8B402D000010AD00F0E00016C5DDE
:1061400001010B6F0001868F9BEC21F00BD0ED2D30
:1061500009D086A907D0869F0101036B026B00015D
:106160009BEC21F001010B53D8A41AD1000186BF8A
:1061700002D0010115D10101035304E102510F08BE
:10618000D8B00ED1880EF66E1E0EF76E000194EC9C
:1061900018F001010C81929C898C0C890001E6ECBD
:1061A00022F001010C91320E02015A6F00014CECF9
:1061B00018F00400B20EF66E1E0EF76E94EC18F096
:1061C00001010A6B0400E00EF66E1E0EF76E000170
:1061D00094EC18F09BEC21F0929E899E929C899CF5
:1061E00001010C99640E02015A6F00014CEC18F089
:1061F000196AF2BE198EF29E0BEC07F019BEF28EF0
:106200009851C05D24E303E1BF51975D20E286858C
:10621000949A8B8A929E898E929C898C01010C891A
:106220000001A3EC22F09D820A0E02015A6F0001C8
:106230004CEC18F0DAEC22F0320E02015A6F000139
:106240004CEC18F00400E0EC22F0F3EC21F001013A
:106250000C85000181EC1BF0960E02015A6F0001C3
:106260004CEC18F0D56ACC6AB36AB26AF29A9D9285
:10627000A0929D989D9A9D9601010C85000181EC4C
:106280001BF0929E899E929C899C01010C990400AE
:106290006DC00DF100015AEC22F0640E02015A6F3C
:1062A00000014CEC18F0869905C104F1640E02015E
:1062B0005A6F00014CEC18F001010D536EE0929EF4
:1062C000899E929C899C0C99D3CF00F0D39E0300A9
:1062D00000C0D3FF0400000172EC22F0196AF2BE84
