:04080000FFEF29F0ED
:08080800046ED8CF05F0E0CF2B
:1008100006F00001E9CF0CF0EACF07F0E1CF08F0D5
:10082000E2CF09F0D9CF0AF0DACF0BF0F3CF12F014
:10083000F4CF13F0FACF14F0F5CF15F0F6CF16F091
:10084000F7CF17F000C00EF001C00FF002C010F09B
:1008500003C011F09DA630EF04F09EB601EF0AF040
:10086000A0A236EF04F0A1B235EF07F09DA03CEF57
:1008700004F09EB07CEF08F09DAA42EF04F09EBA0F
:100880003DEF05F09DA848EF04F09EB80FEF05F08E
:10089000F2AA4EEF04F0F2B4E3EF06F09DA254EF9B
:1008A00004F09EB2FBEF06F0F2A65AEF04F0F2B0AD
:1008B000FFEF06F00EC000F00FC001F010C002F014
:1008C00011C003F00CC0E9FF07C0EAFF078E08C0A3
:1008D000E1FF09C0E2FF0AC0D9FF0BC0DAFF12C076
:1008E000F3FF13C0F4FF14C0FAFF15C0F5FF16C0E4
:1008F000F6FF17C0F7FF045006C0E0FF05C0D8FFA1
:100900001000F36ED890F734F66EF746010EF71626
:10091000320EF626090EF7220900F5500900F626D8
:10092000F550F722F350F626000EF7220900F55095
:10093000120026002D0034003A003F004100440020
:10094000470051005C00620066006A006F007200A0
:10095000750079007F0086008D0040464143544F6A
:100960005259004056455253494F4E00405354414E
:100970005455530040414E544D500040504D00409E
:1009800052504900404241540040505752494E464F
:100990004F204F4E0040505752494E464F204F4631
:1009A0004600404C5052535441004054494D45007C
:1009B0004044415445004052544343460040414462
:1009C00031004041443200404245455000405245CC
:1009D00044204F4E0040524544204F46460040427E
:1009E0004C5545204F4E0040424C5545204F464601
:1009F000000003012151016A205D03E220C300F0E1
:100A00000CD0006A080E226F203700362151005C9E
:100A1000D8B0006E0136222FF7D700011200010175
:100A2000BE51BD5D18E0036ABE511D0FE96E010E97
:100A30000320EA6EEFCF1DF31DC3ADFF010EBE25EF
:100A400003011F6F206FA00E216F0001D2DF00C0D5
:100A5000BEF103D001019D9800019E985AEF04F069
:100A600004009EAAFDD7ABCF1AF0AECF01F01AA2B8
:100A700002D0AB98AB884BEF05F0036A02015F51DF
:100A8000BF0FE96E010E0320EA6EEACF21F3E9CF32
:100A900020F30001E5D721C3EAFF20C3E9FF01C02D
:100AA000EFFF5FC21DF3010E02015F2503011F6FFF
:100AB000206FA00E216F00019CDF00C05FF20201D9
:100AC00060515F5D02E11DC35FF29E9A00015AEF23
:100AD00004F00A0D49324320616464726573732027
:100AE00053656C65637465643A004932435F4E4FE9
:100AF000524D414C0A0D00004932435F4D494E4969
:100B00004D414C0A0D004932435F4E4F5254430A47
:100B10000D004932435F4D494E494D414C0A0D008D
:100B20000A0D555053205049636F2052455354418C
:100B300052542043415553453A20000052455345F5
:100B4000545F494E535452554354494F4E005744F5
:100B5000545F46524F4D5F534C454550000057443B
:100B6000545F54494D454F5554004D434C525F46D8
:100B7000524F4D5F534C454550004E4F524D414CE6
:100B80005F504F5745525F55500042524F574E4F9E
:100B900055545F5245535441525400004D434C52FA
:100BA0005F46524F4D5F52554E00554E4B4E4F577C
:100BB0004E20524541534F4E0000020E03011D5F6F
:100BC0000CE3030EEA6E1D0EE96EEF5006E003D053
:100BD00000D000D00400EF2EFBD700011200939448
:100BE0008A9493928A92010E0301216F2151080881
:100BF0001AE320C303F01FC3E9FF20C3EAFFEF504D
:100C0000800B03E193908A9002D093908A8020C356
:100C1000EAFF1FC3E9FFD890EF3693948A84939438
:100C20008A94212BE3D793928A8293928A9200012D
:100C30001200010E006E03011D51016E04E0D890F8
:100C40000036012EFCD70050FF0A1B161BC01EF3F6
:100C5000030E206F1E0E1F6F0001C1DF12000B0E6E
:100C60000101116F0400C70E03011D6F0001A5DF14
:100C7000030E03011D6F0001DCDF1200010E006E88
:100C800003011D51016E04E0D8900036012EFCD7FF
:100C900000501B121BC01EF3030E206F1E0E1F6F91
:100CA00000019DDF12000B0E0101116F0400C70E41
:100CB00003011D6F000181DFC7519B5D09E303E163
:100CC0009A51C65D05E2030E03011D6F0001B1DFFD
:100CD0009951C75D09E303E1C651985D05E2030E32
:100CE00003011D6F0001CADF120001011CA506D01F
:100CF0000001D9DF01011C9505D004D00001AFDF50
:100D000001011C850001C2EF06F0010114A504D009
:100D10000001A5DF3BD001010001752D01D003D0FA
:100D20007551100830E1765109E0010A09E0030A23
:100D300009E0010A16E0070A16E024D090DF22D06D
:100D4000B2DF20D00201A851030805E20001ABDFA9
:100D50000201A86B03D0000182DF0201A82B000171
:100D600011D0C3D70FD00201A851030805E200013A
:100D700076DF0201A86B03D0000195DF0201A82BEA
:100D8000000100D003D0755301E169DFEDEF06F0FB
:100D9000E05302E0E00707D003011D6B000149DFCB
:100DA000E35301E0E30767530CE1E15302E0E1079D
:100DB00008D0010E03011D6F00013BDFE45301E089
:100DC000E407F4EF06F0F60ED76E3B0ED66E010187
:100DD000045301E00407000198D70201A95302E07F
:100DE000A90705D00001D4D70A0E0201A96FF29419
:100DF00000015AEF04F000009E925AEF04F093684D
:100E000081CF1DF3000E0201AABB010E03011E6F6C
:100E1000000E1DBB010E1E5D05E001010D2B1DC363
:100E2000AAF203010000F29000015AEF04F0000E54
:100E3000016EC250C30B0110C26EC28203011E912B
:100E4000C2A21E811EB105D01E91C2A21E81040045
:100E5000F9D7C2B2FED7C4CFC7F00001C3CFC6F0E6
:100E60001200899D929A899A1200FE0EB36ED30EDB
:100E7000B26E01011A2BD8B41B2B1CA101D0C1D01A
:100E800000017D2D01D08989010114A101D0B9D0C3
:100E900000018983CCDF89A509D0949A8B8A929E20
:100EA000898E929C898C0101ACD00001FA5302E139
:100EB000FB5304E0FA51D8B4FB07FA0701011053C1
:100EC00022E010070001C7519D5D1EE303E1C651FA
:100ED0009C5D1AE3F42D18D089A916D0949A8B8AB8
:100EE000929E898E929C898CBCDF020EF46FF4C0B6
:100EF00057F071C0F6F0030EFB6FE80EFA6F3C0E70
:100F00000101196F7ED000010101115322E0110788
:100F10000001C7519D5D1EE303E1C6519C5D1AE3CC
:100F2000F42D18D089A916D0949A8B8A929E898E16
:100F3000929C898C96DF020EF46FF4C057F071C05A
:100F4000F6F0030EFB6FE80EFA6F3C0E0101196F0D
:100F500058D00001F42D56D089A954D0FA5352E14B
:100F6000FB5350E101011053D8B402D000014AD024
:100F70001153D8B402D0000145D0E9C0E7F0E8C071
:100F8000E6F0EBC0E9F0EAC0E8F0C7C0EBF0C6C09D
:100F9000EAF00F0E0001E825016E000EE921036E54
:100FA0000350E75D11E303E1E651015C0DE20F0E32
:100FB000EA25016E000EEB21036E0350E95D04E3A8
:100FC0000AE1E851015C07E3C7519D5D1BE303E1C2
:100FD000C6519C5D17E3949A8B8A929E898E929C4F
:100FE000898C3FDF020EF46FF4C057F071C0F6F049
:100FF000050EF76F030EFB6FE80EFA6F3C0E010152
:10100000196F00010101045339E10001F42D01D0F1
:1010100002D0010133D00C0E016EC250C30B01107F
:10102000C26EC28203011D91C2A21D811DB104D0F6
:101030001D91C2A21D81FAD7C2B2FED7C4CFFDF066
:101040000001C3CFFCF0080E016EC250C30B0110AB
:10105000C26EC28203011D91C2A21D811DB104D0C6
:101060001D91C2A21D81FAD7C2B2FED7C4CFFFF034
:101070000001C3CFFEF0800E0101046F0000A192B9
:1010800000015AEF04F003011E39006E0F0E001626
:1010900000500A0DF3CF1FF31E510F0B1F25016ED9
:1010A0000001120003011D51060804E31D2B1DC39E
:1010B00001F007D01D51070804E1010E1D6F1DC38B
:1010C00001F00001A0EF09F01DC320F30A0E030197
:1010D000216F00018EDC013803011E6FF00E1E1718
:1010E0001DC320F30A0E216F000183DC00500301B1
:1010F0001E25016E00011200CEA0FED7CE500201C7
:10110000AB6FCFCFACF2BD5311E1ABC21DF3800E7C
:101110000201AC2503011E6F020E1D5F000E1E5B57
:101120001EC3CFFF1DC3CEFF37D00201BD51000843
:101130001AE2BD51800817E3ABC21DF3800E020115
:10114000AC2503011E6F0201BD5103011D27000ED6
:101150001E23020E1D5F000E1E5B1EC3CFFF1DC3AC
:10116000CEFF1AD00201BD51800817E2ABC21DF3B9
:10117000800E0201AC2503011E6F800E0201BD5DD1
:1011800003011D5F000E1E5B020E1D5F000E1E5B45
:101190001EC3CFFF1DC3CEFF020101011CA749D012
:1011A0000201B6517F0B03011D6F1E6F00016BDF43
:1011B00001C0ADF20201B7517F0B03011D6F1E6F1D
:1011C000000161DF01C0AEF20201B8513F0B030123
:1011D0001D6F1E6F000157DF01C0AFF20201B95150
:1011E000070B03011D6F1E6F00014DDF01C0B0F240
:1011F0000201BA513F0B03011D6F1E6F000143DF57
:1012000001C0B1F20201BB511F0B03011D6F1E6F24
:10121000000139DF01C0B2F20201BC517F0B0301B2
:101220001D6F1E6F00012FDF01C0B3F201011C977B
:10123000D9D01CB703D00201AD2B01010C510D5DBB
:1012400004E1000189990AD001010C510D5D05E00E
:101250000001898901010D6B0E2B00010DC10CF1FC
:10126000010114A501D04DD000017D2D0BD0F4510A
:10127000020808E101011953D8A402D0000102D0EC
:1012800019070001F65302E0F60705D0F65303E113
:101290000101148B00016E3D01D003D06E5301E0BB
:1012A0006E0701010F5307E0000189BB02D0010165
:1012B00002D001010F070001F451020808E189A9D9
:1012C00006D001010A2BD8B40B2B09D00001F45130
:1012D000020806E089A904D001010B6B0A6B00012A
:1012E0000101185301E0180714B701D01487000159
:1012F00089AF08D001011353D8A402D0000102D055
:10130000130700010101155301E01507165301E011
:101310001607125301E012070201AD513C083DE1EE
:10132000AE2BAD6BAE513C0838E1AF2BAE6BAF517D
:10133000180833E1B12BAF6BB0C21DF30001B2D678
:1013400001C0B0F20201B1511D0806E1B25102081C
:1013500003E1B351030B18E1B1511E0803E1B2518F
:10136000020812E0B1511F080CE1B25104080CE070
:10137000B251060809E0B251090806E0B2510B0863
:1013800003E0B151200803E1B22B010EB16FB2515D
:101390000D0803E1B32B010EB26FADC21DF30001C6
:1013A00093DE01C0B6F2AEC21DF38EDE01C0B7F20D
:1013B000AFC21DF389DE01C0B8F2B0C21DF384DEF6
:1013C00001C0B9F2B1C21DF37FDE01C0BAF2B2C2F0
:1013D0001DF37ADE01C0BBF2B3C21DF375DE01C09E
:1013E000BCF201019E9000015AEF04F0C95020C3E5
:1013F000C9FFC6889E96C7B0FED7016AC6B8012A43
:101400001200C7BA04D00201C06BC7B4C08F02017A
:10141000C051C02B03011E6F04002A0E006E002E67
:10142000FED71E518008D8A070D01E51800803E15D
:10143000C9CF1DF306D0C69C9EA6FED7C950C6884C
:101440001D6F1E5303E01E51800803E11DC3BFF250
:101450005CD01E2D03D01DC3B4F257D01E5101081D
:1014600054E21E51800851E00201BF51D00818E13A
:10147000B45107080AE3B451B42B036AB60FE96EFE
:10148000020E0320EA6E1DC3EFFFB451070808E106
:10149000800ECF6ECE6A01011C87020E0201B56F6D
:1014A000BF51D2080EE1B4510E080AE3B451B42B77
:1014B000036A570FE96E000E0320EA6E1DC3EFFFAB
:1014C00023D0BF51D4080EE1B45108080AE3B45147
:1014D000B42B036AB60FE96E020E0320EA6E1DC339
:1014E000EFFF12D0BF51D6080EE1B45119080AE33C
:1014F000B451B42B036A660FE96E000E0320EA6E46
:101500001DC3EFFF01D0000003011E517F08D8B0BA
:10151000A5D01E51800802E1C9CF1DF30201BF51C1
:10152000D1081AE1B45108080EE3B451B42B036A90
:10153000B60FE96E020E0320EA6EEFCF20F3000132
:1015400055DF09D00201B451080806E20301206901
:1015500000014CDF00000201BF51D3081BE1B45170
:101560000E080EE3B451B42B036A570FE96E000E58
:101570000320EA6EEFCF20F3000138DF09D002012B
:10158000B4510E0806E20301206900012FDF0000BC
:10159000020163D0BF51D5081BE1B45108080EE326
:1015A000B451B42B036AB60FE96E020E0320EA6E43
:1015B000EFCF20F300011ADF09D00201B45108086F
:1015C00006E203012069000111DF0000020145D09D
:1015D000BF51D7081BE1B45119080EE3B451B42B25
:1015E000036A660FE96E000E0320EA6EEFCF20F368
:1015F0000001FCDE09D00201B451190806E2030122
:1016000020690001F3DE0000020127D0BF51D90894
:1016100007E1030120690001E9DE00001DD002019D
:10162000BF51DB0807E1030120690001DFDE000094
:1016300013D00201BF51DD0807E103012069000159
:10164000D5DE000009D00201BF51DF0806E1030129
:1016500020690001CBDE0000020103019E9600011B
:101660005AEF04F00A0D2D2D2D2D2D2D2D2D2D2D64
:101670002D2D2D2D2D2D2D2D2D2D2D2D0A0D000037
:101680000A0D0A0D2D2D2D2D2D2D2D2D2D2D2D2D10
:101690002D2D2D2D2D2D2D2D2D2D0A0D7777772EDE
:1016A00070696D6F64756C65732E636F6D000A0DE4
:1016B000555053205049636F2048617264776172BE
:1016C000652052656C656173653A2056312E303065
:1016D000202563000A0D555053205049636F204860
:1016E000617264776172652052656C656173653AF9
:1016F0002056312E3130202563000A0D55505320DD
:101700005049636F20486172647761726520526549
:101710006C656173653A2056312E313120256300A6
:101720000A0D555053205049636F20486172647709
:101730006172652052656C656173653A2056312E81
:101740003220256300000A0D556E6B6E6F776E2098
:10175000547970653A25630A0D000A0D4669726D69
:10176000776172652052656C656173653A20562514
:101770007300312E302058424D432031312E31310B
:101780002E32303135203078353400000A0D555076
:1017900053205049636F205254432054696D653A79
:1017A000253032753A253032753A253032750A0DBA
:1017B00000000A0D55555053205049636F20525474
:1017C0004320446174653A2530344C753A253032F3
:1017D000753A253032750A0D00004C6F7720506F36
:1017E00077657220526573746172742054696D65F7
:1017F00028204C5052535441202969732575207379
:1018000065636F6E64730A0D00000A0D506F776593
:1018100072696E6720536F757263653A00004241CA
:1018200054004C50520052504900554E4B4E4F57A9
:1018300000000A0D412F44312056616C7565206906
:10184000733A254C58205B6D565D00000A0D412F00
:1018500044322056616C75652069733A254C5820D6
:101860005B6D565D00000A0D52506920566F6C7416
:101870006167653A25782E25782056000A0D424189
:101880005420566F6C746167653A25782E25782050
:1018900056000A0D5772697474696E672053657437
:1018A000757020746F20555053205049636F204548
:1018B0004550524F4D0A0D000A0D555053205049C6
:1018C000636F205374617475730A0D000A0D4176BD
:1018D000657261676520506F776572696E67205623
:1018E000616C756573000A0D416E616C6F672F4402
:1018F00069676974616C20436F6E76657274657296
:101900002056616C756573000A0D46696C6520533D
:101910006166652053687574646F776E20776865BB
:101920006E20506F776572206C6F6F7365205469FD
:101930006D652069733A2575205365636F6E647316
:1019400000000A0D46696C65205361666520536886
:101950007574646F776E207768656E20506F776559
:1019600072206C6F6F73652054696D6572206973A6
:10197000204F46462C20555053205049636F207706
:10198000696C6C20776F726B20756E74696C206265
:1019900061747465727920646973636861726765E4
:1019A00064000A0D5265616C2054696D6520436CBA
:1019B0006F636B20436F7272656374696F6E20464C
:1019C0006163746F722076616C75652069733A206B
:1019D000307825780A0D0000466163746F727920B3
:1019E00044656661756C74732053657474696E67C1
:1019F0002075702050726F6365647572650A0D0002
:101A00000A0D45726173696E672055505320504925
:101A1000636F20696E7465726E616C20454550522B
:101A20004F4D00000A0D454550524F4D2045726103
:101A3000736564000A0D466163746F7279204C6FA0
:101A40007720506F776572205265737461727420CD
:101A500054696D652069733A202575205365636F5D
:101A60006E6473000A0D466163746F72792042617F
:101A700074746572792052756E6E696E6720546950
:101A80006D652069732073657420746F3A20257525
:101A9000207365636F6E647300000A0D4361626CAE
:101AA0006520506F7765722052657475726E207470
:101AB000657374696E672074696D656F75742073E2
:101AC000657420746F3A202575205365636F6E64CA
:101AD00073000A0D5374696C6C20416C6976652043
:101AE00054696D657220686173206265656E20645B
:101AF000697361626C6564000A0D53657474696E84
:101B0000672075702052544300000A0D46616374CB
:101B10006F727920536574757020596561723A321D
:101B20003030300A0D466163746F727920536574EA
:101B30007570204D6F6E74683A30310A0D466163DE
:101B4000746F727920536574757020446F773A30E2
:101B5000310A0D466163746F727920536574757034
:101B6000204461793A3031000A0D5265616C20548D
:101B7000696D6520436C6F636B20436F72726563A0
:101B800074696F6E20466163746F72207365742090
:101B9000746F2030205365636F6E647300000A0D0C
:101BA00058424D432046756E6374696F6E616C696F
:101BB000747920686173206265656E206469736161
:101BC000626C656400000A0D465353442054696DED
:101BD000656F75742053657420746F2025752053CC
:101BE00065636F6E647300000A0D54656D706572F5
:101BF0006174757220544F2D39322053656E736FA6
:101C000072206973204E4F5420696E7374616C6C3E
:101C1000656400000A0D546865205049636F2053C5
:101C2000657269616C20506F7274206973206469F9
:101C30007361626C65642028617661696C61626CB5
:101C4000652920666F72206F746865722052617317
:101C5000706265727279205069206170706C69637E
:101C60006174696F6E7300000A0D426565700A0D3C
:101C700000000A0D42616420436F6D6D616E643A2D
:101C80002573200A0D000A0D526573657474696E20
:101C90006720555053205049636F0A0D00000A0D0C
:101CA0005175697474696E672066726F6D20465352
:101CB0005344204C505200000A0D555053205049B7
:101CC000636F2053797374656D205374617274650A
:101CD000640A0D000A0D5261737062657272792098
:101CE00050692069732072756E6E6E67202D2062B8
:101CF0006F6F74696E672070726F74656374696F5B
:101D00006E2064697361626C65640A0D00000A0DDF
:101D10005261737062657272792050692069732014
:101D20004E4F542072756E6E696E670A0D000A0D73
:101D300052617370626572727920506920536875C0
:101D40007474696E6720646F776E206861732062B7
:101D500065656E20646574656374656400000A0DD2
:101D60005261737062657272792050692053687590
:101D70007474696E6720646F776E20686173206287
:101D800065656E20636F6D706C65746564000A0D27
:101D9000555053205049636F2053797374656D20FB
:101DA000456E746572696E67204C5052204D6F64A9
:101DB00065000A0D5374696C6C20416C697665206E
:101DC00054696D6572207265616368657320303097
:101DD0002C20555053205049636F204653534420C4
:101DE000686173206265656E20696E6974696174EB
:101DF000656400000A0D5374696C6C20416C69764F
:101E0000652054696D657220555053205049636FA9
:101E1000204653534420686173206265656E2063D9
:101E20006F6D706C6574656400000A0D52657374A3
:101E3000617274696E672074686520737973746564
:101E40006D000A0D696E7075742850494E5F4653D7
:101E500053442920213D203029207C7C2072706948
:101E60005F72756E203D3D204F4646000A0D465379
:101E7000534420427574746F6E205072657373659D
:101E80006420555053205049636F204653534420DB
:101E9000686173206265656E20696E69746961743A
:101EA000656400000A0D4653534420427574746FF4
:101EB0006E205072657373656420555053205049ED
:101EC000636F204653534420686173206265656EDA
:101ED00020636F6D706C6574656400000A0D555069
:101EE00053205049636F2053797374656D20456E9C
:101EF000746572696E67204C5052204D6F646500A6
:101F00000A0D4C6F772042617474657279205550C8
:101F100053205049636F2046535344206861732017
:101F20006265656E20696E6974696174656400003C
:101F30000A0D4C6F77204261747465727920555098
:101F400053205049636F20465353442068617320E7
:101F50006265656E20636F6D706C6574656400000A
:101F60000A0D555053205049636F2053797374659F
:101F70006D20456E746572696E67204C5052204D1D
:101F80006F6465000A0D54696D65642046535344BF
:101F900020555053205049636F206861732062655B
:101FA000656E20696E6974696174656400000A0D6C
:101FB00054696D6564204653534420555053205056
:101FC00049636F20465353442068617320626565FE
:101FD0006E20636F6D706C65746564000A0D5550FA
:101FE00053205049636F2053797374656D20456E9B
:101FF000746572696E67204C5052204D6F646500A5
:102000000A0D2058424D432054696D6564204653A3
:10201000534420555053205049636F20686173200A
:102020006265656E20696E6974696174656400003B
:102030000A0D2058424D432054696D656420465373
:10204000534420555053205049636F204653534406
:1020500020686173206265656E20636F6D706C65CA
:10206000746564000A0D555053205049636F205326
:10207000797374656D20456E746572696E67204C66
:102080005052204D6F6465000A0D4E65772025750E
:10209000207365636F6E6473206F66204C505253DB
:1020A000544120686173206265656E20777269749F
:1020B00074656E20746F20746865205550532050ED
:1020C00049636F20454550524F4D0A0D00000A0DDF
:1020D0004E657720257520584D42432073657474F2
:1020E000696E6720686173206265656E207772692A
:1020F0007474656E20746F20746865205550532089
:102100005049636F20454550524F4D0A0D000A0D4E
:102110004E6577202575207365636F6E6473204666
:10212000535344204241542072756E6E696E67208D
:1021300054696D6520686173206265656E207772F1
:10214000697474656E20746F2074686520555053EF
:10215000205049636F20454550524F4D0A0D0000F5
:102160000A0D4E6577202575207365636F6E647365
:1021700020465353442074696D656F7574206861FF
:1021800073206265656E207772697474656E207461
:102190006F2074686520555053205049636F204567
:1021A0004550524F4D0A0D000A0D46616E20537086
:1021B0006565643A20257520686173206265656EE7
:1021C000207772697474656E20746F20746865205E
:1021D000555053205049636F20454550524F4D0A8A
:1021E0000D000A0D6E6577205254434346203A2075
:1021F000257520686173206265656E207772697449
:1022000074656E20746F207468652055505320509B
:1022100049636F20454550524F4D0A0D00000A0D8D
:10222000555053205049636F20544F2D393220743C
:10223000656D70657261747572652073656E736F1C
:102240007220697320676F696E6720746F20626502
:102250002044697361626C65640A0D000A0D555073
:1022600053205049636F20544F2D39322074656DCF
:1022700070657261747572652073656E736F72201C
:10228000697320676F696E6720746F2062652045EF
:102290006E61626C656400000A0D55505320504910
:1022A000636F20525332333220676F696E67207438
:1022B0006F2062652064697361626C65640A0D0059
:1022C0000A0D555053205049636F20525332333218
:1022D00020676F696E6720686173206265656E2094
:1022E000656E61626C6564000A0D5550532050495B
:1022F000636F20556E636F6E646974696F6E616C95
:102300002046535344205265717565737465640AA1
:102310000D000A0D555053205049636F20556E63D0
:102320006F6E646974696F6E616C2046535344200C
:10233000686173206265656E20696E697469617495
:10234000656400000A0D555053205049636F2055B5
:102350006E636F6E646974696F6E616C204653536F
:102360004420686173206265656E20636F6D706CD8
:102370006574656400000A0D555053205049636F21
:102380002053797374656D20456E746572696E674C
:10239000204C5052204D6F6465000A0D555053205B
:1023A0005049636F20466163746F7279205365747E
:1023B0007570205265717565737465640A0D00004F
:1023C0000A0D555053205049636F20526573657450
:1023D000205265717565737465640A0D00000A0DFD
:1023E000555053205049636F20426F6F746C6F617A
:1023F000646572205265717565737465640A0D00B9
:102400000A0D4856312E30207265636F676E697A07
:1024100065640A0D00000A0D4856312E31207265A0
:10242000636F676E697A65640A0D00000A0D48568D
:10243000312E3131207265636F676E697A65640A87
:102440000D000A0D4856312E32207265636F676E9B
:10245000697A65640A0D00000A0D555053205049F1
:10246000636F2049324320686173206265656E2086
:1024700073657420746F204932435F4E4F524D4153
:102480004C202D20726573657474696E670A0D00A7
:102490000A0D555053205049636F2049324320683C
:1024A0006173206265656E2073657420746F2049C6
:1024B00032435F4D494E494D414C202D207265738A
:1024C000657474696E670A0D00000A0D555053203B
:1024D0005049636F2049324320686173206265650B
:1024E0006E2073657420746F204932435F4E4F52E3
:1024F0005443202D20726573657474696E670A0DEC
:1025000000000A0D555053205049636F2052544328
:1025100020686173206265656E2075706461746502
:10252000642066726F6D20746865205250690000E7
:10253000020EEA6EF00EE96EEF5011E00A0E016E27
:10254000BF0E006E0400002EFDD7012EF9D75E0EDF
:10255000006E002EFED700D00400EF2EEFD7120041
:10256000F2CFEEF2F29EA96AA69CA69EA680A85083
:102570000201EEBFF28E2B6E2B50A00A000105E087
:10258000010A08E0030A0BE00FD0F00E776ED00EC0
:10259000C86E0ED0F80E776ED00EC86E09D0FA0E47
:1025A000776ED20EC86E04D0F80E776ED00EC86E5D
:1025B0001200F00EBD1694948B941200D8B204D081
:1025C000030EEA6E010EE96E006A016A026A036A8E
:1025D0000301016B026B036B046B00510201FF11DD
:1025E000FE11FD1141E0200E0301056FD89002019C
:1025F000F937FA37FB37FC37030101370237033766
:1026000004370051045D0EE10201FF510301035D37
:1026100009E10201FE510301025D04E10201FD51E5
:102620000301015D1AE30201FD510301015F020193
:10263000FE51D8A0FE3D01D003D00301025F02018C
:10264000FF51D8A0FF3D01D002D00301035F030179
:102650000051D8A0003D045FD88000360136023614
:102660000336052FC3D7020101C3EFFF02C3ECFFFE
:1026700003C3ECFF04C3ECFF00011200F2C2FCF242
:10268000F1C2FBF2F0C2FAF2EFC2F9F2EEC200F3CD
:10269000EDC2FFF2ECC2FEF2EBC2FDF28FDF0250A0
:1026A00004E1015002E1005030E103C0FCF202C03D
:1026B000FBF201C0FAF200C0F9F20301006B020163
:1026C000FF6BFE6B040EFD6F000178DF025004E12A
:1026D000015002E100501CE103C0FCF202C0FBF219
:1026E00001C0FAF200C0F9F20301006B0201FF6BB6
:1026F000FE6B040EFD6F000161DF025004E101502A
:1027000002E1005008E1006A06D0040ECA6E05D04E
:10271000050ECA6E02D0060ECA6E000600C0CBFFC0
:10272000AAEF2BF00201FD6BFE6B010EFF6FDA6A60
:10273000D96A020E0301026FF50E016F020EEA6EF6
:10274000F90EE96E02C3E2FF01C3E1FFFFC200F32D
:10275000D890E550EE02F3500201FD23F450FE2321
:102760000301002FF5D7FDC2DEFFFEC2FDF202011C
:10277000FE6BD8B0FE2B0301012BD8B4022B020153
:10278000FF2BFF510508D8B402D00301D7D70001B1
:102790001200CBCFEDF20201EE6BED2BD8B4EE2B95
:1027A000D890ED37EE37ED37EE37F86BF76BEEC2BA
:1027B000F6F2EDC2F5F2FC6BFB6BECC2FAF2EBC287
:1027C000F9F20001AFDF03C0FCF202C0FBF201C06E
:1027D000FAF200C0F9F20301006B0201FF6B030E75
:1027E000FE6FE80EFD6F0001E9DE00C002F001326D
:1027F00000320132003200C0BEFF0236023602361D
:102800000236CF0EBD16300E0214BD12B2EF2BF001
:102810002C3C01D034D00201F7910101BE51BD5DC5
:1028200003E10201F7810101036ABD511D0FE96E49
:10283000010E0320EA6EF6C2EFFF010EBD25020174
:10284000FA6F196AF2BE198EF29EE8CF20F3A00E3D
:102850000301216F0001F9EC04F019BEF28E00C0F3
:10286000F8F20101BE510201F85DD8A402D00001C6
:10287000F8D7F8C2BDF1F7A101D09D880001120080
:102880000900F5520CE0F6CFEFF2F7CFF0F2F5CFFA
:10289000F6F2BEDFEFC2F6FFF0C2F7FFF1D712008B
:1028A000F3C201F0F2C200F00066012A0900F5CF80
:1028B000EEFF002EFBD7012EF9D7F86A6FEF14F068
:1028C000F86A070EF76EFE0EF66E020EEA6EEF0E57
:1028D000E96E0201F36B010EF26F0001E1D7EFC266
:1028E000F1F20201F1C201F0000112000900F6CF7D
:1028F000F0F2F7CFF1F2F5CFF6F28ADFF0C2F6FF91
:10290000F1C2F7FF0201EF2F01D002D00001EED794
:1029100000011200640EF66E160EF76EB1DF1200A3
:102920000A0E0201F66F000173DF0D0E0201F66F51
:1029300000016EDF1200800EF66E160EF76EA0DF3D
:10294000BFDF01C0EEF20201EE51500A000107E0C4
:10295000010A12E0020A1DE0150A28E034D0AE0E8A
:10296000F66E160EF76E230E0201EF6F0001BEDF4A
:10297000EEC2F6F24DDF3FD0D40EF66E160EF76EB5
:10298000230E0201EF6F0001B1DFEEC2F6F240DF6D
:1029900032D0FA0EF66E160EF76E230E0201EF6FAE
:1029A0000001A4DFEEC2F6F233DF25D0200EF66E72
:1029B000170EF76E220E0201EF6F000197DFEEC2D5
:1029C000F6F226DF18D0460EF66E170EF76E0F0ED3
:1029D0000201EF6F00018ADFEEC2F6F219DF0A0E84
:1029E0000201F66F000114DF0D0E0201F66F000107
:1029F0000FDF90DF10D05A0EF66E170EF76E150E21
:102A00000201EF6F000172DF720EF66E170EF76EA5
:102A100037DF80DF85DF12000150196AF2BE198EA0
:102A2000F29EEEC220F3640E0301216F0001F9EC67
:102A300004F019BEF28E00C0EEF20150300E08E133
:102A40000201EFA30FD0EFB70DD0EFB9200E04D0E5
:102A50000201EF97EF99EF81012601C0F6F2000124
:102A6000D7DE0201196AF2BE198EF29EEEC220F381
:102A70000A0E0301216F0001F9EC04F019BEF28E79
:102A800000C0EEF20150300E08E10201EFB70AD0AB
:102A9000EFA108D0EFB9200E0001012601C0F6F227
:102AA000B7DE0201300EEE27EEC2F6F20001B0DE14
:102AB00012000201B36B010EB16FB1C2B0F2B0C22D
:102AC000B2F2AF6BAFC2ADF2196AF2BE198EF29ECE
:102AD000ADC21DF3000164EC08F019BEF28E01C016
:102AE000B6F2196AF2BE198EF29EAEC21DF364EC04
:102AF00008F019BEF28E01C0B7F2196AF2BE198E43
:102B0000F29EAFC21DF364EC08F019BEF28E01C054
:102B1000B8F2196AF2BE198EF29EB0C21DF364ECCF
:102B200008F019BEF28E01C0B9F2196AF2BE198E10
:102B3000F29EB1C21DF364EC08F019BEF28E01C022
:102B4000BAF2196AF2BE198EF29EB2C21DF364EC9B
:102B500008F019BEF28E01C0BBF2196AF2BE198EDE
:102B6000F29EB3C21DF364EC08F019BEF28E01C0F0
:102B7000BCF21200920EF66E180EF76E81DE120095
:102B80000201EF6BEE6B196AF2BE198EF29E010E16
:102B900003011D6F00013EEC06F019BEF28E678F37
:102BA0000201EF6BEE6BEF532CE1EE512C0829E3A1
:102BB000036AEE512B0FE96E000E0320EA6EEFCF91
:102BC000F0F2A6B2FED7A694F250006EF29EEEC2CC
:102BD000A9FFF0C2A8FFA69CA69EA6840F01550ED1
:102BE000A76EAA0EA76EA6820050F2120A0E02016C
:102BF000F06F00019DDC04000201EE2BD8B4EF2B36
:102C0000D2D7196AF2BE198EF29E010E03011D6F12
:102C1000000119EC06F019BEF28E679F1200D20E69
:102C2000F66E0A0EF76E2CDEF2CFEEF2F29EA96A75
:102C3000A69CA69EA680A8500201EEBFF28E2B5C39
:102C400001E0000E2B50A00A000105E0010A09E096
:102C5000030A0DE012D0EA0EF66E0A0EF76E10DED1
:102C600011D0F80EF66E0A0EF76E0ADE0BD0060EC5
:102C7000F66E0B0EF76E04DE05D0120EF66E0B0E1E
:102C8000F76EFEDD1200196AF2BE198EF29E070E73
:102C900003011D6F00013EEC06F019BEF28E4BDE03
:102CA000D80EF66E190EF76EEBDD000EF66E1A0EEC
:102CB000F76EE6DD0201ED6BEC6BED5100081FE3F2
:102CC000A6B2FED7A694F250006EF29EECC2A9FF07
:102CD000A868A69CA69EA6840F01550EA76EAA0EF4
:102CE000A76EA6820050F21204000A0E0201F06FD5
:102CF00000011EDC0201EC2BD8B4ED2BDED7240E34
:102D0000F66E1A0EF76E0001BBDDA10E2B6E030EE0
:102D1000326E32C070F0340EF66E1A0EF76E250E5B
:102D20000201EF6F0001E2DD32C0EEF21B0E020184
:102D3000EF6F000171DE5B0EF66E1A0EF76E080E75
:102D40000201EF6F0001D2DD450E2F6E2FC06FF034
:102D5000640EF66E1A0EF76E2A0E0201EF6F000176
:102D6000C5DD6FC0EEF21B0E0201EF6F000154DEF5
:102D7000900EF66E1A0EF76E080E0201EF6F00014C
:102D8000B5DD030E306E30C071F09A0EF66E1A0E7D
:102D9000F76E2D0E0201EF6F0001A8DD71C0EEF29B
:102DA0001B0E0201EF6F000137DEC90EF66E1A0E20
:102DB000F76E080E0201EF6F000198DDD20EF66E7D
:102DC0001A0EF76E5DDD6E69F80EF66E1A0EF76E6E
:102DD00057DD6FDE0A0EF66E1B0EF76E51DD680EC4
:102DE000F66E1B0EF76E4CDD0201BD6BBDC233F0FB
:102DF0009E0EF66E1B0EF76E000142DD7D6B7DC0F0
:102E000036F0C60EF66E1B0EF76E160E0201EF6F51
:102E100000016CDD200E0201EE6F1B0EEF6F000152
:102E2000FBDDDE0EF66E1B0EF76E080E0201EF6F75
:102E300000015CDD200E7E6F7EC02EF0E80EF66E87
:102E40001B0EF76E1DDD2D68140EF66E1C0EF76E50
:102E500017DD2C6A04008EDE93DE62DD196AF2BE95
:102E6000198EF29E070E03011D6F000119EC06F08A
:102E700019BEF28EB0EC12F0D2DEFA0E0201F06F43
:102E8000000198EC12F0FF001200196AF2BE198ED0
:102E9000F29E070E03011D6F000119EC06F019BE2A
:102EA000F28E196AF2BE198EF29E010E03011D6F99
:102EB000000119EC06F019BEF28E196AF2BE198EE5
:102EC000F29E03011D6B000119EC06F019BEF28E93
:102ED000196AF2BE198EF29E050E03011D6F0001E4
:102EE00019EC06F019BEF28E196AF2BE198EF29E26
:102EF000060E03011D6F000119EC06F019BEF28EDB
:102F00001200C1DEF29A0201EB6BEB51040856E3AA
:102F1000020EEC6FFA0EF06F000198EC12F0020155
:102F2000EC2FF8D704000001B0DF929A899AFA0ECC
:102F30000201F06F000198EC12F00400929A898A65
:102F4000196AF2BE198EF29E050E03011D6F000173
:102F50003EEC06F019BEF28E196AF2BE198EF29E90
:102F6000060E03011D6F00013EEC06F019BEF28E45
:102F7000196AF2BE198EF29E03011D6B00013EEC30
:102F800006F019BEF28E196AF2BE198EF29E010E7B
:102F900003011D6F00013EEC06F019BEF28E196AA6
:102FA000F2BE198EF29E070E03011D6F00013EEC6A
:102FB00006F019BEF28E0201EB2BA7D7929A899ADE
:102FC000F28A320EF06F000198EC12F0860EF66E67
:102FD0001C0EF76E55DC320E0201F06F000198EC0A
:102FE00012F0FF001200200EF66E0B0EF76E48DC9A
:102FF0000201EB51000A00010DE0030A11E0040A8E
:1030000015E00C0A19E0070A1DE0020A21E0010A96
:1030100025E02AD03C0EF66E0B0EF76E31DC29D07F
:103020004E0EF66E0B0EF76E2BDC23D05E0EF66E98
:103030000B0EF76E25DC1DD06A0EF66E0B0EF76ECA
:103040001FDC17D07A0EF66E0B0EF76E19DC11D05E
:103050008A0EF66E0B0EF76E13DC0BD09C0EF66E1E
:103060000B0EF76E0DDC05D0AA0EF66E0B0EF76E8A
:1030700007DC0A0E0201F66F000108EC14F00D0ED9
:103080000201F66F000108EC14F0EEEF2BF00201E4
:10309000EB6BEB513E080BE3036AEB51610FE96EFA
:1030A000020E0320EA6EEF6A0400EB2BF2D7010157
:1030B0001C930201A16B000112000C0EBD12120044
:1030C000FCDF320E0201F06F000198EC12F0D9EC37
:1030D00012F0F7EF20F08E0E006E0EC301F00DC35C
:1030E00002F0036A015209E102C001F0026A080E0F
:1030F000005E015202E1006A08D0D89001BE04D0FF
:10310000023601360006F9D7019E1200030109516B
:10311000D8B471D0006E0D51D8B46DD0002604E340
:10312000810E002668E204D07F0E005E64E363E057
:103130000AC311F30E51111B0A8F0E8F0C5110038D
:10314000F4CF13F30B510F03F4CF03F0F3CF12F3CB
:103150001003F3501327F4501223000E03220C51D6
:103160000F03F3501327F4501223000E026A0322B8
:1031700002220A511003F3501227F4500322000ECA
:1031800002220A510F03F3500326F4500222000ECC
:10319000016A01220C510E03F3501227F45003224E
:1031A000000E022201220B510E03F3500326F450AD
:1031B0000222000E01220A510E03F3500226F4509F
:1031C0000122002A01BE05D012370336023601362D
:1031D0000006000E12AF0AD0032A0222012201507B
:1031E00005E1025003E1035001E1002A11BF018E05
:1031F00011AF019E04D0006A016A026A036A0001ED
:1032000012008E0E006E03010951005E0AC302F027
:103210000BC301F0028E005209E0D890025202E185
:10322000015204E002320132002EF7D70AAF05D076
:10323000011E021E012AD8B4022A00011200020156
:10324000FC69FB69F6C2F8F2F5C2F7F2FA6BF96BAA
:10325000FB5302E1FC533FE0FB51D8B4FC07FB07F2
:10326000F851260809E2FF0A03E1F7510F0804E2CA
:10327000FF0E016E026E33D0F85102080CE2FF0A15
:1032800003E1F751E70807E2E80EF75F030EF85B8A
:10329000100EFA271FD0F85303E1F751630807E235
:1032A000640EF75F000EF85B010EFA2713D0F85397
:1032B00003E1F751090809E20A0EF75F000EF85B17
:1032C000100EF927000EFA2305D0F751F927F8510F
:1032D000FA2301D0BDD7F9C201F0FAC202F0000111
:1032E0001200D8900201A535036AC80FE96E000EDE
:1032F0000320EA6EC7C0ECFFED52C6C0EFFFA55138
:10330000000802E2A56B01D0A52B0001C36BC26BC4
:10331000C16BC06B0201EC6BEC51010816E3D89055
:10332000EC35036AC80FE96E000E0320EA6EECCF9D
:1033300003F0ED52EF500001C0270350C123000EEF
:10334000C223C3230201EC2BE7D7D8900001C3317D
:10335000C231C131016EC031C46F01C0C5F0C5C0FA
:103360000EF3C4C00DF3B7DE03C00CF302C00BF3C1
:1033700001C00AF300C009F388C010F387C00FF33F
:1033800086C00EF385C00DF3C1DE03C00CF302C08E
:103390000BF301C00AF300C009F333DF02C0EEF201
:1033A00001C0EDF2EEC2F6F2EDC2F5F248DF02C066
:1033B0005BF001C05AF026EF20F00400840E006E8E
:1033C000002EFED700D012008993040E016EC25069
:1033D000C30B0110C26EF1DFC282C2B2FED7C4CFEE
:1033E000EEF20201C3CFEDF2000189B305D0EEC2C7
:1033F000BBF0EDC2BAF015D08993040E016EC25035
:10340000C30B0110C26ED9DFC282C2B2FED7C4CFD5
:10341000EEF20201C3CFEDF2EEC2BBF0EDC2BAF0A4
:103420000001D8900201A435036ABC0FE96E000EBA
:103430000320EA6EBBC0ECFFED52BAC0EFFFA4510F
:10344000000802E2A46B01D0A42B0001B76BB66B9D
:10345000B56BB46B0201EC6BEC51010816E3D8902C
:10346000EC35036ABC0FE96E000E0320EA6EECCF68
:1034700003F0ED52EF500001B4270350B523000EC6
:10348000B623B7230201EC2BE7D7D8900001B73160
:10349000B631B531016EB431B86F01C0B9F0B9C001
:1034A0000EF3B8C00DF317DE03C00CF302C00BF32C
:1034B00001C00AF300C009F384C010F383C00FF306
:1034C00082C00EF381C00DF321DE03C00CF302C0F5
:1034D0000BF301C00AF300C009F393DE02C0F0F25F
:1034E00001C0EFF2F0C2F6F2EFC2F5F2A8DE02C0C0
:1034F00059F001C058F028EF20F0800ED8A202D079
:103500000301121B0301176B186B0EC316F3125144
:10351000161B0D51D8B4DFD0156F006E1151D8B401
:10352000E3D0155FD8B483D03EE312C31BF31B8FE7
:1035300013C31AF314C319F3186BD8901B331A333F
:1035400019331833152FF8D716AF03D01781E0D0F1
:10355000179115911789030EEA6E100EE96EEBD0E4
:10356000179916BF0AD015A113D01B331A3319337C
:103570001833002AD8B4C7D00BD01BBF0CD0D890BA
:10358000183719371A371B370006D8B4BCD0F5D70F
:10359000178D6DD0179D0EC316F30EAF02D01B8F83
:1035A000ABD01B9FA9D011C315F311C300F00D516F
:1035B000155F0EC31BF31B8F0FC31AF310C319F350
:1035C000186BD8901B331A3319331833152FF8D7CB
:1035D00016AF03D017839CD017931591178B030E4A
:1035E000EA6E140EE96EA7D0179B16BF0AD015A17C
:1035F00013D01B331A3319331833002AD8B483D0AD
:103600000BD01BBF0CD0D890183719371A371B377F
:103610000006D8B478D0F5D7178F29D0179F12C3DA
:1036200016F312AF02D01B8F67D01B9F65D012C359
:103630001BF31B8F13C31AF314C319F316AF04D073
:103640001B9F178565D01795186B1591030EEA6EB1
:10365000100EE96E70D016BF1CD00EC316F315A164
:1036600006D01B331A3319331833002A4CE018AF35
:103670000BD0192B09E11A2B07E11B2B05E11B339A
:103680001A331933002A3FE017BD84D717BFC6D7B6
:103690001CD0800E1B1B1BAF04D03AD012C316F3F4
:1036A0000AD00EC316F31B5306E11A5304E1195353
:1036B00002E1006A21D01BBF08D0D8901837193713
:1036C0001A371B37002EF7D71ED016AF02D01B8F2C
:1036D00013D01B9F11D011C300F012C31BF313C3EF
:1036E0001AF314C319F308D00DC300F00EC31BF373
:1036F0000FC31AF310C319F31BC301F01AC302F06E
:1037000019C303F034D0006A016A026A036A2FD039
:10371000186B191F1A1F1B1F181F182B05E1192BD7
:1037200003E11A2B01E11B2B17B112D717B354D7A2
:1037300017B589D7B3D7EF50192705E31A2B03E143
:103740001B2BD8B41581ED52EF501A2703E31B2B26
:10375000D8B41581ED52EF50EFBE01D0800A1B277F
:10376000D8B0158117B9FCD617BB3ED774D7000166
:1037700012000201F551D8B4DAD00301016F020141
:10378000F951D8B4D4D00301015F07E37F0E0127BC
:10379000D8A002D00201CBD00AD0810E015FD8B0F0
:1037A00002D00201C4D0D8A402D00201C0D001C30B
:1037B00000F0016A026A036A006BF6C2FFF20201BE
:1037C000FF8FF7C2FEF2F8C2FDF2190E0301016F7E
:1037D0000201FC51FD5F12E2010EFE5F0FE2FF5F8E
:1037E0000DE20301005FD8A002D0020107D0002B38
:1037F0000201FF2BFE2BFC51FD2736D0FB51FE5F53
:1038000019E2010EFF5F16E20301005FD8A002D0AB
:10381000020110D0002B0201FF2BFB51FE27FC51AF
:10382000FD2722E3FE2B20E1FF2B1EE10301002BED
:1038300002011AD0FA518009FF5F15E2010E03015F
:10384000005FD8A002D002010ED0002B0201FA5175
:103850008009FF27FB51FE27E2E3FF2BE0E1030194
:10386000002B0201DCD703800301012F01D00DD012
:10387000D8900201FD37FE37FF3703010037D8909B
:103880000336023601360237A3D702A106D0D890FC
:10389000013202320332023304D0002E02D0020180
:1038A00046D002BF29D0D8900201FD37FE37FF373E
:1038B000030100370201FC51FD5F09E2010EFE5FCA
:1038C00006E2FF5F04E20301005F24E30201FB5113
:1038D000FE5F07E2010EFF5F04E20301005F1AE3EF
:1038E0000201FA518009FF5FD8A002D0030104D081
:1038F000010E0301005F0EE3032A0CE1022A0AE134
:10390000012A08E1002AD8A402D0020110D0013215
:1039100002320332F6C201F30201FA510301011B24
:1039200001AF02D0018E08D0019E06D00201006ACC
:10393000016A026A036A0301000112000AC311F35B
:1039400003010E51111B11AF05D0D894D8900ABFB6
:10395000D8802FD00AC311F30DC312F30951125F9F
:1039600006E011AF26D0D850010AD86E22D00EC37F
:1039700012F30A51125F06E011AF1BD0D850010AB2
:10398000D86E17D00FC312F30B51125F06E011AFC0
:1039900010D0D850010AD86E0CD010C312F30C51BD
:1039A000125F06E011AF05D0D850010AD86E01D0E1
:1039B000D8900001120003010891FCC201F3FBC280
:1039C00000F3FAC2FFF2F9C2FEF2FCC20CF3FBC232
:1039D0000BF3FAC20AF3F9C209F3106B0F6B0E6B0B
:1039E0000D6B0001ABDF07E3030108810201FF510A
:1039F000800AFF6F000101C30CF300C30BF3FFC289
:103A00000AF3FEC209F30301106B0F6B0E6B8E0EEF
:103A10000D6F000193DF01E219E101C30CF300C354
:103A20000BF3FFC20AF3FEC209F301EC19F002C066
:103A30000EF301C00DF36BEC18F003C005F302C0E8
:103A400004F301C003F300C002F3D0D001C30CF3B0
:103A500000C30BF3FFC20AF3FEC209F3800E030199
:103A6000106F960E0F6F180E0E6F960E0D6F0001F1
:103A700065DFD8A0B3D001C30CF300C30BF3FFC2C2
:103A80000AF3FEC209F30301106B0F6B0E6B700E8D
:103A90000D6F000186EC18F003C00CF302C00BF3AD
:103AA00001C00AF300C009F301EC19F002C007F3EA
:103AB00001C006F301C30CF300C30BF3FFC20AF30A
:103AC000FEC209F30301106B0F6B0E6B700E0D6FCE
:103AD000000186EC18F003C00CF302C00BF301C028
:103AE0000AF300C009F307C30EF306C30DF36BEC32
:103AF00018F0D8820CC310F30BC30FF30AC30EF3F4
:103B000009C30DF303C014F302C013F301C012F391
:103B100000C011F3F2DC03010C6B0B6B0A6B8E0E11
:103B2000096F03C010F302C00FF301C00EF300C011
:103B30000DF3000186EC18F003C001F302C000F39E
:103B400001C0FFF200C0FEF207C30EF306C30DF37F
:103B50006BEC18F003010C6B0B6B0A6B8E0E096F8C
:103B600003C010F302C00FF301C00EF300C00DF349
:103B7000000186EC18F003C005F302C004F301C095
:103B800003F300C002F301C30CF300C30BF3FFC245
:103B90000AF3FEC209F301EC19F002C00EF301C0F2
:103BA0000DF36BEC18F0D89205C310F304C30FF3B8
:103BB00003C30EF302C30DF303C014F302C013F3E7
:103BC00001C012F300C011F398DC03C005F302C07A
:103BD00004F301C003F300C002F308D001C305F3EE
:103BE00000C304F3FFC203F3FEC202F301C30CF3EC
:103BF00000C30BF3FFC20AF3FEC209F301EC19F094
:103C000002C00EF301C00DF36BEC18F0D88201C3B3
:103C100010F300C30FF3FFC20EF3FEC20DF303C097
:103C200014F302C013F301C012F300C011F365DCFA
:103C300003C001F302C000F301C0FFF200C0FEF2B6
:103C4000030108A103D00351800A036F01C30CF3E1
:103C500000C30BF3FFC20AF3FEC209F3106B0F6B34
:103C60000E6B0D6B00016ADE44E0030108A120D059
:103C70000201FD53D8B402D003011AD0D88205C383
:103C800010F304C30FF303C30EF302C30DF30301D8
:103C9000146B136B126B7F0E116F00012EDC03C0CF
:103CA00005F302C004F301C003F300C002F30301F3
:103CB00008B120D00201FD2D01D002D003011AD09D
:103CC000D89205C310F304C30FF303C30EF302C36A
:103CD0000DF30301146B136B126B7F0E116F000158
:103CE0000CDC03C005F302C004F301C003F300C001
:103CF00002F30301FCC20CF3FBC20BF3FAC20AF39A
:103D0000F9C209F3106B0F6B0E6B0D6B000116DE21
:103D100006E10301056B046B036B026B000102C338
:103D200000F003C301F004C302F005C303F0A6EFE3
:103D30001EF0F8C2FCF2F7C2FBF2F6C2FAF2F5C2CC
:103D4000F9F2010E0201FD6F000135D646EF1FF0BA
:103D5000D8900201A635036AD20FE96E000E032047
:103D6000EA6EFDC0ECFFED52FCC0EFFFA65100086B
:103D700002E2A66B01D0A62B0001CF6BCE6BCD6B00
:103D8000CC6B0201EC6BEC51010816E3D890EC35DA
:103D9000036AD20FE96E000E0320EA6EECCF03F047
:103DA000ED52EF500001CC270350CD23000ECE235F
:103DB000CF230201EC2BE7D7D8900001CF31CE31D1
:103DC000CD31016ECC31D06F01C0D1F0D1C00EF336
:103DD000D0C00DF36BEC18F003C00CF302C00BF372
:103DE00001C00AF300C009F3330E0301106F0F6F17
:103DF000530E0E6F760E0D6F000186EC18F003C0A7
:103E0000F4F202C0F3F201C0F2F200C0F1F2D88283
:103E100003C010F302C00FF301C00EF300C00DF396
:103E2000330E0301146F136F126F7E0E116F0001BA
:103E30007DEC1AF003C0F4F202C0F3F201C0F2F21A
:103E400000C0F1F203C0F8F202C0F7F201C0F6F2CE
:103E500000C0F5F2770E0201FC6FBE0EFB6F1F0E65
:103E6000FA6F790EF96F000184DC03C0F4F202C02E
:103E7000F3F201C0F2F200C0F1F203C0F8F202C0A6
:103E8000F7F201C0F6F200C0F5F253D703C0F0F22A
:103E900002C0EFF201C0EEF200C0EDF2F0C20CF38E
:103EA000EFC20BF3EEC20AF3EDC209F301EC19F015
:103EB00002C0F2F201C0F1F2196AF2BE198EF29E4E
:103EC00001C01DF364EC08F019BEF28E01C063F06E
:103ED00029EF20F0D8900201A735036ADC0FE96EC4
:103EE000000E0320EA6EFFC0ECFFED52FEC0EFFFB4
:103EF000A751000802E2A76B01D0A72B0001D96BE4
:103F0000D86BD76BD66B0201EC6BEC51010816E352
:103F1000D890EC35036ADC0FE96E000E0320EA6EE0
:103F2000ECCF03F0ED52EF500001D6270350D7231A
:103F3000000ED823D9230201EC2BE7D7D89000013B
:103F4000D931D831D731016ED631DA6F01C0DBF00B
:103F5000DBC00EF3DAC00DF36BEC18F003C00CF30A
:103F600002C00BF301C00AF300C009F3330E0301D2
:103F7000106F0F6F530E0E6F760E0D6F000186ECF3
:103F800018F003C0F4F202C0F3F201C0F2F200C074
:103F9000F1F2D88203C010F302C00FF301C00EF398
:103FA00000C00DF3CD0E0301146FCC0E136F4C0E39
:103FB000126F7D0E116F00017DEC1AF003C0F4F258
:103FC00002C0F3F201C0F2F200C0F1F203C0F8F255
:103FD00002C0F7F201C0F6F200C0F5F2770E02015E
:103FE000FC6FBE0EFB6F1F0EFA6F790EF96F0001AA
:103FF000B9EC1BF003C0F0F202C0EFF201C0EEF228
:1040000000C0EDF22D3C02D0646B1CD02D521AE1A1
:10401000F0C20CF3EFC20BF3EEC20AF3EDC209F3E8
:1040200001EC19F002C0F2F201C0F1F2196AF2BE1D
:10403000198EF29E01C01DF364EC08F019BEF28ED9
:1040400001C064F02AEF20F071EF19F0E4EF19F0ED
:104050007FD640D71200E05311E1E3530FE1ECC2E9
:10406000E0F0EDC2E3F0196AF2BE198EF29E030190
:104070001D6B00013EEC06F019BEF28E1200010E1F
:104080000201EC6F020EED6F0001E5DF196AF2BE6E
:10409000198EF29E070E03011D6F000119EC06F048
:1040A00019BEF28E040001011851010A000109E055
:1040B000030A20E0010A37E0070A4EE0010A65E042
:1040C0007DD0196AF2BE198EF29E050E03011D6F96
:1040D00000013EEC06F019BEF28E196AF2BE198E8E
:1040E000F29E060E03011D6F000119EC06F019BEC9
:1040F000F28E64D0196AF2BE198EF29E050E03018B
:104100001D6F000119EC06F019BEF28E196AF2BE9D
:10411000198EF29E060E03011D6F00013EEC06F0A3
:1041200019BEF28E4BD0196AF2BE198EF29E050EA0
:1041300003011D6F00013EEC06F019BEF28E196AF4
:10414000F2BE198EF29E060E03011D6F000119ECDE
:1041500006F019BEF28E32D0196AF2BE198EF29EA6
:10416000050E03011D6F000119EC06F019BEF28E59
:10417000196AF2BE198EF29E060E03011D6F000130
:104180003EEC06F019BEF28E19D0196AF2BE198EF5
:10419000F29E050E03011D6F00013EEC06F019BEF4
:1041A000F28E196AF2BE198EF29E060E03011D6F81
:1041B000000119EC06F019BEF28E00D0FDEF20F0E0
:1041C000010E766F756F060E0101186F18C1EBF2C4
:1041D0001497185314E00F0E0201F06F000198ECD1
:1041E00012F0010114A705D0000160EF18F00101E1
:1041F00014970400000128DF42D70101EAD700012B
:10420000756B929E898E929C899C01EF2CF089A9F6
:1042100046D00201EB51FC0F43E2040F000152EFC4
:1042200021F0196AF2BE198EF29E010E03011D6F74
:1042300000013EEC06F019BEF28E6781020130D01B
:10424000196AF2BE198EF29E010E03011D6F000164
:104250003EEC06F019BEF28E6783020121D0196A86
:10426000F2BE198EF29E010E03011D6F00013EEC9D
:1042700006F019BEF28E6785020112D0196AF2BEED
:10428000198EF29E010E03011D6F00013EEC06F037
:1042900019BEF28E6787020103D002D0000102012D
:1042A00000011200E824F76AF736BF0FF66E420EDF
:1042B000F7220A00F550FA6E0800F550F96E224216
:1042C00040425E427C4201011751070806E1030E9D
:1042D0000201EB6F00019BDF0101000110EF2CF0E8
:1042E0000BD0C5519B5D08E303E19A51C45D04E224
:1042F0000201EB6B00018BDF12000201EC6BEB6B38
:10430000EC6BEB6BEC531BE1EB512C0818E3036AED
:10431000EB512B0FE96E000E0320EA6EF2CFEFF2A5
:10432000F29EEBC2A9FFA69CA69EA680A850EFBF56
:10433000F28EEF6E0400EB2BD8B4EC2BE3D7000128
:1043400015EF2CF001010F5302E1050E0F6F000174
:10435000898B898D120001010F5316E1000189BB81
:1043600002D0010111D0B10E0101106F00019D5169
:10437000C75D09E303E1C6519C5D05E289B503D041
:10438000929A898A899B010100011200F451020866
:1043900064E1A092010114810001898371C0F6F0EB
:1043A000070EF96FD00EF86F000E016EC250C30BEE
:1043B0000110C26E929C899CF85302E1F95330E0DF
:1043C000F851D8B4F907F8070400C2820201EB9152
:1043D000C2A2EB81EBB104D0EB91C2A2EB81FAD780
:1043E000C2B2FED7C4CFC7F00001C3CFC6F0C751D9
:1043F0009D5D15E303E19C51C65D11E2929C898CA1
:10440000030EFB6FE80EFA6F01011491149BA0825A
:10441000010E0201F06F000198EC12F01ED0CCD713
:10442000E76BE66BE96BE86BEB6BEA6BC76BC66B34
:10443000929C899C87DF8FDF010EF46FF4C057F0E8
:10444000030EFB6FE80EFA6F01011491A082010EBA
:104450000201F06F000198EC12F01200010114ABA0
:1044600003D0000193DF0101000149EF2CF00CD0D3
:10447000B9518D5D09E303E18C51B85D05E2010E90
:104480000201EB6F0001C3DE4DEF2CF0B48EB4AC33
:10449000FED701011C81C050C00B3109C06EC08E17
:1044A000C2803C0E016EC250C30B0110C26EC282AC
:1044B0000201EBB104D0EB91C2A2EB81FAD7C2B2F8
:1044C000FED7C4CFA5F00001C3CFA4F0C050C00BED
:1044D0003009C06EC08EC28001011C910001A5513F
:1044E00000080BE2FF0A03E1A451C10806E2F451FF
:1044F000020803E1949A8B9AFFD71200722D0DD017
:10450000196AF2BE198EF29E050E03011D6F00019D
:104510003EEC06F019BEF28E0CD0196AF2BE198E6E
:10452000F29E050E03011D6F000119EC06F019BE85
:10453000F28E732D0DD0196AF2BE198EF29E060E00
:1045400003011D6F00013EEC06F019BEF28E0CD087
:10455000196AF2BE198EF29E060E03011D6F00014C
:1045600019EC06F019BEF28E12000201EDC2E9FF4D
:10457000EEC2EAFFF36BF26BECCFF1F2ED52EFCF4C
:10458000F0F2020EED25E96E000EEE21EA6EEFCF9D
:10459000FCFFEF5302E1010EEF6FEFC224F0F1C216
:1045A000FAFFF0C2E8FFF96E000112008985E76B9F
:1045B000E66BE96BE86BEB6BEA6BC76BC66B0101F3
:1045C0001495949A8B8A929E898E929C898C030E64
:1045D0000001FB6FE80EFA6F01011491050E166FD2
:1045E000010E0001F66FF76F840ED56EA50EB16E49
:1045F0000400196AF2BE198EF29E630E03011D6F4C
:104600000001DDEC05F019BEF28EB0EC12F00400F2
:10461000196AF2BE198EF29E630E03011D6F00012E
:10462000DDEC05F019BEF28EF28A9D82A0822C523A
:1046300002E19D889D8A9D86F2867D8A0A0E02018E
:10464000F06F000198EC12F09E0EF66E1C0EF76EE5
:1046500040EC14F0FA0E0201F06F000198EC12F039
:1046600095DE899F0201EC6B250EEB6FECC2EEF23A
:10467000ED6F010EEF6F000178DF01C02AF012002C
:10468000196AF2BE198EF29E17EC07F019BEF28E6F
:10469000C7519F5D09E303E19E51C65D05E201013B
:1046A000149304D003D0000101011483000112000F
:1046B000196AF2BE198EF29E040E03011D6F0001ED
:1046C0003EEC06F019BEF28E196AF2BE198EF29E09
:1046D000040E03011D6F000119EC06F019BEF28EE5
:1046E000FA0E0201F06F000198EC12F0196AF2BEA6
:1046F000198EF29E040E03011D6F000119EC06F0E5
:1047000019BEF28E196AF2BE198EF29E040E0301D2
:104710001D6F00013EEC06F019BEF28E12007451BE
:10472000020802E15DEC18F012007451020802E187
:10473000D9EC12F01200196AF2BE198EF29E020E26
:1047400003011D6F000119EC06F019BEF28E7EC048
:1047500012F10101125312E00001D0DE0400190E23
:104760000201F06F000198EC12F0010E0201EC6FF3
:10477000020EED6F00016FDCECD70101196AF2BE89
:10478000198EF29E020E03011D6F00013EEC06F031
:1047900019BEF28E1200E15312E1E45310E1EBC2B4
:1047A000E1F0ECC2E4F0196AF2BE198EF29E010E3D
:1047B00003011D6F00013EEC06F019BEF28E1200DF
:1047C000675338E1B9518F5D0BE303E1B8518E5D5A
:1047D00007E3010E0201EB6F020EEC6F0001DBDF5D
:1047E0008F51B95D12E303E1B8518E5D0EE2B9510C
:1047F000915D0BE303E1B851905D07E3010E020107
:10480000EB6F050EEC6F0001C6DF9151B95D12E34D
:1048100003E1B851905D0EE2B951935D0BE303E102
:10482000B851925D07E3010E0201EB6F140EEC6FBD
:104830000001B1DF86EF32F08993240E016EC25081
:10484000C30B0110C26EDDEC19F0C282C2B2FED7FA
:10485000C4CFECF20201C3CFEBF2000189B305D063
:10486000ECC206F1EBC205F118D08993240E016E5B
:10487000C250C30B0110C26EDDEC19F0C282C2B28D
:10488000FED7C4CFECF20201C3CFEBF2000189B333
:1048900004D0ECC206F1EBC205F10201F86BF76B34
:1048A00006C1F6F205C1F5F2FC6B020EFB6F8B0E32
:1048B000FA6F0B0EF96F000192EC13F003C0F8F2DF
:1048C00002C0F7F201C0F6F200C0F5F2D89203C0C0
:1048D000FCF202C0FBF201C0FAF200C0F9F20301DF
:1048E000006B0201FF6B270EFE6F100EFD6F0001C3
:1048F000DEEC12F003C0F4F202C0F3F201C0F2F2F7
:1049000000C0F1F20201F86BF76B0C0EF66F9A0E15
:10491000F56FF4C2FCF2F3C2FBF2F2C2FAF2F1C29A
:10492000F9F2000192EC13F003C0F8F202C0F7F2C2
:1049300001C0F6F200C0F5F2D89203C0FCF202C04A
:10494000FBF201C0FAF200C0F9F20301006B010EA4
:104950000201FF6F860EFE6FA00EFD6F0001DEEC00
:1049600012F003C0F0F202C0EFF201C0EEF200C09C
:10497000EDF2EEC2F6F2EDC2F5F21FEC19F002C054
:104980005DF001C05CF0C5EF32F089932C0E016E32
:10499000C250C30B0110C26EDDEC19F0C282C2B26C
:1049A000FED7C4CFECF20201C3CFEBF2000189B312
:1049B00005D0ECC208F1EBC207F118D089932C0E98
:1049C000016EC250C30B0110C26EDDEC19F0C28241
:1049D000C2B2FED7C4CFECF20201C3CFEBF20001AA
:1049E00089B304D0ECC208F1EBC207F10201F86B05
:1049F000F76B08C1F6F207C1F5F2FC6B020EFB6F14
:104A00008B0EFA6F0B0EF96F000192EC13F003C0DE
:104A1000F8F202C0F7F201C0F6F200C0F5F2D89247
:104A200003C0FCF202C0FBF201C0FAF200C0F9F2CE
:104A30000301006B0201FF6B270EFE6F100EFD6F6E
:104A40000001DEEC12F003C0F4F202C0F3F201C088
:104A5000F2F200C0F1F20201F86BF76B0C0EF66F88
:104A60009A0EF56FF4C2FCF2F3C2FBF2F2C2FAF254
:104A7000F1C2F9F2000192EC13F003C0F8F202C0A7
:104A8000F7F201C0F6F200C0F5F2D89203C0FCF2D2
:104A900002C0FBF201C0FAF200C0F9F20301006BA0
:104AA000010E0201FF6F860EFE6FA00EFD6F00016A
:104AB000DEEC12F003C0F0F202C0EFF201C0EEF241
:104AC00000C0EDF2EEC2F6F2EDC2F5F21FEC19F005
:104AD00002C05FF001C05EF0C7EF32F02C3C01D0A5
:104AE0002ED0020160515F5D0BE1EC2BEC510A0806
:104AF00007E3020EF06F000198EC12F0F2D702010A
:104B0000036A6051BF0FE96E010E0320EA6EEFCF1A
:104B1000EBF2010E6025EE6F196AF2BE198EF29E5D
:104B2000E8CF20F3A00E0301216F0001F9EC04F09F
:104B300019BEF28E00C060F20201EBC201F000016A
:104B400087EF36F00201EB6BEB511F080AE3036AB3
:104B5000EB51C10FE96E020E0320EA6EEF6AEB2BF8
:104B6000F3D70001E5EF28F003010B510D03F3CF5C
:104B700001F0F4CF00F00E03F35000260C510D03AA
:104B8000F3500020026E00013DEF26F00EC303F04B
:104B900003010DC3E9FF0EC3EAFFEF5205E10BC3AA
:104BA00001F00CC302F05DD00CC303F00BC3E9FFAE
:104BB0000CC3EAFFEF5252E00CC310F30BC30FF328
:104BC0000EC312F30DC311F312C303F011C3E9FFB7
:104BD00012C3EAFFEF5216E00FC3E9FF10C3EAFF6A
:104BE000EFCF13F312C303F011C3E9FF12C3EAFFBF
:104BF000EF50135D07E10F2BD8B4102B112BD8B455
:104C0000122BE2D712C303F011C3E9FF03C0EAFF7E
:104C1000EF5205E10BC301F00CC302F022D00B2BC5
:104C2000D8B40C2B0CC303F00BC3E9FF0CC3EAFF91
:104C3000EF5213E00BC3E9FF0CC3EAFFEFCF13F30E
:104C40000EC303F00DC3E9FF0EC3EAFFEF50135D7F
:104C500004E00B2BD8B40C2BE5D7A6D7000E016EC1
:104C6000026E00015DEF26F003010C6BE1C20BF355
:104C7000010E0E6F0D6B000177D702C00CF303011C
:104C800001C00BF3020EEA6EEB0EE96E02C0F7FFF5
:104C90000150000181EC04F00A000900F550EE6EAD
:104CA0000009FBE1020E03010C6F610E0B6F020E97
:104CB0000E6FEB0E0D6F000169D702C00CF301C03F
:104CC0000BF303010B5302E10C5304E0010E016EE0
:104CD00003D002D0000E016E000112000A0EF66E23
:104CE000180EF76E40EC14F0F451020A05E0010AC8
:104CF0000AE0020A0FE015D01E0EF66E180EF76ECF
:104D000040EC14F014D0220EF66E180EF76E40EC44
:104D100014F00DD0260EF66E180EF76E40EC14F05F
:104D200006D02A0EF66E180EF76E40EC14F090ECDA
:104D300014F01200EACFF5F2E9CFF4F20201EE39F5
:104D4000F009F06FF027E20FF16F320FF36FEE51C1
:104D50000F0BF127F127F327E90FF26FF227F22764
:104D6000ED390F0BF227F327F237F337F31FF33741
:104D7000ED510F0BF327F037070EEF6F0A0EF20716
:104D8000F327FDE3F107F227FDE3F007F127FDE349
:104D9000EF07F027FDE3020EEA6EEF0EE96E070E55
:104DA000F415F49DE926000EEA22E950F30804E127
:104DB000EA50020801E1F48DEF50006E08E1F4BD05
:104DC00006D0F4B916D0F4B702D0200E03D0F48781
:104DD000F499300E0026EACFEEF2E9CFEDF200C0F2
:104DE000F6F2000108EC14F0EEC2EAFFEDC2E9FFB2
:104DF0000201EE50F4ADD9D7000117EF27F0D00E25
:104E00000201B325EB6F070EEC6FD8B0EC2BB20E9E
:104E1000F66E170EF76E150EEF6F000176EC14F0BC
:104E2000090EE96EECC2EEF2EBC2EDF283D73A0E58
:104E30000201F66F000108EC14F0B2C2EEF2010EAE
:104E40000201EF6F00010CEC15F03A0E0201F66F53
:104E5000000108EC14F0B1C2EEF2010E0201EF6F96
:104E600000010CEC15F00A0E0201F66F000108ECCF
:104E700014F00D0E0201F66F000108EC14F01200A0
:104E80008C0EF66E170EF76E140E0201EF6F000116
:104E900076EC14F0AFC2EEF2010E0201EF6F0001EA
:104EA0000CEC15F03A0E0201F66F000108EC14F05C
:104EB000AEC2EEF2010E0201EF6F00010CEC15F034
:104EC0003A0E0201F66F000108EC14F0ADC2EEF2EA
:104ED000010E0201EF6F00010CEC15F00A0E020149
:104EE000F66F000108EC14F00D0E0201F66F0001E0
:104EF00008EC14F012000201EEBF12D00F0E006E8B
:104F0000ED3900160A0E005C03E2300E002602D0D6
:104F1000EE51002600C0F6F2000108EC14F0020188
:104F20000F0EED170A0EED5D02E2300E02D0EE9F7D
:104F3000EE51ED27EDC2F6F2000108EC14F012007C
:104F40005BC0ECF25AC0EBF2660EF66E180EF76E0E
:104F50000E0E0201EF6F000176EC14F0ECC2EDF2E0
:104F6000570E0201EE6F0001C6DF2E0E0201F66F32
:104F7000000108EC14F0EBC2EDF2570E0201EE6FE7
:104F80000001B9DF200E0201F66F000108EC14F0F9
:104F9000560E0201F66F000108EC14F0120059C021
:104FA000ECF258C0EBF27C0EF66E180EF76E0E0E99
:104FB0000201EF6F000176EC14F0ECC2EDF2570E37
:104FC0000201EE6F000197DF2E0E0201F66F000165
:104FD00008EC14F0EBC2EDF2570E0201EE6F000187
:104FE0008ADF200E0201F66F000108EC14F0560E65
:104FF0000201F66F000108EC14F01200320EF66E9A
:10500000180EF76E100E0201EF6F000176EC14F02F
:105010005DC0EDF2370E0201EE6F00016CDF5CC087
:10502000EDF2370E0201EE6F000165DF450EF66E00
:10503000180EF76E050E0201EF6F000176EC14F00A
:1050400012004C0EF66E180EF76E100E0201EF6F86
:10505000000176EC14F05FC0EDF2370E0201EE6F46
:10506000000149DF5EC0EDF2370E0201EE6F000174
:1050700042DF5F0EF66E180EF76E050E0201EF6F3F
:10508000000176EC14F01200DA0EF66E170EF76ED1
:10509000220E0201EF6F000176EC14F032C0EEF246
:1050A0001B0E0201EF6F00010CEC15F0FE0EF66E08
:1050B000170EF76E0A0E0201EF6F000176EC14F086
:1050C00086EF28F0CAEF28F09BEC14F0B80EF66ECD
:1050D000180EF76E40EC14F001DE91DED1DECC0E3E
:1050E000F66E180EF76E40EC14F02ADF58DF8AECEB
:1050F00014F0E60EF66E180EF76E40EC14F07EDF3C
:10510000A0DF8AEC14F090EC14F0BED76F3D01D014
:105110001DD0080EF66E190EF76E2E0E0201EF6FFF
:10512000000176EC14F06FC0EEF21B0E0201EF6F7F
:1051300000010CEC15F0380EF66E190EF76E080E25
:105140000201EF6F000176EC14F006D0420EF66E0D
:10515000190EF76E40EC14F0A20EF66E190EF76EF3
:10516000300E0201EF6F000176EC14F0BDC2EDF2DB
:10517000570E0201EE6F0001BEDE0A0E0201F66F4D
:10518000000108EC14F00D0E0201F66F000108ECAE
:1051900014F098D790EC14F008EF29F0EF5210E0DB
:1051A000EACFECF2E9CFEBF2EFCFF6F208EC14F035
:1051B000ECC2EAFFEBC2E9FFE92AD8B4EA2AEED74B
:1051C000EFEF29F090EC14F0BDD40201E16B000187
:1051D0004BDD012C07D043EC16F090EC14F047ECBB
:1051E00018F00BD1010E0201E16F00013DDD012C31
:1051F00007D09BEC14F090EC14F047EC18F0FDD0C5
:10520000020E0201E16F00012FDD012C06D05CD7F8
:1052100090EC14F047EC18F0F0D0040E0201E16FAE
:10522000000122DD012C06D059DD90EC14F047EC92
:1052300018F0E3D00D0E0201E16F000115DD012C25
:1052400006D0DCDE90EC14F047EC18F0D6D00E0E51
:105250000201E16F000108DD012C06D0F2DE90ECC6
:1052600014F047EC18F0C9D0060E0201E16F0001FE
:10527000FBDC012C06D093DE90EC14F047EC18F028
:10528000BCD0050E0201E16F0001EEDC012C06D05E
:1052900057DE90EC14F047EC18F0AFD00A0E020184
:1052A000E16F0001E1DC012C06D0EADD90EC14F0A6
:1052B00047EC18F0A2D00B0E0201E16F0001D4DC24
:1052C000012C06D09CDD90EC14F047EC18F095D042
:1052D0000F0E0201E16F0001C7DC012C11D05DEC63
:1052E00018F0640E0201F06F000198EC12F0680EE5
:1052F000F66E1C0EF76E40EC14F047EC18F07DD003
:10530000100E0201E16F0001AFDC012C11D0010E83
:10531000736F196AF2BE198EF29E060E03011D6F9D
:1053200000013EEC06F019BEF28E47EC18F065D095
:10533000110E0201E16F000197DC012C10D0736B9C
:10534000196AF2BE198EF29E060E03011D6F00014E
:1053500019EC06F019BEF28E47EC18F04ED0120E82
:105360000201E16F000180DC012C12D0010E726F8E
:10537000196AF2BE198EF29E050E03011D6F00011F
:105380003EEC06F019BEF28E47EC18F036D035D060
:10539000130E0201E16F000167DC012C11D0726B6A
:1053A000196AF2BE198EF29E050E03011D6F0001EF
:1053B00019EC06F019BEF28E47EC18F01ED01DD085
:1053C000720EF66E1C0EF76E0E0E0201EF6F0001EC
:1053D00076EC14F0020EEA6E610EE96EDFD6820EF4
:1053E000F66E1C0EF76E030E0201EF6F000176ECF5
:1053F00014F090EC14F047EC18F0B7EF36F0F86AC0
:10540000D09E078EFE0E006E060E016E020EE96E35
:10541000000EEA6EEE6A002EFDD7012EFBD7600E5D
:10542000D36E9B8C9B9E1A6AB8960C0EAF6EA20E22
:10543000AC6E900EAB6E94869488D20EC86E360E0B
:10544000C66EC580CF0ECB6E060ECA6E9494B76A38
:10545000B66A010EB96E680EBE6E0C0EBD6E02010C
:10546000A36BA26B030EC06F000E7E6EC198C19A33
:105470007F50E00B7F6E799A79987A6A7B6A030E87
:10548000236E230E226E020E0301246FD90E236FAA
:10549000266B256B00011C6A1D6AD09C949A8B9A1E
:1054A000E00E7C6EF19E0400420E006E002EFED7D0
:1054B0000400640E0201F06F000198EC12F0196A0A
:1054C000F2BE198EF29E040E03011D6F00013EEC28
:1054D00006F019BEF28E196AF2BE198EF29E020E05
:1054E00003011D6F00013EEC06F019BEF28E196A31
:1054F000F2BE198EF29E030E03011D6F000119EC1E
:1055000006F019BEF28E929A899A949A8B9A929E7C
:10551000899E929C899C320E0201F06F000198ECEA
:1055200012F0F2CFEBF2F29E010EA96EA69CA69E9F
:10553000A680A8500201EBBFF28E2C6EF2CFEBF2E8
:10554000F29E020EA96EA69CA69EA680A850EBBF56
:10555000F28E2D6ED0500F0BD0A8000ED080D082CE
:10556000D088D886D8880101176F0001B0EC12F0FE
:10557000D9EC12F00400840ED56E8F0ECD6E000EA5
:105580000509CA6E640ECB6EA50EB16E2D3C09D016
:105590000B0E7E6EC198C19A7F50E00B0A097F6E98
:1055A0000AD02D5208E10F0E7E6EC198C19A7F502D
:1055B000E00B0A097F6EC050C00B3009C06EC08E70
:1055C000C280799A7998040E7A6E7B6EB56A800EE5
:1055D000B46EC198C19A020E8D6F650E8C6F020E6B
:1055E0008F6F780E8E6F020E916F810E906F020E8C
:1055F000936FB00E926F020E956FE80E946F020ECD
:10560000976FFA0E966F030E996F730E986F030ED5
:105610009B6F6A0E9A6F030E9D6F570E9C6F030E61
:105620009F6F4E0E9E6F020EA16FE80EA06F020ECE
:10563000A36F8A0EA26F000E016EC250C30B011041
:10564000C26EC2820201EAB104D0EA91C2A2EA812A
:10565000FAD7C2B2FED7C4CFC7F00001C3CFC6F09D
:10566000C751A15D13E303E1A051C65D0FE2949A17
:105670008B9A929E899E929C899C929A899A640E9A
:105680000201F06F000198EC12F0FF00949A8B8AEF
:105690008985A76B7C0EA66FA96B820EA86F010E81
:1056A000AB6F310EAA6F010EAD6F6D0EAC6F010EB8
:1056B000AF6FAA0EAE6F010EB16FC80EB06F020EC3
:1056C000B36F040EB26F690E846FA20E836F090E62
:1056D000826F7E0E816F690E886FA20E876F090E32
:1056E000866F7E0E856F050E01010F6F0D6B000139
:1056F000899F6F6901011495800E046F010E0001EE
:10570000F46FF4C057F0948E948CFB0ED76E1D0E80
:10571000D66EF28A9D809D82FE0EB36ED30EB26E5F
:10572000A0822C5202E19D889D8A9D86F2867D8A08
:10573000C00EF2120201EE6BED6B090EEC6F600E03
:10574000EB6FF26B7A0EF16F120EF06FEF6B0001E0
:105750003EEF13F0010E0201EC6FF40EEB6F00014F
:10576000C9EF13F08991196AF2BE198EF29E070EE5
:1057700003011D6F000119EC06F019BEF28E040042
:10578000190E0201F06F000198EC12F0938C81BCAD
:105790001AD0196AF2BE198EF29E070E03011D6F10
:1057A00000013EEC06F019BEF28E81EC17F0196A8A
:1057B000F2BE198EF29E070E03011D6F000119EC57
:1057C00006F019BEF28E320E0201F06F000198EC65
:1057D00012F0040017C1EBF2F3EF17F09BEC14F09A
:1057E00047EC18F0190E0201F06F000198EC12F06E
:1057F00001011751070806E0175304E00001E0EF2C
:1058000020F00101196AF2BE198EF29E030E030107
:105810001D6F000119EC06F019BEF28E63EF21F046
:1058200070EC21F089917DEF21F033C0BDF259EC8D
:1058300015F032C070F030C071F02FC06FF035C07D
:1058400076F034C075F036C07DF02EC07EF06E6903
:10585000F4C0F5F0F4C057F0020E746F600E010151
:10586000096FB80EF66E1C0EF76E000140EC14F0D6
:105870000FEC16F0050E0101166F0001A2EC21F0ED
:10588000ABEC21F02D3C02D09294898404002EEFE1
:1058900022F024EC20F037EF22F070EC21F0ADC0C4
:1058A000E7F2ACC0E6F2050EAC5D0201E86F000E57
:1058B0000001AD590201E96F00017D53D8A4ABEF9F
:1058C00031F089A50BD046EC22F0010E0201EC6FFD
:1058D000020EED6F00012BEC20F0040089A909D025
:1058E00089A507D08995D40EF66E1C0EF76E40EC94
:1058F00014F089B933D189B531D10E0EF66E1D0E73
:10590000F76E40EC14F07EEC22F02E0EF66E1D0EBB
:10591000F76E40EC14F0640E0201F06F000198EC99
:1059200012F001011481929E898E929C898C020E44
:105930000001F46F230E7E250101126F125315E052
:1059400000017EEC22F00400190E0201F06F00014C
:1059500098EC12F0010E0201EC6F020EED6F0001E7
:105960002BEC20F0899F0101E9D7196AF2BE198E4C
:10597000F29E020E03011D6F00013EEC06F019BEFF
:10598000F28E89A90AD001010E510208D8A002D0D6
:10599000000103D00001D6EC22F001011491320E77
:1059A0000201F06F000198EC12F0929E899E929C89
:1059B000899C04005E0EF66E1D0EF76E40EC14F02E
:1059C000F451020807E0A2EC21F0ABEC21F0010158
:1059D0001483000104008E0EF66E1D0EF76E40EC6F
:1059E00014F07EEC22F0929E899E929C899C01018B
:1059F0001485000145EC17F0960E0201F06F0001CE
:105A000098EC12F0D56ACC6AB36AB26AF29A9D92A7
:105A1000A0929D989D9A9D9601011485196AF2BEE7
:105A2000198EF29E03011D6B000119EC06F019BEE0
:105A3000F28E929E899E929C899C040070C015F102
:105A400040EC23F0640E0201F06F000198EC12F0BC
:105A500089990DC10CF1640E0201F06F000198EC00
:105A600012F001010E6B1553D8B474D0929E899E2A
:105A7000929C899CD3CF00F0D39E030000C0D3FF3B
:105A80000400000146EC22F0196AF2BE198EF29E63
:105A900017EC07F019BEF28E9D51C75D2BE303E1B1
:105AA000C6519C5D27E2010114A302D0000122D05F
:105AB00000018985929E898E0A0E0201F06F000115
:105AC00098EC12F0929C898C58EC23F09D820A0E7F
:105AD0000201F06F000198EC12F08FEC23F0320E0F
:105AE0000201F06F000198EC12F0040095EC23F035
:105AF000D6EC22F089A90AD001010E510208D8A0E3
:105B000002D0000103D00001D6EC22F0928880B8C8
:105B10001FD08985949A8B8A929E898E929C898CBB
:105B200031EC07F058EC23F09D820A0E0201F06F71
:105B3000000198EC12F08FEC23F0640E0201F06F7C
:105B4000000198EC12F0040095EC23F0D6EC22F062
:105B5000010189D700016DD7D6EC22F06E5367E1C1
:105B600001011481929C898C000131EC07F0190E1F
:105B70000201F06F000198EC12F004006E69B20EA1
:105B8000F66E1D0EF76E40EC14F0196AF2BE198E17
:105B9000F29E020E03011D6F00013EEC06F019BEDD
:105BA000F28E196AF2BE198EF29E020E03011D6F6B
:105BB000000119EC06F019BEF28E9BEC23F0196A75
:105BC000F2BE198EF29E020E03011D6F00013EEC23
:105BD00006F019BEF28E0400F40EF66E1D0EF76E7E
:105BE00040EC14F00101126B929C899C000158EC6E
:105BF00023F0929C898C320E0201F06F000198EC28
:105C000012F02A0EF66E1E0EF76E40EC14F0E76BE3
:105C1000E66BE96BE86BEB6BEA6BC76BC66B01017C
:105C20001491320E0201F06F000198EC12F092888C
:105C300080B82ED189A92CD101011653D8B402D035
:105C4000000126D10400190E0201F06F000198EC4A
:105C500012F0928880B802D089B915D0420EF66E43
:105C60001E0EF76E40EC14F00201EC6B250EEB6F8C
:105C7000ECC2EEF2ED6F010EEF6F0001B5EC22F019
:105C800001C02AF014D0928880B811D089A90FD011
:105C90007EEC22F0010E626F8FEC23F00400640EA4
:105CA0000201F06F000198EC12F095EC23F07EEC0D
:105CB00022F06C0EF66E1E0EF76E40EC14F0640EC1
:105CC0000201F06F000198EC12F001011481929C26
:105CD000898C00019BEC23F001011491320E02012A
:105CE000F06F000198EC12F0929E899E929C899C24
:105CF0000400A40EF66E1E0EF76E40EC14F0F45184
:105D0000020807E0A2EC21F0ABEC21F001011483C2
:105D100000010400DC0EF66E1E0EF76E40EC14F06F
:105D20007EEC22F0929E899E929C899C01011485B2
:105D3000000145EC17F0960E0201F06F000198EC9F
:105D400012F0D56ACC6AB36AB26AF29A9D92A092B6
:105D50009D989D9A9D9601011485196AF2BE198E2F
:105D6000F29E03011D6B000119EC06F019BEF28EC4
:105D7000929E899E929C899C040070C015F140EC13
:105D800023F0640E0201F06F000198EC12F0899983
:105D90000DC10CF1640E0201F06F000198EC12F0DD
:105DA0000101155371E0929E899E929C899CD3CFEC
:105DB00000F0D39E030000C0D3FF0400000146ECB6
:105DC00022F0196AF2BE198EF29E17EC07F019BE86
:105DD000F28E9D51C75D2BE303E1C6519C5D27E226
:105DE000010114A302D0000122D000018985929EF6
:105DF000898E0A0E0201F06F000198EC12F0929C5D
:105E0000898C58EC23F09D820A0E0201F06F00018C
:105E100098EC12F08FEC23F0320E0201F06F0001CB
:105E200098EC12F0040095EC23F0D6EC22F089A94E
:105E300002D0D6EC22F0928880B825D08985949A39
:105E40008B8A929E898E929C898C31EC07F058EC5B
:105E500023F00A0E0201F06F000198EC12F09D820F
:105E60000A0E0201F06F000198EC12F08FEC23F0A3
:105E7000640E0201F06F000198EC12F0040095EC42
:105E800023F0D6EC22F08CD7000172D7D6EC22F0AA
:105E9000B951915DD8A01BD104E19051B85DD8B043
:105EA00016D1F4510208D8A412D189A910D1010148
:105EB0000B5306E10A510E08D8A002D0000107D109
:105EC0001653D8B402D0000102D1000EF66E1F0E98
:105ED000F76E000140EC14F001011481929C898C52
:105EE00000019BEC23F001011491320E0201F06FCE
:105EF000000198EC12F00400300EF66E1F0EF76EE3
:105F000040EC14F00400600EF66E1F0EF76E40ECCD
:105F100014F07EEC22F0929E899E929C899C640EE5
:105F20000201F06F000198EC12F0196AF2BE198EAE
:105F3000F29E17EC07F019BEF28E9D51C75D21E36A
:105F400003E1C6519C5D1DE28985949A8B8A929EDD
:105F5000898E929C898C58EC23F09D820A0E020156
:105F6000F06F000198EC12F08FEC23F0320E02017A
:105F7000F06F000198EC12F0040095EC23F0D6ECE1
:105F800022F001011485000145EC17F0960E020184
:105F9000F06F000198EC12F0D56ACC6AB36AB26A6D
:105FA000F29A9D92A0929D989D9A9D9601011485CA
:105FB000196AF2BE198EF29E03011D6B000119ECE5
:105FC00006F019BEF28E929E899E929C899C0400D6
:105FD00070C015F140EC23F0640E0201F06F000177
:105FE00098EC12F089990DC10CF1640E0201F06F6A
:105FF000000198EC12F00101155367E0929E899E12
:10600000929C899CD3CF00F0D39E030000C0D3FFA5
:106010000400000146EC22F0196AF2BE198EF29ECD
:1060200017EC07F019BEF28E9D51C75D27E303E11F
:10603000C6519C5D23E2010114A302D000011ED0D1
:1060400000018985949A8B8A929E898E929C898C74
:1060500058EC23F09D820A0E0201F06F000198ECCB
:1060600012F08FEC23F0320E0201F06F000198EC79
:1060700012F0040095EC23F0D6EC22F089A902D0AE
:10608000D6EC22F0928880B81FD08985949A8B8AAA
:10609000929E898E929C898C31EC07F058EC23F00B
:1060A0009D820A0E0201F06F000198EC12F08FEC55
:1060B00023F0640E0201F06F000198EC12F004006E
:1060C00095EC23F0D6EC22F096D700017CD7F45162
:1060D000020821E189A91FD001010B5306E10A51F1
:1060E0000F08D8A002D0000116D000016F3D01D0EA
:1060F00012D089BF10D001011653D8B402D00001CC
:106100000AD00F0E00016F5D0101136F0001898F2E
:106110007EEC22F013D0F42D11D089A90FD001010B
:106120000A53D8B402D0000109D00B53D8B402D01E
:10613000000104D00001899F7EEC22F0010113537D
:10614000D8A40AD1000189BF02D0010105D1010103
:106150000B5304E10A510F08D8B0FED0840EF66E3E
:106160001F0EF76E000140EC14F001011481929CA7
:10617000898C00019BEC23F001011491320E020185
:10618000F06F000198EC12F00400AE0EF66E1F0ED8
:10619000F76E40EC14F00101126B0400DC0EF66E99
:1061A0001F0EF76E000140EC14F07EEC22F0929E80
:1061B000899E929C899C640E0201F06F000198EC0C
:1061C00012F0196AF2BE198EF29E17EC07F019BE92
:1061D000F28E9D51C75D21E303E1C6519C5D1DE236
:1061E0008985949A8B8A929E898E929C898C58EC90
:1061F00023F09D820A0E0201F06F000198EC12F06C
:106200008FEC23F0320E0201F06F000198EC12F0D7
:10621000040095EC23F0D6EC22F001011485000176
:1062200045EC17F0960E0201F06F000198EC12F0A9
:10623000D56ACC6AB36AB26AF29A9D92A0929D988E
:106240009D9A9D9601011485000145EC17F0929EE0
:10625000899E929C899C040070C015F140EC23F04B
:10626000640E0201F06F000198EC12F089990DC1E3
:106270000CF1640E0201F06F000198EC12F00101C4
:10628000155367E0929E899E929C899CD3CF00F023
:10629000D39E030000C0D3FF0400000146EC22F0AF
:1062A000196AF2BE198EF29E17EC07F019BEF28E33
:1062B0009D51C75D27E303E1C6519C5D23E20101C7
:1062C00014A302D000011ED000018985949A8B8A04
:1062D000929E898E929C898C58EC23F09D820A0EA6
