:0408000082EF2AF069
:08080800046ED8CF05F0E0CF2B
:1008100006F00001E9CF0CF0EACF07F0E1CF08F0D5
:10082000E2CF09F0D9CF0AF0DACF0BF0F3CF12F014
:10083000F4CF13F0FACF14F0F5CF15F0F6CF16F091
:10084000F7CF17F000C00EF001C00FF002C010F09B
:1008500003C011F09DA630EF04F09EB6A4EF07F0A0
:10086000A0A236EF04F0A1B20FEF0DF09DA03CEF77
:1008700004F09EB0D0EF05F09DAA42EF04F09EBABE
:100880001EEF05F09DA848EF04F09EB8F9EF04F0C4
:10089000F2AA4EEF04F0F2B4BCEF0CF09DA254EFBC
:1008A00004F09EB2D4EF0CF0F2A65AEF04F0F2B0CE
:1008B000D8EF0CF00EC000F00FC001F010C002F035
:1008C00011C003F00CC0E9FF07C0EAFF078E08C0A3
:1008D000E1FF09C0E2FF0AC0D9FF0BC0DAFF12C076
:1008E000F3FF13C0F4FF14C0FAFF15C0F5FF16C0E4
:1008F000F6FF17C0F7FF045006C0E0FF05C0D8FFA1
:100900001000F36ED890F734F66EF746010EF71626
:10091000320EF626090EF7220900F5500900F626D8
:10092000F550F722F350F626000EF7220900F55095
:10093000120026002D0034003A003F004100440020
:10094000470051005C00620066006A006F007200A0
:10095000750079007F0086008D0040464143544F6A
:100960005259004056455253494F4E00405354414E
:100970005455530040414E544D500040504D00409E
:1009800052504900404241540040505752494E464F
:100990004F204F4E0040505752494E464F204F4631
:1009A0004600404C5052535441004054494D45007C
:1009B0004044415445004052544343460040414462
:1009C00031004041443200404245455000405245CC
:1009D00044204F4E0040524544204F46460040427E
:1009E0004C5545204F4E0040424C5545204F464601
:1009F00000000101B651B55D10E0036AB651350F34
:100A0000E96E010E0320EA6EEFCFF2F2F2C2ADFF03
:100A1000010EB6257F0BB66F01D09D989E98000100
:100A20005AEF04F09EAAFED7ABCF1AF0AECF01F07A
:100A30001AA202D0AB98AB882CEF05F0036A020132
:100A40003751B70FE96E010E0320EA6EEACFF6F2D6
:100A5000E9CFF5F20001E6D7F6C2EAFFF5C2E9FFF9
:100A600001C0EFFF37C2F2F2010E020137257F0B02
:100A7000376F3851375D02E1F2C237F29E9A0001BA
:100A80005AEF04F00A0D555053205049636F20521D
:100A900054432054696D653A253032753A25303219
:100AA000753A253032750A0D00000A0D5555505320
:100AB000205049636F2052544320446174653A25A5
:100AC00030344C753A253032753A253032750A0D7E
:100AD00000004C6F7720506F7765722052657374F9
:100AE0006172742054696D6528204C5052535441F2
:100AF000202969732575207365636F6E64730A0D11
:100B000000000201F339006E0F0E001600500A0DAE
:100B1000F3CFF4F2F3510F0BF425016E0001120034
:100B20000201F251060804E3F22BF2C201F007D0F1
:100B3000F251070804E1010EF26FF2C201F0000168
:100B400043EF07F00201F551016AF45D03E2F4C2DC
:100B500000F00CD0006A080EF66FF4370036F5513D
:100B6000005CD8B0006E0136F62FF7D700011200F6
:100B7000F2C2F4F20A0E0201F56F0001E3DF013860
:100B80000201F36FF00EF317F2C2F4F20A0EF56FE2
:100B90000001D8DF00500201F325016E00011200B0
:100BA000CEA0FED7CE500101336FCFCF34F102017A
:100BB0008A5310E133C1F2F2800E010134250201A3
:100BC000F36F020EF25F000EF35BF3C2CFFFF2C2CF
:100BD000CEFF31D08A51000817E28A51800814E311
:100BE00033C1F2F2800E010134250201F36F8A5104
:100BF000F227000EF323020EF25F000EF35BF3C246
:100C0000CFFFF2C2CEFF17D08A51800814E233C161
:100C1000F2F2800E010134250201F36F800E8A5D2D
:100C2000F25F000EF35B020EF25F000EF35BF3C2A5
:100C3000CFFFF2C2CEFF01012FAB42D002018351A0
:100C40007F0BF26FF36F00015CDF01C07AF20201EB
:100C500084517F0BF26FF36F000153DF01C07BF211
:100C6000020185513F0BF26FF36F00014ADF01C0B3
:100C70007CF202018651070BF26FF36F000141DF36
:100C800001C07DF2020187513F0BF26FF36F00014B
:100C900038DF01C07EF2020188511F0BF26FF36F43
:100CA00000012FDF01C07FF2020189517F0BF26F3B
:100CB000F36F000126DF01C080F201012F9B35D1C7
:100CC0002FBB03D002017A2B01011451155D04E101
:100CD000000191990AD001011451155D05E0000150
:100CE00091890101156B162B000115C114F1010149
:100CF0001CA501D0A9D02FA359D0255302E126531A
:100D000047E02551275D44E12651285D41E12F95BB
:100D10002E0E326FE00E316F315302E1325304E098
:100D20002FB701D001D0F8D70201F36B2A0EF26F72
:100D3000F3C2F5F2F2C2F4F2020EF66FF4C2E9FF6A
:100D4000F5C2EAFFFA6BF96BECCFF8F2ED52EFCF98
:100D5000F7F2020EF425E96E000EF521EA6EEFCFF0
:100D6000FCFFF65302E1010EF66FF6C224F0030E0B
:100D7000F425E96E000EF521EA6EEFCFE0FFF8C230
:100D8000FAFFF7C2E8FFF96E01C02FF010D00101A1
:100D9000255302E126530AE02551275D03E1265140
:100DA000285D04E026C128F125C127F102010001D8
:100DB000852D0BD0FC51020808E101012153D8A474
:100DC00002D0000102D021070001FE5302E0FE071D
:100DD00005D0FE5303E101011C8B0001763D01D0DB
:100DE00003D0765301E076070101175307E00001B5
:100DF00091BB02D0010102D0010117070001FC5193
:100E0000020808E191A906D00101122BD8B4132BD6
:100E100009D00001FC51020806E091A904D00101AB
:100E2000136B126B00010101205301E020071CB776
:100E300001D01C87000191AF08D001011B53D8A439
:100E400002D0000102D01B07000101011D5301E087
:100E50001D071E5301E01E071A5301E01A07020185
:100E60007A513C083DE17B2B7A6B7B513C0838E1A1
:100E70007C2B7B6B7C51180833E17E2B7C6B7DC215
:100E8000F2F200014DD601C07DF202017E511D0833
:100E900006E17F51020803E18051030B18E17E5106
:100EA0001E0803E17F51020812E07E511F080CE189
:100EB0007F5104080CE07F51060809E07F510908C2
:100EC00006E07F510B0803E07E51200803E17F2BF1
:100ED000010E7E6F7F510D0803E1802B010E7F6FA5
:100EE0007AC2F2F2000144DE01C083F27BC2F2F268
:100EF0003FDE01C084F27CC2F2F23ADE01C085F22C
:100F00007DC2F2F235DE01C086F27EC2F2F230DE40
:100F100001C087F27FC2F2F22BDE01C088F280C2EC
:100F2000F2F226DE01C089F201019E9000015AEF23
:100F300004F0C950F5C2C9FFC6889E96C7B0FED757
:100F4000016AC6B8012A120001012F87C7BA04D06E
:100F500002018D6BC7B48D8F02018D518D2BF36F04
:100F60002A0E006E002EFED70000F3518008D8A094
:100F70006ED0F351800803E1C9CFF2F206D0C69CCF
:100F80009EA6FED7C950C688F26FF35303E0F35113
:100F9000800803E1F2C28CF25AD0F32D03D0F2C2E2
:100FA00081F255D0F351010852E2F35180084FE02D
:100FB0008C51D00818E1815107080AE38151812B37
:100FC000036A830FE96E020E0320EA6EF2C2EFFF9E
:100FD0008151070808E1800ECF6ECE6A01012F8B88
:100FE000020E0201826F8C51D2080EE1815111086C
:100FF0000AE38151812B036A5C0FE96E000E032026
:10100000EA6EF2C2EFFF23D08C51D4080EE1815179
:1010100008080AE38151812B036A830FE96E020EEF
:101020000320EA6EF2C2EFFF12D08C51D6080EE117
:10103000815119080AE38151812B036A6E0FE96E11
:10104000000E0320EA6EF2C2EFFF01D00000F35160
:101050007F08D8B09BD0F351800802E1C9CFF2F2EB
:101060008C51D10819E1815108080EE38151812B7F
:10107000036A830FE96E020E0320EA6EEFCFF5F2EA
:10108000000157DF08D002018151080805E2F56927
:1010900000014FDF000002018C51D3081AE1815199
:1010A00011080EE38151812B036A5C0FE96E000E7B
:1010B0000320EA6EEFCFF5F200013BDF08D002011A
:1010C0008151110805E2F569000133DF00000201DA
:1010D0005DD08C51D5081AE1815108080EE3815189
:1010E000812B036A830FE96E020E0320EA6EEFCFB5
:1010F000F5F200011EDF08D002018151080805E267
:10110000F569000116DF0000020140D08C51D708BC
:101110001AE1815119080EE38151812B036A6E0F88
:10112000E96E000E0320EA6EEFCFF5F2000101DF59
:1011300008D002018151190805E2F5690001F9DEC4
:101140000000020123D08C51D90806E1F5690001A5
:10115000F0DE00001AD002018C51DB0806E1F569CF
:101160000001E7DE000011D002018C51DD0806E12C
:10117000F5690001DEDE000008D002018C51DF08B5
:1011800005E1F5690001D5DE00000201835159082F
:1011900002E27AC283F28451590802E27BC284F2ED
:1011A0008551230802E27CC285F28651070802E2DB
:1011B0007DC286F28751310802E27EC287F28851F1
:1011C000120802E27FC288F28951990802E280C2C5
:1011D00089F201012F9700009E9600015AEF04F05A
:1011E0000A0D49324320616464726573732053654C
:1011F0006C65637465643A004932435F4E4F524DEB
:10120000414C0A0D00004932435F4D494E494D4162
:101210004C0A0D004932435F4E4F5254430A0D00B1
:101220004932435F4D494E494D414C0A0D000A0D6C
:10123000555053205049636F2052455354415254E6
:101240002043415553453A20000052455345545FD1
:10125000494E535452554354494F4E005744545FDE
:1012600046524F4D5F534C45455000005744545F24
:1012700054494D454F5554004D434C525F46524FD3
:101280004D5F534C454550004E4F524D414C5F50C1
:101290004F5745525F55500042524F574E4F55548D
:1012A0005F5245535441525400004D434C525F46E7
:1012B000524F4D5F52554E00554E4B4E4F574E209C
:1012C000524541534F4E00000A0D426174746572DD
:1012D000792043686172676572204F4E00000A0DE5
:1012E0004261747465727920436861726765722027
:1012F0004F4646000A0D2D2D2D2D2D2D2D2D2D2D3A
:101300002D2D2D2D2D2D2D2D2D2D2D2D0A0D0000AA
:101310000A0D506F776572696E6720536F7572633F
:10132000653A0000424154004C505200525049006E
:10133000554E4B4E4F5700000A0D412F4431205659
:10134000616C75652069733A254C58205B6D565D5C
:1013500000000A0D412F44322056616C75652069EA
:10136000733A254C58205B6D565D00000A0D5250B3
:101370006920566F6C746167653A25782E25782050
:1013800056000A0D42415420566F6C746167653AED
:1013900025782E25782056000A0D577269747469D5
:1013A0006E6720536574757020746F2055505320FC
:1013B0005049636F20454550524F4D0A0D000A0DAC
:1013C0000A0D2D2D2D2D2D2D2D2D2D2D2D2D2D2D90
:1013D0002D2D2D2D2D2D2D2D0A0D7777772E706922
:1013E0006D6F64756C65732E636F6D000A0D5550DB
:1013F00053205049636F20486172647761726520A1
:1014000052656C656173653A2056312E3030202567
:1014100063000A0D555053205049636F2048617294
:1014200064776172652052656C656173653A205618
:10143000312E3130202563000A0D5550532050497C
:10144000636F2048617264776172652052656C65D4
:101450006173653A2056312E3131202563000A0D23
:10146000555053205049636F204861726477617210
:10147000652052656C656173653A2056312E3220C5
:10148000256300000A0D556E6B6E6F776E205479E0
:1014900070653A25630A0D000A0D4669726D776121
:1014A00072652052656C656173653A20562573003C
:1014B000312E302058424D432032362E30312E32DC
:1014C00030313620307835390000466163746F72F0
:1014D000792044656661756C747320536574746912
:1014E0006E672075702050726F6365647572650A4F
:1014F0000D000A0D45726173696E672055505320C7
:101500005049636F20696E7465726E616C20454549
:1015100050524F4D00000A0D454550524F4D204549
:101520007261736564000A0D466163746F7279209D
:101530004C6F7720506F77657220526573746172BB
:10154000742054696D652069733A202575205365B0
:10155000636F6E6473000A0D466163746F72792065
:10156000426174746572792052756E6E696E67207F
:1015700054696D652069732073657420746F3A2017
:101580002575207365636F6E647300000A0D4361F7
:10159000626C6520506F7765722052657475726E4B
:1015A0002074657374696E672074696D656F7574F6
:1015B0002073657420746F3A202575205365636F1E
:1015C0006E6473000A0D5374696C6C20416C69760B
:1015D000652054696D657220686173206265656E6F
:1015E0002064697361626C6564000A0D53657474EC
:1015F000696E672075702052544300000A0D4661E1
:1016000063746F72792053657475702059656172C7
:101610003A323030300A0D466163746F727920536C
:1016200065747570204D6F6E74683A30310A0D46DE
:101630006163746F727920536574757020446F779D
:101640003A30310A0D466163746F727920536574C4
:101650007570204461793A3031000A0D5265616C31
:101660002054696D6520436C6F636B20436F727209
:10167000656374696F6E20466163746F7220736571
:101680007420746F2030205365636F6E64730000A4
:101690000A0D58424D432046756E6374696F6E6142
:1016A0006C69747920686173206265656E20646975
:1016B0007361626C656400000A0D46535344205404
:1016C000696D656F75742053657420746F2025757E
:1016D000205365636F6E647300000A0D54656D706E
:1016E00065726174757220544F2D39322053656EC6
:1016F000736F72206973204E4F5420696E7374614A
:101700006C6C656400000A0D546865205049636F75
:101710002053657269616C20506F72742069732068
:1017200064697361626C65642028617661696C61CB
:10173000626C652920666F72206F74686572205232
:101740006173706265727279205069206170706C8B
:1017500069636174696F6E7300000A0D525443200F
:1017600073657420746F2044656661756C74000045
:10177000020E0201F25F0CE3020EEA6EF20EE96E57
:10178000EF5006E003D000D000D00000EF2EFBD7D2
:101790000001120093948A9493928A92010E02019E
:1017A000F66FF65108081AE3F5C203F0F4C2E9FF38
:1017B000F5C2EAFFEF50800B03E193908A9002D0CC
:1017C00093908A80F5C2EAFFF4C2E9FFD890EF3621
:1017D00093948A8493948A94F62BE3D793928A8283
:1017E00093928A9200011200010E006E0201F251E2
:1017F000016E04E0D8900036012EFCD70050FF0A9D
:101800001B161BC0F3F2020EF56FF30EF46F00010E
:10181000C1DF12000B0E0101196FC80E0201F26F39
:101820000001A6DF030E0201F26F0001DDDF1200EE
:10183000010E006E0201F251016E04E0D8900036F4
:10184000012EFCD700501B121BC0F3F2020EF56FE5
:10185000F30EF46F00019EDF12000B0E0101196FF1
:10186000C80E0201F26F000183DFCF51A35D09E3CF
:1018700003E1A251CE5D05E2030E0201F26F000109
:10188000B3DFA151CF5D09E303E1CE51A05D05E2D5
:10189000030E0201F26F0001CBDF120001012FAF36
:1018A00006D00001DADF01012F9F05D004D000012E
:1018B000B1DF01012F8F00019BEF0CF001011CA58E
:1018C00004D00001A7DF3BD0010100017D2D01D034
:1018D00003D07D51100830E17E5109E0010A09E092
:1018E000030A09E0010A16E0070A16E024D092DF95
:1018F00022D0B3DF20D002019451030805E2000199
:10190000ACDF0201946B03D0000184DF0201942B51
:10191000000111D0C3D70FD002019451030805E292
:10192000000178DF0201946B03D0000196DF020111
:10193000942B000100D003D07D5301E16BDFC6EF93
:101940000CF0E85302E0E80707D00201F26B000157
:101950004BDFEB5301E0EB076F530CE1E95302E07F
:10196000E90708D0010E0201F26F00013DDFEC53E0
:1019700001E0EC07CDEF0CF0F60ED76E3B0ED66E05
:1019800001010C5301E00C07000198D702019553A7
:1019900002E0950705D00001D4D70A0E0201956F29
:1019A000F29400015AEF04F000009E925AEF04F006
:1019B000936881CFF2F2000E020196BB010EF36F25
:1019C000000EF2BB010EF35D05E00101152BF2C222
:1019D00096F202010000F29000015AEF04F0000EAE
:1019E000016EC250C30B0110C26EC2820201F3919C
:1019F000C2A2F381F3B104D0F391C2A2F381FAD76A
:101A0000C2B2FED7C4CFCFF00001C3CFCEF01200D8
:101A1000919D929A899A0101249300011200FE0E71
:101A2000B36ED30EB26E852D01D0918901011CA138
:101A300001D0BFD000019183D2DF91A509D0949A43
:101A40008B8A929E898E929C898C0101B2D0000172
:101A50000101025302E1035304E00251D8B4030729
:101A60000207185322E018070001CF51A55D1EE3BD
:101A700003E1CE51A45D1AE3FC2D18D091A916D034
:101A8000949A8B8A929E898E929C898CC1DF020ED9
:101A9000FC6FFCC05CF079C0FEF0030E0101036F27
:101AA000E80E026F3C0E216F84D000010101195332
:101AB00022E019070001CF51A55D1EE303E1CE51DD
:101AC000A45D1AE3FC2D18D091A916D0949A8B8AA4
:101AD000929E898E929C898C9BDF020EFC6FFCC0CB
:101AE0005CF079C0FEF0030E0101036FE80E026F97
:101AF0003C0E216F5ED00001FC2D5CD091A95AD024
:101B000001010253D8B402D0000154D00353D8B419
:101B100002D000014FD01853D8B402D000014AD0EF
:101B20001953D8B402D0000145D0F1C0EFF0F0C095
:101B3000EEF0F3C0F1F0F2C0F0F0CFC0F3F0CEC0A1
:101B4000F2F00F0E0001F025016E000EF121036E80
:101B50000350EF5D11E303E1EE51015C0DE20F0E66
:101B6000F225016E000EF321036E0350F15D04E3D4
:101B70000AE1F051015C07E3CF51A55D1BE303E1EE
:101B8000CE51A45D17E3949A8B8A929E898E929C83
:101B9000898C3EDF020EFC6FFCC05CF079C0FEF069
:101BA000050EFF6F030E0101036FE80E026F3C0E7E
:101BB000216F000101010C5338E10001FC2D01D01F
:101BC00002D0010132D00C0E016EC250C30B0110C5
:101BD000C26EC2820201F291C2A2F281F2B104D0BD
:101BE000F291C2A2F281FAD7C2B2FED7C4CF05F1F8
:101BF0000101C3CF04F1080E016EC250C30B0110E6
:101C0000C26EC2820201F291C2A2F281F2B104D08C
:101C1000F291C2A2F281FAD7C2B2FED7C4CF07F1C5
:101C20000101C3CF06F1800E0C6F0000A1920001EC
:101C30005AEF04F00A0D555053205049636F20535A
:101C400074617475730A0D000A0D417665726167DF
:101C50006520506F776572696E672056616C756597
:101C600073000A0D416E616C6F672F446967697478
:101C7000616C20436F6E7665727465722056616C7C
:101C8000756573000A0D46696C65205361666520B1
:101C900053687574646F776E207768656E20506F37
:101CA000776572206C6F6F73652054696D6520696C
:101CB000733A2575205365636F6E647300000A0DD7
:101CC00046696C6520536166652053687574646F5E
:101CD000776E207768656E20506F776572206C6F25
:101CE0006F73652054696D6572206973204F464695
:101CF0002C20555053205049636F2077696C6C201D
:101D0000776F726B20756E74696C20626174746594
:101D100072792064697363686172676564000A0D93
:101D20005265616C2054696D6520436C6F636B2054
:101D3000436F7272656374696F6E20466163746F7E
:101D4000722076616C75652069733A203078257849
:101D50000A0D00000A0D555053205049636F20466C
:101D60006163746F72792053657475702052657168
:101D70007565737465640A0D00000A0D426565702F
:101D80000A0D00000A0D42616420436F6D6D616EA3
:101D9000643A2573200A0D000A0D5175697474693F
:101DA0006E672066726F6D2046535344204C50522C
:101DB00000000A0D5254432073657420746F204450
:101DC000656661756C7400000A0D555053205049CA
:101DD000636F2053797374656D20537461727465F9
:101DE00064000A0D526173706265727279205069E5
:101DF0002069732072756E6E6E67202D20626F6F82
:101E000074696E672070726F74656374696F6E2099
:101E100064697361626C65640A0D00000A0D5261A9
:101E200073706265727279205069206973204E4F19
:101E3000542072756E6E696E670A0D000A0D52614C
:101E4000737062657272792050692053687574747A
:101E5000696E6720646F776E2068617320626565C4
:101E60006E20646574656374656400000A0D5261D8
:101E7000737062657272792050692053687574744A
:101E8000696E6720646F776E206861732062656594
:101E90006E20636F6D706C65746564000A0D55503B
:101EA00053205049636F2053797374656D20456EDC
:101EB000746572696E67204C5052204D6F646500E6
:101EC0000A0D5374696C6C20416C69766520546905
:101ED0006D657220726561636865732030302C20F7
:101EE000555053205049636F204653534420686136
:101EF00073206265656E20696E69746961746564DA
:101F000000000A0D5374696C6C20416C6976652081
:101F100054696D657220555053205049636F2046B7
:101F200053534420686173206265656E20636F6D52
:101F3000706C6574656400000A0D5265737461729B
:101F400074696E67207468652073797374656D00B9
:101F50000A0D4653534420427574746F6E205072BC
:101F6000657373656420555053205049636F204654
:101F700053534420686173206265656E20696E6901
:101F800074696174656400000A0D4653534420422D
:101F90007574746F6E20507265737365642055504C
:101FA00053205049636F2046535344206861732087
:101FB0006265656E20636F6D706C657465640000AA
:101FC0000A0D555053205049636F2053797374653F
:101FD0006D20456E746572696E67204C5052204DBD
:101FE0006F6465000A0D4C6F7720426174746572EE
:101FF0007920555053205049636F20465353442055
:10200000686173206265656E20696E6974696174C8
:10201000656400000A0D4C6F77204261747465722C
:102020007920555053205049636F20465353442024
:10203000686173206265656E20636F6D706C657496
:10204000656400000A0D555053205049636F2053BA
:10205000797374656D20456E746572696E67204C86
:102060005052204D6F6465000A0D54696D656420FF
:102070004653534420555053205049636F206861A4
:1020800073206265656E20696E6974696174656448
:1020900000000A0D54696D65642046535344205571
:1020A0005053205049636F20465353442068617356
:1020B000206265656E20636F6D706C657465640089
:1020C0000A0D555053205049636F2053797374653E
:1020D0006D20456E746572696E67204C5052204DBC
:1020E0006F6465000A0D2058424D432054696D65A8
:1020F00064204653534420555053205049636F2069
:10210000686173206265656E20696E6974696174C7
:10211000656400000A0D2058424D432054696D65E6
:1021200064204653534420555053205049636F2038
:102130004653534420686173206265656E20636F67
:102140006D706C65746564000A0D555053205049DC
:10215000636F2053797374656D20456E7465726981
:102160006E67204C5052204D6F6465000A0D4E651D
:1021700077202575207365636F6E6473206F66200A
:102180004C505253544120686173206265656E2043
:102190007772697474656E20746F20746865205559
:1021A0005053205049636F20454550524F4D0A0D02
:1021B00000000A0D4E657720257520584D424320BA
:1021C00073657474696E6720686173206265656EFB
:1021D000207772697474656E20746F20746865204E
:1021E000555053205049636F20454550524F4D0A7A
:1021F0000D000A0D4E6577202575207365636F6E9F
:1022000064732046535344204241542072756E6ECD
:10221000696E672054696D65206861732062656529
:102220006E207772697474656E20746F20746865AF
:1022300020555053205049636F20454550524F4D13
:102240000A0D00000A0D4E65772025752073656321
:102250006F6E647320465353442074696D656F75C7
:102260007420686173206265656E2077726974748A
:10227000656E20746F207468652055505320504956
:10228000636F20454550524F4D0A0D000A0D4661BF
:102290006E2053706565643A20257520686173204F
:1022A0006265656E207772697474656E20746F2044
:1022B00074686520555053205049636F2045455040
:1022C000524F4D0A0D000A0D6E657720525443435C
:1022D00046203A20257520686173206265656E206E
:1022E0007772697474656E20746F20746865205508
:1022F0005053205049636F20454550524F4D0A0DB1
:1023000000000A0D555053205049636F20544F2D43
:1023100039322074656D70657261747572652073F1
:10232000656E736F7220697320676F696E672074C2
:102330006F2062652044697361626C65640A0D00F8
:102340000A0D555053205049636F20544F2D393298
:102350002074656D70657261747572652073656E49
:10236000736F7220697320676F696E6720746F20C6
:10237000626520456E61626C656400000A0D55500F
:1023800053205049636F20525332333220676F69B4
:102390006E6720746F2062652064697361626C658A
:1023A000640A0D000A0D555053205049636F2052A6
:1023B0005332333220676F696E6720686173206221
:1023C00065656E20656E61626C6564000A0D55502E
:1023D00053205049636F20556E636F6E6469746952
:1023E0006F6E616C2046535344205265717565735E
:1023F0007465640A0D000A0D555053205049636FEF
:1024000020556E636F6E646974696F6E616C2046EF
:1024100053534420686173206265656E20696E695C
:1024200074696174656400000A0D55505320504969
:10243000636F20556E636F6E646974696F6E616C53
:10244000204653534420686173206265656E2063A3
:102450006F6D706C6574656400000A0D55505320F3
:102460005049636F2053797374656D20456E7465B0
:1024700072696E67204C5052204D6F6465000A0DE2
:10248000555053205049636F20466163746F7279D1
:102490002053657475702052657175657374656439
:1024A0000A0D00000A0D555053205049636F205209
:1024B00065736574205265717565737465640A0D82
:1024C00000000A0D555053205049636F20426F6F32
:1024D000746C6F61646572205265717565737465A3
:1024E000640A0D000A0D4856312E30207265636F64
:1024F000676E697A65640A0D00000A0D4856312E30
:1025000031207265636F676E697A65640A0D000039
:102510000A0D4856312E3131207265636F676E693E
:102520007A65640A0D000A0D4856312E3220726514
:10253000636F676E697A65640A0D00000A0D555075
:1025400053205049636F20493243206861732062F1
:1025500065656E2073657420746F204932435F4E49
:102560004F524D414C202D20726573657474696E15
:10257000670A0D000A0D555053205049636F2049DA
:10258000324320686173206265656E207365742034
:10259000746F204932435F4D494E494D414C202DC7
:1025A00020726573657474696E670A0D00000A0D08
:1025B000555053205049636F20493243206861735E
:1025C000206265656E2073657420746F2049324304
:1025D0005F4E4F525443202D2072657365747469A9
:1025E0006E670A0D00000A0D555053205049636F65
:1025F0002052544320686173206265656E207570B7
:1026000064617465642066726F6D2F746F207468E6
:10261000652052506900F2CFC4F2F29EA96AA69CCE
:10262000A69EA680A8500201C4BFF28E306E305024
:10263000A00A000105E0010A08E0030A0BE00FD040
:10264000F00E776ED00EC86E0ED0F80E776ED00EEC
:10265000C86E09D0FA0E776ED20EC86E04D0F80E8E
:10266000776ED00EC86E1200F00EBD1694948B9447
:102670001200020EEA6EC60EE96EEF500DE00A0E71
:10268000016E006A002EFED7012EFBD75F0E006E92
:10269000002EFED7EF2EF3D71200D8B204D0020ED0
:1026A000EA6ED70EE96E006A016A026A036A0201E5
:1026B000D76BD86BD96BDA6BD651D511D411D31136
:1026C0002CE0200EDB6FD890CF37D037D137D23700
:1026D000D737D837D937DA37D651DA5D08E1D5514F
:1026E000D95D05E1D451D85D02E1D351D75D0FE347
:1026F000D351D75FD451D8A0D43DD85FD551D8A0FD
:10270000D53DD95FD651D8A0D63DDA5FD880003606
:10271000013602360336DB2FD6D7D7C2EFFFD8C239
:10272000ECFFD9C2ECFFDAC2ECFF00011200C8C214
:10273000D2F2C7C2D1F2C6C2D0F2C5C2CFF2C4C271
:10274000D6F2C3C2D5F2C2C2D4F2C1C2D3F2A5DF5F
:10275000025004E1015002E100502EE103C0D2F228
:1027600002C0D1F201C0D0F200C0CFF20201D66B9C
:10277000D56BD46B040ED36F00018FDF025004E1E0
:10278000015002E100501BE103C0D2F202C0D1F2BD
:1027900001C0D0F200C0CFF20201D66BD56BD46B72
:1027A000040ED36F000179DF025004E1015002E111
:1027B000005008E1006A06D0040ECA6E05D0050E6E
:1027C000CA6E02D0060ECA6E000600C0CBFF4AEFEA
:1027D0002CF00201D36BD46B010ED56FDA6AD96A83
:1027E000020ED86FCB0ED76F020EEA6ECF0EE96ED7
:1027F000D8C2E2FFD7C2E1FFD5C2D6F2D890E550E9
:10280000EE02F350D323F450D423D62FF7D7D3C2FC
:10281000DEFFD4C2D3F2D46BD8B0D42BD72BD8B42C
:10282000D82BD52BD5510508DFE100011200CBCF05
:10283000C3F20201C46BC32BD8B4C42BD890C337E6
:10284000C437C337C437CE6BCD6BC4C2CCF2C3C25E
:10285000CBF2D26BD16BC2C2D0F2C1C2CFF20001B7
:10286000B8DF03C0D2F202C0D1F201C0D0F200C082
:10287000CFF20201D66BD56B030ED46FE80ED36F87
:1028800000010BDF00C002F00132003201320032E1
:1028900000C0BEFF0236023602360236CF0EBD162B
:1028A000300E0214BD1252EF2CF0313C01D022D078
:1028B0000201CD910101B651B55D03E10201CD8167
:1028C0000101036AB551350FE96E010E0320EA6E6E
:1028D000CCC2EFFF010EB5257F0B0201CE6F0101C7
:1028E000B6510201CE5DFBE0CEC2B5F1CDA101D063
:1028F0009D88000112000900F5520CE0F6CFC5F2E8
:10290000F7CFC6F2F5CFCCF2D0DFC5C2F6FFC6C214
:10291000F7FFF1D71200C9C201F0C8C200F000668B
:10292000012A0900F5CFEEFF002EFBD7012EF9D7C3
:10293000F86AAAEF14F0F86A070EF76EFE0EF66E4C
:10294000020EEA6EC50EE96E0201C96B010EC86F78
:102950000001E1D7C5C2C7F20201C7C201F0000100
:1029600012000900F6CFC6F2F7CFC7F2F5CFCCF2CE
:102970009CDFC6C2F6FFC7C2F7FF0201C52F01D018
:1029800002D00001EED700011200F40EF66E120E16
:10299000F76EB1DF12000A0E0201CC6F000185DF75
:1029A0000D0E0201CC6F000180DF1200BE0EF66E2C
:1029B000130EF76EA0DFBFDF01C0C4F20201C451E5
:1029C000500A000107E0010A12E0020A1DE0150AA0
:1029D00028E034D0EC0EF66E130EF76E230E0201D3
:1029E000C56F0001BEDFC4C2CCF25FDF3FD0120E64
:1029F000F66E140EF76E230E0201C56F0001B1DFF3
:102A0000C4C2CCF252DF32D0380EF66E140EF76E1E
:102A1000230E0201C56F0001A4DFC4C2CCF245DF62
:102A200025D05E0EF66E140EF76E220E0201C56FF3
:102A3000000197DFC4C2CCF238DF18D0840EF66EE6
:102A4000140EF76E0F0E0201C56F00018ADFC4C2BB
:102A5000CCF22BDF0A0E0201CC6F000126DF0D0E37
:102A60000201CC6F000121DF90DF10D0980EF66ECE
:102A7000140EF76E150E0201C56F000172DFB00E65
:102A8000F66E140EF76E37DF80DF85DF120001501F
:102A9000196AF2BE198EF29EC4C2F4F2640E0201EB
:102AA000F56F0001A2EC05F019BEF28E00C0C4F271
:102AB0000150300E08E10201C5A30FD0C5B70DD0FB
:102AC000C5B9200E04D00201C597C599C58101265C
:102AD00001C0CCF20001E9DE0201196AF2BE198ED2
:102AE000F29EC4C2F4F20A0EF56F0001A2EC05F0EA
:102AF00019BEF28E00C0C4F20150300E08E102018E
:102B0000C5B70AD0C5A108D0C5B9200E000101265D
:102B100001C0CCF2CADE0201300EC427C4C2CCF21E
:102B20000001C3DE12000201806B010E7E6F7EC2C7
:102B30007DF27DC27FF27C6B7CC27AF2196AF2BEB2
:102B4000198EF29E7AC2F2F20001B8EC05F019BEBD
:102B5000F28E01C083F2196AF2BE198EF29E7BC218
:102B6000F2F2B8EC05F019BEF28E01C084F2196AD7
:102B7000F2BE198EF29E7CC2F2F2B8EC05F019BEDC
:102B8000F28E01C085F2196AF2BE198EF29E7DC2E4
:102B9000F2F2B8EC05F019BEF28E01C086F2196AA5
:102BA000F2BE198EF29E7EC2F2F2B8EC05F019BEAA
:102BB000F28E01C087F2196AF2BE198EF29E7FC2B0
:102BC000F2F2B8EC05F019BEF28E01C088F2196A73
:102BD000F2BE198EF29E80C2F2F2B8EC05F019BE78
:102BE000F28E01C089F21200980EF66E130EF76E87
:102BF00082DE12000201C56BC46B196AF2BE198E27
:102C0000F29E010EF26F000118EC0CF019BEF28E6C
:102C10006F8FF29CF29EF2BEFDD70201C56BC46BB2
:102C2000C55334E1C4512C0831E3036AC451300F59
:102C3000E96E000E0320EA6EEFCFC6F2A6B2FED711
:102C4000A694F250006EF29EC4C2A9FFC6C2A8FFAD
:102C5000A69CA69EA6840F01550EA76EAA0EA76E6F
:102C6000A6820050F2120A0E0201C66F000101DDB9
:102C70000101252BD8B4262B26C16BF025C16AF0A3
:102C800004000201C42BD8B4C52BCAD7C00EF2125F
:102C9000196AF2BE198EF29E010EF26F0001F4EC79
:102CA0000BF019BEF28E6F9F1200E00EF66E110E41
:102CB000F76E21DEF2CFC4F2F29EA96AA69CA69E10
:102CC000A680A8500201C4BFF28E305C01E0000E65
:102CD0003050A00A000105E0010A09E0030A0DE0F6
:102CE00012D0F80EF66E110EF76E05DE11D0060E3C
:102CF000F66E120EF76EFFDD0BD0140EF66E120E8E
:102D0000F76EF9DD05D0200EF66E120EF76EF3DDCC
:102D10001200316A196AF2BE198EF29E070E020184
:102D2000F26F000118EC0CF019BEF28E3FDECA0EF5
:102D3000F66E140EF76EDFDDF20EF66E140EF76E01
:102D4000DADD0201C36BC26BC351000827E3A6B2F0
:102D5000FED7A694F250006EF29EC2C2A9FFA868E8
:102D6000A69CA69EA6840F01550EA76EAA0EA76E5E
:102D7000A6820050F2120101252BD8B4262B26C1C1
:102D80006BF025C16AF004000A0E0201C66F000153
:102D900070DC0201C22BD8B4C32BD6D7160EF66E48
:102DA000150EF76E0001A7DDA10E306E030E376E13
:102DB00037C078F0260EF66E150EF76E250E02015E
:102DC000C56F0001CEDD37C0C4F21B0E0201C56F16
:102DD00000015DDE4D0EF66E150EF76E080E020157
:102DE000C56F0001BEDD450E346E34C077F0560E5F
:102DF000F66E150EF76E2A0E0201C56F0001B1DDE9
:102E000077C0C4F21B0E0201C56F000140DE820EC6
:102E1000F66E150EF76E080E0201C56F0001A1DDFA
:102E2000030E356E35C079F08C0EF66E150EF76E0A
:102E30002D0E0201C56F000194DD79C0C4F21B0E96
:102E40000201C56F000123DEBB0EF66E150EF76E94
:102E5000080E0201C56F000184DDC40EF66E150E6A
:102E6000F76E49DD7669EA0EF66E150EF76E43DDF4
:102E70005ADEFC0EF66E150EF76E3DDD5A0EF66E3E
:102E8000160EF76E38DD02018A6B8AC238F0900E9A
:102E9000F66E160EF76E00012EDD856B85C03BF0D9
:102EA000B80EF66E160EF76E160E0201C56F000113
:102EB00058DD200E0201C46F1B0EC56F0001E7DD57
:102EC000D00EF66E160EF76E080E0201C56F0001E9
:102ED00048DD200E866F86C033F0DA0EF66E160ED1
:102EE000F76E09DD3268060EF66E170EF76E03DD1B
:102EF0000101252BD8B4262B26C16BF025C16AF021
:102F00000400000171DE316A75DE45DD0BEC13F063
:102F1000CCDEFA0E0201C66F000139EC13F0196A1B
:102F2000F2BE198EF29E070E0201F26F0001F4EC60
:102F30000BF019BEF28EDAEF17F0196AF2BE198E95
:102F4000F29E070E0201F26F0001F4EC0BF019BEC5
:102F5000F28E196AF2BE198EF29E010E0201F26F14
:102F60000001F4EC0BF019BEF28E196AF2BE198E54
:102F7000F29E0201F26B0001F4EC0BF019BEF28E2E
:102F8000196AF2BE198EF29E050E0201F26F00015F
:102F9000F4EC0BF019BEF28E196AF2BE198EF29E95
:102FA000060E0201F26F0001F4EC0BF019BEF28E76
:102FB0001200AFD60201C16BC151040866E3020ED4
:102FC000C26FFA0EC66F000139EC13F00201C22F76
:102FD000F8D70101252BD8B4262B26C16BF025C1CB
:102FE0006AF004000001A9DF929A899AFA0E0201A0
:102FF000C66F000139EC13F00101252BD8B4262B44
:1030000026C16BF025C16AF00400929A898A196A78
:10301000F2BE198EF29E050E0201F26F000118EC4D
:103020000CF019BEF28E196AF2BE198EF29E060ECF
:103030000201F26F000118EC0CF019BEF28E196A51
:10304000F2BE198EF29E0201F26B000118EC0CF038
:1030500019BEF28E196AF2BE198EF29E010E02019D
:10306000F26F000118EC0CF019BEF28E196AF2BE74
:10307000198EF29E070E0201F26F000118EC0CF09F
:1030800019BEF28E0201C12B97D7929A899A320EFD
:10309000C66F000139EC13F012000C0EBD121200C5
:1030A000FCDF320E0201C66F000139EC13F034EC84
:1030B00013F035EF19F0E85311E1EB530FE1C2C201
:1030C000E8F0C3C2EBF0196AF2BE198EF29E02015B
:1030D000F26B000118EC0CF019BEF28E1200010E1A
:1030E0000201C26F020EC36F0001E5DF196AF2BE72
:1030F000198EF29E070E0201F26F0001F4EC0BF044
:1031000019BEF28E0101252BD8B4262B26C16BF0F7
:1031100025C16AF004002051010A000109E0030AF8
:1031200020E0010A37E0070A4EE0010A65E07DD0A1
:10313000196AF2BE198EF29E050E0201F26F0001AD
:1031400018EC0CF019BEF28E196AF2BE198EF29EBE
:10315000060E0201F26F0001F4EC0BF019BEF28EC4
:1031600064D0196AF2BE198EF29E050E0201F26F4A
:103170000001F4EC0BF019BEF28E196AF2BE198E42
:10318000F29E060E0201F26F000118EC0CF019BE5F
:10319000F28E4BD0196AF2BE198EF29E050E020114
:1031A000F26F000118EC0CF019BEF28E196AF2BE33
:1031B000198EF29E060E0201F26F0001F4EC0BF084
:1031C00019BEF28E32D0196AF2BE198EF29E050E29
:1031D0000201F26F0001F4EC0BF019BEF28E196AD5
:1031E000F2BE198EF29E060E0201F26F000118EC7B
:1031F0000CF019BEF28E19D0196AF2BE198EF29E29
:10320000050E0201F26F000118EC0CF019BEF28EEF
:10321000196AF2BE198EF29E060E0201F26F0001CB
:10322000F4EC0BF019BEF28E00D041EF19F0010E54
:103230007E6F7D6F060E0101206F20C1C1F21C97C9
:10324000252BD8B4262B26C16BF025C16AF00400CB
:10325000205319E00F0E0201C66F000139EC13F084
:1032600001011CA704D000011BD701011C97252BCD
:10327000D8B4262B26C16BF025C16AF004000001EA
:103280002ED70101E5D700017D6B929E898E929C1D
:10329000899C5A0EF66E170EF76E7BEC14F038C050
:1032A0008AF241DC12000201C16BC1513E080AE3FF
:1032B000036AC151390FE96E020E0320EA6EEF6A0C
:1032C000C12BF3D701012F9D0201796B0001120080
:1032D00091A946D00201C151FC0F43E2040F000145
:1032E000B3EF19F0196AF2BE198EF29E010E0201B7
:1032F000F26F000118EC0CF019BEF28E6F81020122
:1033000030D0196AF2BE198EF29E010E0201F26FE0
:10331000000118EC0CF019BEF28E6F83020121D06F
:10332000196AF2BE198EF29E010E0201F26F0001BF
:1033300018EC0CF019BEF28E6F85020112D0196ADA
:10334000F2BE198EF29E010E0201F26F000118EC1E
:103350000CF019BEF28E6F87020103D002D000017B
:10336000020100011200E824F76AF736810FF66EB9
:10337000330EF7220A00F550FA6E0800F550F96E88
:10338000E432023320333E3301011F51070806E1C6
:10339000030E0201C16F00019BDF0101000106EF76
:1033A0002DF00BD0CD51A35D08E303E1A251CC5D1C
:1033B00004E20201C16B00018BDF12000201C26B4B
:1033C000C16BC26BC16BC25324E1C1512C0821E314
:1033D000036AC151300FE96E000E0320EA6EF2CF8E
:1033E000C5F2F29EC1C2A9FFA69CA69EA680A850C7
:1033F000C5BFF28EEF6E0101252BD8B4262B26C156
:103400006BF025C16AF004000201C12BD8B4C22BB5
:10341000DAD700010BEF2DF00101175302E1050E81
:10342000176F0001918B918D01012493000112000F
:103430001200850E006E002EFED712009193040E2E
:10344000016EC250C30B0110C26EF3DFC282C2B262
:10345000FED7C4CFC2F20201C3CFC1F2000191B3C3
:1034600005D0C2C2C3F0C1C2C2F015D09193040E00
:10347000016EC250C30B0110C26EDBDFC282C2B24A
:10348000FED7C4CFC2F20201C3CFC1F2C2C2C3F0A1
:10349000C1C2C2F00001C351955D06E303E1C25110
:1034A000945D02E3FC2D0BD0C351955D0CE303E169
:1034B000C251945D08E3FC2D06D091A504D0010112
:1034C000302B0AD000019551C35D07E303E1C251DF
:1034D000945D03E20101306B0001010130511F08CE
:1034E00004E2306B949A8B9AFDD70001120001011F
:1034F00017531CE1000191BB02D0010117D0B10E9E
:103500000101186F000191B510D0FC2D0ED0929AD8
:10351000898A919BC80EF66E120EF76E7BEC14F042
:1035200001012483010E00016C6F0101000191BDB6
:1035300010D0010124A302D000010BD0DE0EF66EE4
:10354000120EF76E00017BEC14F0010124830001E0
:103550006C6B1200FC51020868E1A09201011C8111
:103560000001918379C0FEF0070E0101016FD00EBA
:10357000006F000E016EC250C30B0110C26E929C10
:10358000899C005302E1015331E00051D8B4010796
:1035900000070400C2820201C191C2A2C181C1B16F
:1035A00004D0C191C2A2C181FAD7C2B2FED7C4CFA2
:1035B000CFF00001C3CFCEF0CF51A55D15E303E1FD
:1035C000A451CE5D11E2929C898C030E0101036F20
:1035D000E80E026F1C911C9BA082010E0201C66FB7
:1035E000000139EC13F021D00101CBD70001EF6BC2
:1035F000EE6BF16BF06BF36BF26BCF6BCE6B929C5F
:10360000899C0ADF74DF14DF010EFC6FFCC05CF0E4
:10361000030E0101036FE80E026F1C91A082010EE0
:103620000201C66F000139EC13F0120001011CAB5E
:1036300003D000018FDF010100016AEF2DF08E0E33
:10364000006EE3C201F0E2C202F0036A015209E136
:1036500002C001F0026A080E005E015202E1006A37
:1036600008D0D89001BE04D0023601360006F9D742
:10367000019E12000201DE51D8B471D0006EE251F9
:10368000D8B46DD0002604E3810E002668E204D091
:103690007F0E005E64E363E0DFC2E6F2E351E61B07
:1036A000DF8FE38FE151E503F4CFE8F2E051E4036B
:1036B000F4CF03F0F3CFE7F2E503F350E827F4503B
:1036C000E723000E0322E151E403F350E827F4500E
:1036D000E723000E026A03220222DF51E503F350C2
:1036E000E727F4500322000E0222DF51E403F350D7
:1036F0000326F4500222000E016A0122E151E30385
:10370000F350E727F4500322000E02220122E05179
:10371000E303F3500326F4500222000E0122DF518E
:10372000E303F3500226F4500122002A01BE05D023
:10373000E7370336023601360006000EE7AF0AD03F
:10374000032A02220122015005E1025003E1035045
:1037500001E1002AE6BF018EE6AF019E04D0006AB7
:10376000016A026A036A000112008E0E006E0201F5
:10377000DE51005EDFC202F0E0C201F0028E0052B4
:1037800009E0D890025202E1015204E00232013213
:10379000002EF7D7DFAF05D0011E021E012AD8B4D4
:1037A000022A000112000201D269D169CCC2CEF214
:1037B000CBC2CDF2D06BCF6BD15302E1D2533FE0FD
:1037C000D151D8B4D207D107CE51260809E2FF0A59
:1037D00003E1CD510F0804E2FF0E016E026E33D0FB
:1037E000CE5102080CE2FF0A03E1CD51E70807E2DF
:1037F000E80ECD5F030ECE5B100ED0271FD0CE5348
:1038000003E1CD51630807E2640ECD5F000ECE5B8D
:10381000010ED02713D0CE5303E1CD51090809E2A0
:103820000A0ECD5F000ECE5B100ECF27000ED02308
:1038300005D0CD51CF27CE51D02301D0BDD7CFC297
:1038400001F0D0C202F000011200D89002019135BF
:10385000036AD00FE96E000E0320EA6ECFC0ECFFC2
:10386000ED52CEC0EFFF9151000802E2916B01D002
:10387000912B0001CB6BCA6BC96BC86B0201C16B8A
:10388000C151010816E3D890C135036AD00FE96E23
:10389000000E0320EA6EECCF03F0ED52EF50000172
:1038A000C8270350C923000ECA23CB230201C12B12
:1038B000E7D7D8900001CB31CA31C931016EC83188
:1038C000CC6F01C0CDF0CDC0E3F2CCC0E2F2B7DEE8
:1038D00003C0E1F202C0E0F201C0DFF200C0DEF29C
:1038E00090C0E5F28FC0E4F28EC0E3F28DC0E2F248
:1038F000C1DE03C0E1F202C0E0F201C0DFF200C0AD
:10390000DEF233DF02C0C3F201C0C2F2C3C2CCF2A6
:10391000C2C2CBF248DF02C060F001C05FF090EF9E
:1039200022F09193040E016EC250C30B0110C26EBF
:1039300080DDC282C2B2FED7C4CFC3F20201C3CFC0
:10394000C2F2000191B305D0C3C2C3F0C2C2C2F03B
:1039500015D09193040E016EC250C30B0110C26EBC
:1039600068DDC282C2B2FED7C4CFC3F20201C3CFA8
:10397000C2F2C3C2C3F0C2C2C2F00001D8900201B9
:103980009035036AC40FE96E000E0320EA6EC3C0CF
:10399000ECFFED52C2C0EFFF9051000802E2906BC5
:1039A00001D0902B0001BF6BBE6BBD6BBC6B0201E5
:1039B000C16BC151010816E3D890C135036AC40F29
:1039C000E96E000E0320EA6EECCF03F0ED52EF50EB
:1039D0000001BC270350BD23000EBE23BF230201FC
:1039E000C12BE7D7D8900001BF31BE31BD31016E88
:1039F000BC31C06F01C0C1F0C1C0E3F2C0C0E2F28F
:103A00001EDE03C0E1F202C0E0F201C0DFF200C03E
:103A1000DEF28CC0E5F28BC0E4F28AC0E3F289C02A
:103A2000E2F228DE03C0E1F202C0E0F201C0DFF200
:103A300000C0DEF29ADE02C0C5F201C0C4F2C5C207
:103A4000CCF2C4C2CBF2AFDE02C05EF001C05DF0CA
:103A500092EF22F0800ED8A202D00201E71B0201F1
:103A6000EC6BED6BE3C2EBF2E751EB1BE251D8B428
:103A7000DFD0EA6F006EE651D8B4E3D0EA5FD8B485
:103A800083D03EE3E7C2F0F2F08FE8C2EFF2E9C282
:103A9000EEF2ED6BD890F033EF33EE33ED33EA2FE7
:103AA000F8D7EBAF03D0EC81E0D0EC91EA91EC8950
:103AB000020EEA6EE50EE96EEBD0EC99EBBF0AD090
:103AC000EAA113D0F033EF33EE33ED33002AD8B44C
:103AD000C7D00BD0F0BF0CD0D890ED37EE37EF3712
:103AE000F0370006D8B4BCD0F5D7EC8D6DD0EC9D86
:103AF000E3C2EBF2E3AF02D0F08FABD0F09FA9D0DE
:103B0000E6C2EAF2E6C200F0E251EA5FE3C2F0F296
:103B1000F08FE4C2EFF2E5C2EEF2ED6BD890F03335
:103B2000EF33EE33ED33EA2FF8D7EBAF03D0EC836E
:103B30009CD0EC93EA91EC8B020EEA6EE90EE96EF2
:103B4000A7D0EC9BEBBF0AD0EAA113D0F033EF3340
:103B5000EE33ED33002AD8B483D00BD0F0BF0CD0B5
:103B6000D890ED37EE37EF37F0370006D8B478D07D
:103B7000F5D7EC8F29D0EC9FE7C2EBF2E7AF02D08C
:103B8000F08F67D0F09F65D0E7C2F0F2F08FE8C207
:103B9000EFF2E9C2EEF2EBAF04D0F09FEC8565D016
:103BA000EC95ED6BEA91020EEA6EE50EE96E70D0CF
:103BB000EBBF1CD0E3C2EBF2EAA106D0F033EF3347
:103BC000EE33ED33002A4CE0EDAF0BD0EE2B09E1E4
:103BD000EF2B07E1F02B05E1F033EF33EE33002A52
:103BE0003FE0ECBD84D7ECBFC6D71CD0800EF01BE5
:103BF000F0AF04D03AD0E7C2EBF20AD0E3C2EBF266
:103C0000F05306E1EF5304E1EE5302E1006A21D0E4
:103C1000F0BF08D0D890ED37EE37EF37F037002EF1
:103C2000F7D71ED0EBAF02D0F08F13D0F09F11D09A
:103C3000E6C200F0E7C2F0F2E8C2EFF2E9C2EEF24B
:103C400008D0E2C200F0E3C2F0F2E4C2EFF2E5C253
:103C5000EEF2F0C201F0EFC202F0EEC203F034D097
:103C6000006A016A026A036A2FD0ED6BEE1FEF1F34
:103C7000F01FED1FED2B05E1EE2B03E1EF2B01E132
:103C8000F02BECB112D7ECB354D7ECB589D7B3D73E
:103C9000EF50EE2705E3EF2B03E1F02BD8B4EA81D8
:103CA000ED52EF50EF2703E3F02BD8B4EA81ED5249
:103CB000EF50EFBE01D0800AF027D8B0EA81ECB90E
:103CC000FCD6ECBB3ED774D7000112000201CA51EA
:103CD000D8B4A5D0D66FCE51D8B4A1D0D65F05E365
:103CE0007F0ED627D8B09BD006D0810ED65FD8A045
:103CF00096D0D8B494D0D6C200F0016A026A036AA2
:103D0000D56BCBC2D4F2D48FCCC2D3F2CDC2D2F217
:103D1000190ED66FD151D25F0DE2010ED35F0AE2C8
:103D2000D45F08E2D55F06E2D52BD42BD32BD1513B
:103D3000D22728D0D051D35F12E2010ED45F0FE218
:103D4000D55F0DE2D52BD42BD051D327D151D2271B
:103D500019E3D32B17E1D42B15E1D52B13D0CF5179
:103D60008009D45F0EE2010ED55F0BE2D52BCF5157
:103D70008009D427D051D327E9E3D42BE7E1D52B11
:103D8000E5D70380D62F01D00BD0D890D237D337C8
:103D9000D437D537D890033602360136D737BAD75D
:103DA000D7A106D0D890013202320332D73302D0E5
:103DB000000635E0D7BF1ED0D890D237D337D437DE
:103DC000D537D151D25F07E2010ED35F04E2D45F51
:103DD00002E2D55F1AE3D051D35F05E2010ED45F52
:103DE00002E2D55F12E3CF518009D45F03E2010EF6
:103DF000D55F0BE3032A09E1022A07E1012A05E165
:103E0000002A0DE0013202320332CBC2D6F2CF518A
:103E1000D61BD6AF02D0018E06D0019E04D0006A18
:103E2000016A026A036A00011200DFC2E6F20201BF
:103E3000E351E61BE6AF05D0D894D890DFBFD88019
:103E40002FD0DFC2E6F2E2C2E7F2DE51E75F06E022
:103E5000E6AF26D0D850010AD86E22D0E3C2E7F2EE
:103E6000DF51E75F06E0E6AF1BD0D850010AD86EFD
:103E700017D0E4C2E7F2E051E75F06E0E6AF10D00A
:103E8000D850010AD86E0CD0E5C2E7F2E151E75FE5
:103E900006E0E6AF05D0D850010AD86E01D0D89020
:103EA000000112000201DD91D1C2D6F2D0C2D5F2DA
:103EB000CFC2D4F2CEC2D3F2D1C2E1F2D0C2E0F28C
:103EC000CFC2DFF2CEC2DEF2E56BE46BE36BE26BF6
:103ED0000001ABDF06E30201DD81D451800AD46F1B
:103EE0000001D6C2E1F2D5C2E0F2D4C2DFF2D3C201
:103EF000DEF20201E56BE46BE36B8E0EE26F000114
:103F000094DF01E218E1D6C2E1F2D5C2E0F2D4C2F8
:103F1000DFF2D3C2DEF229DC02C0E3F201C0E2F23A
:103F20001FEC1BF003C0DAF202C0D9F201C0D8F2D4
:103F300000C0D7F2D0D0D6C2E1F2D5C2E0F2D4C2EE
:103F4000DFF2D3C2DEF2800E0201E56F960EE46F5F
:103F5000180EE36F960EE26F000167DFD8A0B3D0B2
:103F6000D6C2E1F2D5C2E0F2D4C2DFF2D3C2DEF2B1
:103F70000201E56BE46BE36B700EE26F00013AEC5B
:103F80001BF003C0E1F202C0E0F201C0DFF200C0AA
:103F9000DEF2B5EC1BF002C0DCF201C0DBF2D6C2EF
:103FA000E1F2D5C2E0F2D4C2DFF2D3C2DEF2020106
:103FB000E56BE46BE36B700EE26F00013AEC1BF013
:103FC00003C0E1F202C0E0F201C0DFF200C0DEF2A5
:103FD000DCC2E3F2DBC2E2F21FEC1BF0D882E1C2EA
:103FE000E5F2E0C2E4F2DFC2E3F2DEC2E2F203C0D5
:103FF000E9F202C0E8F201C0E7F200C0E6F22ADD11
:104000000201E16BE06BDF6B8E0EDE6F03C0E5F249
:1040100002C0E4F201C0E3F200C0E2F200013AECB7
:104020001BF003C0D6F202C0D5F201C0D4F200C02A
:10403000D3F2DCC2E3F2DBC2E2F21FEC1BF00201BE
:10404000E16BE06BDF6B8E0EDE6F03C0E5F202C04A
:10405000E4F201C0E3F200C0E2F200013AEC1BF02E
:1040600003C0DAF202C0D9F201C0D8F200C0D7F220
:10407000D6C2E1F2D5C2E0F2D4C2DFF2D3C2DEF2A0
:10408000B5EC1BF002C0E3F201C0E2F21FEC1BF042
:10409000D892DAC2E5F2D9C2E4F2D8C2E3F2D7C2CA
:1040A000E2F203C0E9F202C0E8F201C0E7F200C0A8
:1040B000E6F2D0DC03C0DAF202C0D9F201C0D8F2D5
:1040C00000C0D7F208D0D6C2DAF2D5C2D9F2D4C233
:1040D000D8F2D3C2D7F2D6C2E1F2D5C2E0F2D4C24E
:1040E000DFF2D3C2DEF2B5EC1BF002C0E3F201C096
:1040F000E2F21FEC1BF0D882D6C2E5F2D5C2E4F2A0
:10410000D4C2E3F2D3C2E2F203C0E9F202C0E8F2A1
:1041100001C0E7F200C0E6F29DDC03C0D6F202C0A7
:10412000D5F201C0D4F200C0D3F20201DDA103D068
:10413000D851800AD86FD6C2E1F2D5C2E0F2D4C21B
:10414000DFF2D3C2DEF2E56BE46BE36BE26B0001FE
:104150006CDE3AE00201DDA11BD0D25319E1D88216
:10416000DAC2E5F2D9C2E4F2D8C2E3F2D7C2E2F28F
:10417000E96BE86BE76B7F0EE66F00016BDC03C059
:10418000DAF202C0D9F201C0D8F200C0D7F20201BF
:10419000DDB11BD0D22D19D0D892DAC2E5F2D9C246
:1041A000E4F2D8C2E3F2D7C2E2F2E96BE86BE76B64
:1041B0007F0EE66F00014EDC03C0DAF202C0D9F2D6
:1041C00001C0D8F200C0D7F20201D1C2E1F2D0C2E0
:1041D000E0F2CFC2DFF2CEC2DEF2E56BE46BE36B5E
:1041E000E26B000122DE06E10201DA6BD96BD86BCB
:1041F000D76B0001D7C200F0D8C201F0D9C202F0DB
:10420000DAC203F011EF21F0CDC2D1F2CCC2D0F26C
:10421000CBC2CFF2CAC2CEF2010E0201D26F0001B0
:1042200041D6B1EF21F0D89002019235036ADA0F3E
:10423000E96E000E0320EA6E05C1ECFFED5204C1E9
:10424000EFFF9251000802E2926B01D0922B000125
:10425000D76BD66BD56BD46B0201C16BC151010812
:1042600016E3D890C135036ADA0FE96E000E032019
:10427000EA6EECCF03F0ED52EF500001D42703506B
:10428000D523000ED623D7230201C12BE7D7D89020
:104290000001D731D631D531016ED431D86F01C08C
:1042A000D9F0D9C0E3F2D8C0E2F21FEC1BF003C092
:1042B000E1F202C0E0F201C0DFF200C0DEF2330E34
:1042C0000201E56FE46F530EE36F760EE26F0001BB
:1042D0003AEC1BF003C0C9F202C0C8F201C0C7F239
:1042E00000C0C6F2D88203C0E5F202C0E4F201C009
:1042F000E3F200C0E2F2330E0201E96FE86FE76F0C
:104300007E0EE66F00012AEC1DF003C0C9F202C068
:10431000C8F201C0C7F200C0C6F203C0CDF202C0AD
:10432000CCF201C0CBF200C0CAF2770E0201D16F0D
:10433000BE0ED06F1F0ECF6F790ECE6F0001C6DCA0
:1043400003C0C9F202C0C8F201C0C7F200C0C6F281
:1043500003C0CDF202C0CCF201C0CBF200C0CAF261
:1043600053D703C0C5F202C0C4F201C0C3F200C0FB
:10437000C2F2C5C2E1F2C4C2E0F2C3C2DFF2C2C2FD
:10438000DEF2B5EC1BF002C0C7F201C0C6F2196A3A
:10439000F2BE198EF29E01C0F2F2B8EC05F019BE21
:1043A000F28E01C068F093EF22F0D89002019335AD
:1043B000036AE40FE96E000E0320EA6E07C1ECFF0A
:1043C000ED5206C1EFFF9351000802E2936B01D05A
:1043D000932B0001E16BE06BDF6BDE6B0201C16BC5
:1043E000C151010816E3D890C135036AE40FE96EA4
:1043F000000E0320EA6EECCF03F0ED52EF50000107
:10440000DE270350DF23000EE023E1230201C12B4E
:10441000E7D7D8900001E131E031DF31016EDE31C4
:10442000E26F01C0E3F0E3C0E3F2E2C0E2F21FECAE
:104430001BF003C0E1F202C0E0F201C0DFF200C0F5
:10444000DEF2330E0201E56FE46F530EE36F760E7A
:10445000E26F00013AEC1BF003C0C9F202C0C8F2DF
:1044600001C0C7F200C0C6F2D88203C0E5F202C0A4
:10447000E4F201C0E3F200C0E2F2CD0E0201E96F06
:10448000CC0EE86F4C0EE76F7D0EE66F00012AEC54
:104490001DF003C0C9F202C0C8F201C0C7F200C0DB
:1044A000C6F203C0CDF202C0CCF201C0CBF200C014
:1044B000CAF2770E0201D16FBE0ED06F1F0ECF6F02
:1044C000790ECE6F000102DC03C0C5F202C0C4F257
:1044D00001C0C3F200C0C2F2323C02D0696B1CD0F2
:1044E00032521AE1C5C2E1F2C4C2E0F2C3C2DFF245
:1044F000C2C2DEF2B5EC1BF002C0C7F201C0C6F2C8
:10450000196AF2BE198EF29E01C0F2F2B8EC05F003
:1045100019BEF28E01C069F094EF22F025EF1CF075
:1045200091EF1CF080D641D76CEF2DF00DD0C1512A
:10453000955D0AE303E19451C05D06E2010E0201BC
:10454000C16F000168EC19F06EEF2DF07A2D0DD0DF
:10455000196AF2BE198EF29E050E0201F26F000179
:1045600018EC0CF019BEF28E0CD0196AF2BE198E3E
:10457000F29E050E0201F26F0001F4EC0BF019BE81
:10458000F28E7B2D0DD0196AF2BE198EF29E060EA8
:104590000201F26F000118EC0CF019BEF28E0CD083
:1045A000196AF2BE198EF29E060E0201F26F000128
:1045B000F4EC0BF019BEF28E120001012F930001F2
:1045C0009185EF6BEE6BF16BF06BF36BF26BCF6B76
:1045D000CE6B01011C95949A8B8A929E898E929C37
:1045E000898C030E036FE80E026F1C91050E1E6F7F
:1045F000010E0001FE6FFF6F840ED56EA50EB16E29
:10460000196AF2BE198EF29E640E0201F26F000169
:10461000B8EC0BF019BEF28E0BEC13F0196AF2BE77
:10462000198EF29E640E0201F26F0001B8EC0BF0DD
:1046300019BEF28E0101252BD8B4262B9D86F28659
:104640007D8AF28A9D82A082315202E19D889D8AF4
:104650000F0E0201C66F000139EC13F0980EF66ED2
:104660001D0EF76E7BEC14F00101252BD8B4262B20
:1046700026C16BF025C16AF00400640E0201C66F0A
:10468000000139EC13F0AAEC1AF0919F0201C26B01
:10469000250EC16FC2C2F5F2C1C2F4F2010EF66F6F
:1046A000F4C2E9FFF5C2EAFFFA6BF96BECCFF8F25E
:1046B000ED52EFCFF7F2020EF425E96E000EF52170
:1046C000EA6EEFCFFCFFF65302E1010EF66FF6C281
:1046D00024F0030EF425E96E000EF521EA6EEFCF0B
:1046E000E0FFF8C2FAFFF7C2E8FFF96E01C02FF051
:1046F00000011200196AF2BE198EF29EEFEC0CF066
:1047000019BEF28ECF51A75D09E303E1A651CE5D3C
:1047100005E201011C9304D003D0000101011C83B8
:1047200000011200196AF2BE198EF29E040E0201F7
:10473000F26F000118EC0CF019BEF28E196AF2BE8D
:10474000198EF29E040E0201F26F0001F4EC0BF0E0
:1047500019BEF28EFA0E0201C66F000139EC13F099
:10476000196AF2BE198EF29E040E0201F26F000168
:10477000F4EC0BF019BEF28E196AF2BE198EF29E9D
:10478000040E0201F26F000118EC0CF019BEF28E5B
:1047900012007C51020802E14DEC18F012007C512D
:1047A000020802E134EC13F01200196AF2BE198E0D
:1047B000F29E020E0201F26F0001F4EC0BF019BE42
:1047C000F28E86C01AF101011A531BE00001BEDE11
:1047D0000101252BD8B4262B26C16BF025C16AF028
:1047E0000400190E0201C66F000139EC13F0010E2E
:1047F0000201C26F020EC36F00015BEC18F0E3D739
:104800000101196AF2BE198EF29E020E0201F26FC8
:10481000000118EC0CF019BEF28E1200FD51FC5D87
:1048200021E0FC2D0CD0B5DF190E0201C66F00018E
:1048300039EC13F0B4DFFCC0FDF0FCC05CF0FC51BF
:1048400002080CE1A6DF640E0201C66F000139EC1C
:1048500013F0A5DFFCC0FDF0FCC05CF0FCC0FDF077
:10486000FCC05CF0A3EF34F0E95312E1EC5310E12B
:10487000C1C2E9F0C2C2ECF0196AF2BE198EF29E12
:10488000010E0201F26F000118EC0CF019BEF28E5D
:1048900012006F5338E1C151975D0BE303E1C05142
:1048A000965D07E3010E0201C16F020EC26F0001A7
:1048B000DBDF9751C15D12E303E1C051965D0EE26B
:1048C000C151995D0BE303E1C051985D07E3010E0F
:1048D0000201C16F050EC26F0001C6DF9951C15DB3
:1048E00012E303E1C051985D0EE2C1519B5D0BE301
:1048F00003E1C0519A5D07E3010E0201C16F140E7E
:10490000C26F0001B1DFAAEF34F09193240E016E63
:10491000C250C30B0110C26E19EC1AF0C282C2B2AF
:10492000FED7C4CFC2F20201C3CFC1F2000191B3DE
:1049300005D0C2C20EF1C1C20DF118D09193240E60
:10494000016EC250C30B0110C26E19EC1AF0C28284
:10495000C2B2FED7C4CFC2F20201C3CFC1F200017E
:1049600091B304D0C2C20EF1C1C20DF10201CE6BEF
:10497000CD6B0EC1CCF20DC1CBF2D26B020ED16F5A
:104980008B0ED06F0B0ECF6F0001E9EC13F003C05C
:10499000CEF202C0CDF201C0CCF200C0CBF2D89270
:1049A00003C0D2F202C0D1F201C0D0F200C0CFF2F7
:1049B0000201D66BD56B270ED46F100ED36F00019A
:1049C0004DEC13F003C0CAF202C0C9F201C0C8F234
:1049D00000C0C7F20201CE6BCD6B0C0ECC6F9A0EED
:1049E000CB6FCAC2D2F2C9C2D1F2C8C2D0F2C7C21A
:1049F000CFF20001E9EC13F003C0CEF202C0CDF219
:104A000001C0CCF200C0CBF2D89203C0D2F202C0F7
:104A1000D1F201C0D0F200C0CFF20201D66B010E7C
:104A2000D56F860ED46FA00ED36F00014DEC13F03E
:104A300003C0C6F202C0C5F201C0C4F200C0C3F296
:104A4000C4C2CCF2C3C2CBF2D3EC1BF002C062F002
:104A500001C061F0E9EF34F091932C0E016EC25069
:104A6000C30B0110C26E19EC1AF0C282C2B2FED79B
:104A7000C4CFC2F20201C3CFC1F2000191B305D08D
:104A8000C2C210F1C1C20FF118D091932C0E016E69
:104A9000C250C30B0110C26E19EC1AF0C282C2B22E
:104AA000FED7C4CFC2F20201C3CFC1F2000191B35D
:104AB00004D0C2C210F1C1C20FF10201CE6BCD6BA6
:104AC00010C1CCF20FC1CBF2D26B020ED16F8B0EA4
:104AD000D06F0B0ECF6F0001E9EC13F003C0CEF2E4
:104AE00002C0CDF201C0CCF200C0CBF2D89203C01C
:104AF000D2F202C0D1F201C0D0F200C0CFF2020166
:104B0000D66BD56B270ED46F100ED36F00014DEC12
:104B100013F003C0CAF202C0C9F201C0C8F200C05B
:104B2000C7F20201CE6BCD6B0C0ECC6F9A0ECB6F21
:104B3000CAC2D2F2C9C2D1F2C8C2D0F2C7C2CFF241
:104B40000001E9EC13F003C0CEF202C0CDF201C0C7
:104B5000CCF200C0CBF2D89203C0D2F202C0D1F2A4
:104B600001C0D0F200C0CFF20201D66B010ED56FAA
:104B7000860ED46FA00ED36F00014DEC13F003C06E
:104B8000C6F202C0C5F201C0C4F200C0C3F2C4C282
:104B9000CCF2C3C2CBF2D3EC1BF002C064F001C074
:104BA00063F0EBEF34F00201C26B313C01D01DD059
:104BB0003851375D0BE1C22BC2510A0807E3010EE1
:104BC000C66F000139EC13F00201F2D7036A3851C5
:104BD000B70FE96E010E0320EA6EEFCFC1F2010EAE
:104BE00038257F0B386FC1C201F0000196EF3AF013
:104BF0000201C16BC1511F080AE3036AC151970F3B
:104C0000E96E020E0320EA6EEF6AC12BF3D70001B2
:104C10003BEF29F00201E151E303F3CF01F0F4CFC0
:104C200000F0E403F3500026E251E303F3500020C8
:104C3000026E000193EF26F0E4C203F00201E3C22A
:104C4000E9FFE4C2EAFFEF5205E1E1C201F0E2C28E
:104C500002F05DD0E2C203F0E1C2E9FFE2C2EAFF86
:104C6000EF5252E0E2C2E6F2E1C2E5F2E4C2E8F25B
:104C7000E3C2E7F2E8C203F0E7C2E9FFE8C2EAFFF5
:104C8000EF5216E0E5C2E9FFE6C2EAFFEFCFE9F234
:104C9000E8C203F0E7C2E9FFE8C2EAFFEF50E95DCE
:104CA00007E1E52BD8B4E62BE72BD8B4E82BE2D705
:104CB000E8C203F0E7C2E9FF03C0EAFFEF5205E1F3
:104CC000E1C201F0E2C202F022D0E12BD8B4E22B23
:104CD000E2C203F0E1C2E9FFE2C2EAFFEF5213E0F1
:104CE000E1C2E9FFE2C2EAFFEFCFE9F2E4C203F07A
:104CF000E3C2E9FFE4C2EAFFEF50E95D04E0E12B23
:104D0000D8B4E22BE5D7A6D7000E016E026E0001E3
:104D1000B3EF26F00201E26BB7C2E1F2010EE46FDD
:104D2000E36B000177D702C0E2F2020101C0E1F2B9
:104D3000020EEA6EC10EE96E02C0F7FF01500001DB
:104D400081EC04F00A000900F550EE6E0009FBE169
:104D5000020E0201E26F390EE16F020EE46FC10E26
:104D6000E36F000169D702C0E2F201C0E1F2020183
:104D7000E15302E1E25304E0010E016E03D002D0E0
:104D8000000E016E00011200100EF66E130EF76E8B
:104D90007BEC14F0FC51020A05E0010A0AE0020A69
:104DA0000FE015D0240EF66E130EF76E7BEC14F0A8
:104DB00014D0280EF66E130EF76E7BEC14F00DD0A7
:104DC0002C0EF66E130EF76E7BEC14F006D0300E40
:104DD000F66E130EF76E7BEC14F0CBEC14F01200B1
:104DE000EACFCBF2E9CFCAF20201C439F009C66FAB
:104DF000C627E20FC76F320FC96FC4510F0BC72709
:104E0000C727C927E90FC86FC827C827C3390F0BA1
:104E1000C827C927C837C937C91FC937C3510F0B9E
:104E2000C927C637070EC56F0A0EC807C927FDE395
:104E3000C707C827FDE3C607C727FDE3C507C62781
:104E4000FDE3020EEA6EC50EE96E070ECA15CA9D95
:104E5000E926000EEA22E950C90804E1EA500208F6
:104E600001E1CA8DEF50006E08E1CABD06D0CAB993
:104E700016D0CAB702D0200E03D0CA87CA99300E06
:104E80000026EACFC4F2E9CFC3F200C0CCF20001A1
:104E900055EC14F0C4C2EAFFC3C2E9FF0201EE50B0
:104EA000CAADD9D700016DEF27F0D00E02018025E1
:104EB000C16F070EC26FD8B0C22BAA0EF66E0A0ED3
:104EC000F76E150EC56F0001B1EC14F0090EE96E16
:104ED000C2C2C4F2C1C2C3F283D73A0E0201CC6F80
:104EE000000155EC14F07FC2C4F2010E0201C56F3F
:104EF000000147EC15F03A0E0201CC6F000155ECB1
:104F000014F07EC2C4F2010E0201C56F000147EC2D
:104F100015F00A0E0201CC6F000155EC14F00D0ED5
:104F20000201CC6F000155EC14F01200840EF66EF5
:104F30000A0EF76E140E0201C56F0001B1EC14F0F9
:104F40007CC2C4F2010E0201C56F000147EC15F0EE
:104F50003A0E0201CC6F000155EC14F07BC2C4F292
:104F6000010E0201C56F000147EC15F03A0E020177
:104F7000CC6F000155EC14F07AC2C4F2010E0201AC
:104F8000C56F000147EC15F00A0E0201CC6F00015D
:104F900055EC14F00D0E0201CC6F000155EC14F02D
:104FA00012000201C4BF12D00F0E006EC3390016EA
:104FB0000A0E005C03E2300E002602D0C451002627
:104FC00000C0CCF2000155EC14F002010F0EC31723
:104FD0000A0EC35D02E2300E02D0C49FC451C32743
:104FE000C3C2CCF2000155EC14F0120060C0C2F252
:104FF0005FC0C1F26C0EF66E130EF76E0E0E02015C
:10500000C56F0001B1EC14F0C2C2C3F2570E020129
:10501000C46F0001C6DF2E0E0201CC6F000155ECFB
:1050200014F0C1C2C3F2570E0201C46F0001B9DF10
:10503000200E0201CC6F000155EC14F0560E020157
:10504000CC6F000155EC14F012005EC0C2F25DC0DE
:10505000C1F2820EF66E130EF76E0E0E0201C56FD0
:105060000001B1EC14F0C2C2C3F2570E0201C46FCA
:10507000000197DF2E0E0201CC6F000155EC14F0F9
:10508000C1C2C3F2570E0201C46F00018ADF200EB5
:105090000201CC6F000155EC14F0560E0201CC6FEA
:1050A000000155EC14F01200380EF66E130EF76E78
:1050B000100E0201C56F0001B1EC14F062C0C3F222
:1050C000370E0201C46F00016CDF61C0C3F2370EFE
:1050D0000201C46F000165DF4B0EF66E130EF76E12
:1050E000050E0201C56F0001B1EC14F01200520E62
:1050F000F66E130EF76E100E0201C56F0001B1ECD3
:1051000014F064C0C3F2370E0201C46F000149DF1E
:1051100063C0C3F2370E0201C46F000142DF650EA7
:10512000F66E130EF76E050E0201C56F0001B1ECAD
:1051300014F01200D20EF66E0A0EF76E220E020165
:10514000C56F0001B1EC14F037C0C4F21B0E0201B0
:10515000C56F000147EC15F0F60EF66E0A0EF76EFD
:105160000A0E0201C56F0001B1EC14F0DCEF28F06B
:1051700020EF29F0D6EC14F0340EF66E1C0EF76E0C
:105180007BEC14F001DE91DED1DE480EF66E1C0ED3
:10519000F76E7BEC14F02ADF58DFC5EC14F0620EDA
:1051A000F66E1C0EF76E7BEC14F07EDFA0DFC5EC14
:1051B00014F0CBEC14F0BED7773D01D01DD0840E97
:1051C000F66E1C0EF76E2E0E0201C56F0001B1ECDB
:1051D00014F077C0C4F21B0E0201C56F000147EC4A
:1051E00015F0B40EF66E1C0EF76E080E0201C56FB8
:1051F0000001B1EC14F006D0BE0EF66E1C0EF76E78
:105200007BEC14F01E0EF66E1D0EF76E300E0201D2
:10521000C56F0001B1EC14F08AC2C3F2570E02014F
:10522000C46F0001BEDE0A0E0201CC6F000155EC16
:1052300014F00D0E0201CC6F000155EC14F098D75C
:10524000CBEC14F08BEF29F0EF5210E0EACFC2F272
:10525000E9CFC1F2EFCFCCF255EC14F0C2C2EAFFB5
:10526000C1C2E9FFE92AD8B4EA2AEED772EF2AF0E0
:10527000CBEC14F0BDD40201B76B00014BDD012C67
:1052800034D0540EF66E1D0EF76E7BEC14F0590EF2
:105290006E6FFA0E0201C66F000139EC13F0196A45
:1052A000F2BE198EF29E070E0201F26F000118EC99
:1052B0000CF019BEF28ED9EC17F0640E0201C66F25
:1052C000000139EC13F0196AF2BE198EF29E070E36
:1052D0000201F26F0001F4EC0BF019BEF28ECBEC80
:1052E00014F053EC19F0FF000BD1010E0201B76F5F
:1052F000000110DD012C07D0D6EC14F0CBEC14F03B
:1053000053EC19F0FDD0020E0201B76F000102DD6F
:10531000012C06D02FD7CBEC14F053EC19F0F0D0C1
:10532000040E0201B76F0001F5DC012C06D02CDD64
:10533000CBEC14F053EC19F0E3D00D0E0201B76F73
:105340000001E8DC012C06D0AFDECBEC14F053EC0E
:1053500019F0D6D00E0E0201B76F0001DBDC012C74
:1053600006D0C5DECBEC14F053EC19F0C9D0060E14
:105370000201B76F0001CEDC012C06D066DECBEC5B
:1053800014F053EC19F0BCD0050E0201B76F000108
:10539000C1DC012C06D02ADECBEC14F053EC19F062
:1053A000AFD00A0E0201B76F0001B4DC012C06D0A9
:1053B000BDDDCBEC14F053EC19F0A2D00B0E0201C2
:1053C000B76F0001A7DC012C06D06FDDCBEC14F029
:1053D00053EC19F095D00F0E0201B76F00019ADC63
:1053E000012C11D04DEC18F0640E0201C66F0001C3
:1053F00039EC13F07A0EF66E1D0EF76E7BEC14F09E
:1054000053EC19F07DD0100E0201B76F000182DC61
:10541000012C11D0010E7B6F196AF2BE198EF29E1B
:10542000060E0201F26F000118EC0CF019BEF28EAC
:1054300053EC19F065D0110E0201B76F00016ADC60
:10544000012C10D07B6B196AF2BE198EF29E060EEB
:105450000201F26F0001F4EC0BF019BEF28E53EC76
:1054600019F04ED0120E0201B76F000153DC012C6F
:1054700012D0010E7A6F196AF2BE198EF29E050ED5
:105480000201F26F000118EC0CF019BEF28E53EC21
:1054900019F036D035D0130E0201B76F00013ADC97
:1054A000012C11D07A6B196AF2BE198EF29E050E8C
:1054B0000201F26F0001F4EC0BF019BEF28E53EC16
:1054C00019F01ED01DD0840EF66E1D0EF76E0E0E56
:1054D0000201C56F0001B1EC14F0020EEA6E390E44
:1054E000E96EB2D6940EF66E1D0EF76E030E020133
:1054F000C56F0001B1EC14F0CBEC14F053EC19F0D3
:10550000C6EF3AF0F86AD09E078EFE0E006E060EC9
:10551000016E020EE96E000EEA6EEE6A002EFDD7F5
:10552000012EFBD7600ED36E9B8C9B9E1A6AB89699
:105530000C0EAF6EA20EAC6E900EAB6E948694887D
:10554000D20EC86E360EC66EC580CF0ECB6E060E5E
:10555000CA6E9494B76AB66A010EB96E680EBE6ED2
:105560000C0EBD6E030E02018D6F8F6B8E6B000EE5
:105570007E6EC198C19A7F50E00B7F6E799A7998C0
:105580007A6A7B6A020E236EFB0E226E030EFC6F9C
:10559000010EFB6FFE6BFD6B00011C6A1D6AD09C47
:1055A000949A8B9AE00E7C6EF19E420E006E002E55
:1055B000FED7000001012F852F9902018969C26B76
:1055C0002A0EC16FC2C2C4F2C1C2C3F2C3C2E9FF94
:1055D000C4C2EAFF560E036E060EEF6E03C0ECFF68
:1055E000020EC325E96E000EC421EA6EFCCFEFFF68
:1055F000030EC325E96E000EC421EA6EE0CFEFFF73
:10560000000E016E02D024C001F001C02FF0010194
:105610002F93266B256B929A898A949A8B8A929EF5
:10562000898E929C898C252BD8B4262B196AF2BEC0
:10563000198EF29E040E0201F26F000118EC0CF0BC
:1056400019BEF28E196AF2BE198EF29E020E020186
:10565000F26F000118EC0CF019BEF28E196AF2BE5E
:10566000198EF29E030E0201F26F0001F4EC0BF0B2
:1056700019BEF28EF2CFC1F2F29E010EA96EA69C67
:10568000A69EA680A8500201C1BFF28E316EF2CF55
:10569000C1F2F29E020EA96EA69CA69EA680A850FC
:1056A000C1BFF28E326E00010BEC13F034EC13F03C
:1056B000840ED56E8F0ECD6E000E0509CA6E640E77
:1056C000CB6EA50EB16E323C09D00B0E7E6EC1982A
:1056D000C19A7F50E00B0A097F6E0AD0325208E16E
:1056E0000F0E7E6EC198C19A7F50E00B0A097F6E43
:1056F000C050C00B3409C06EC08EC280799A7998B0
:10570000040E7A6E7B6EB56A800EB46EC198C19A33
:10571000020E956F650E946F020E976F780E966F5E
:10572000020E996F810E986F020E9B6FB00E9A6FEA
:10573000020E9D6FE80E9C6F020E9F6FFA0E9E6F19
:10574000030EA16F730EA06F030EA36F6A0EA26FFC
:10575000030EA56F570EA46F030EA76F4E0EA66F14
:10576000020EA96FE80EA86F020EAB6F8A0EAA6F29
:10577000000E016EC250C30B0110C26EC282020144
:10578000C0B104D0C091C2A2C081FAD7C2B2FED7C4
:10579000C4CFCFF00001C3CFCEF0CF51A95D13E34A
:1057A00003E1A851CE5D0FE2949A8B9A929E899E56
:1057B000929C899C929A899A640E0201C66F00019C
:1057C00039EC13F0FF00949A8B8A9185AF6B7C0EB5
:1057D000AE6FB16B820EB06F010EB36F310EB26F50
:1057E000010EB56F6D0EB46F010EB76FAA0EB66FD6
:1057F000010EB96FC80EB86F020EBB6F040EBA6F00
:10580000690E8C6FA20E8B6F090E8A6F7E0E896FE8
:10581000690E906FA20E8F6F090E8E6F7E0E8D6FC8
:105820000101306B050E176F156B0001919F7769B1
:1058300001011C95800E0C6F010E0001FC6FFCC075
:105840005CF0948E948C9D86FB0ED76E1D0ED66EEA
:10585000F28A9D809D82FE0EB36ED30EB26EA08240
:10586000315202E19D889D8AF2867D8AC00EF21235
:105870000BEC13F00201C46BC36B090EC26F600E18
:10588000C16FC86B7A0EC76F120EC66FC56B000171
:1058900097EF13F0010E0201C26FF40EC16F000109
:1058A00017EF14F09191196AF2BE198EF29E070E4D
:1058B0000201F26F0001F4EC0BF019BEF28E04004D
:1058C000190E0201C66F000139EC13F0938C81BCF4
:1058D0001CD0196AF2BE198EF29E070E0201F26FF9
:1058E000000118EC0CF019BEF28ED9EC17F017EC91
:1058F00019F0196AF2BE198EF29E070E0201F26FBC
:105900000001F4EC0BF019BEF28E01012FA511D0AD
:10591000000117EC19F0196AF2BE198EF29E070EFB
:105920000201F26F0001F4EC0BF019BEF28E0101DE
:105930002F950001D6EC14F053EC19F0190E02016A
:10594000C66F000139EC13F00101249524972499C6
:10595000249B249D249F2F9102018351590803E227
:105960000101248502018451590803E201012487C1
:1059700002018551230803E20101248902018651B5
:10598000070802E3865303E10101248B02018751DA
:10599000310802E3875303E10101248D020188519C
:1059A000120802E3885303E10101248F02018951A7
:1059B000990803E201012F810201010124B50CD0F5
:1059C00024B70AD024B908D024BB06D024BD04D003
:1059D00024BF02D02FA10CD0B20EF66E1D0EF76EB2
:1059E00000017BEC14F038C08AF293EC15F0010151
:1059F000196AF2BE198EF29E030E0201F26F0001C7
:105A0000F4EC0BF019BEF28EC4EF19F0D1EC19F0E2
:105A10009191DEEF19F037C078F035C079F034C0DD
:105A200077F03AC07EF039C07DF03BC085F033C0DE
:105A300086F07669FCC0FDF0FCC05CF0020E7C6F65
:105A4000600E0101116FC80EF66E1D0EF76E00019B
:105A50007BEC14F055EC16F0050E01011E6F0001F1
:105A60000CEC1AF018EC1AF00400196AF2BE198E48
:105A7000F29E070E0201F26F0001F4EC0BF019BE6A
:105A8000F28E196AF2BE198EF29E010E0201F26FB9
:105A90000001F4EC0BF019BEF28E0101036B026BF6
:105AA000186B196B2F8300011EEC1AF00101252BD6
:105AB000D8B4262B26C16BF025C16AF00400000182
:105AC00077EC1AF018EC1AF0323C02D092948984E8
:105AD00016EF1BF08EEF22F096EF22F0D1EC19F0CA
:105AE000B5C0BDF2B4C0BCF2050EB45D0201BE6F1C
:105AF000000E0001B5590201BF6F00018553D8A403
:105B0000DAEF33F091A514D01EEC1AF0010E020169
:105B1000C26F020EC36F00015BEC18F00101252B70
:105B2000D8B4262B26C16BF025C16AF00400000111
:105B300091A90DD091A50BD09195E20EF66E1D0E98
:105B4000F76E7BEC14F077EC1AF018EC1AF091B9C0
:105B500073D191B571D11C0EF66E1E0EF76E7BECF3
:105B600014F0A6EC22F03C0EF66E1E0EF76E7BECE7
:105B700014F0640E0201C66F000139EC13F001014C
:105B80001C81929E898E929C898C020E0001FC6F72
:105B9000230E862501011A6F1A531FE00001A6EC9F
:105BA00022F00101252BD8B4262B26C16BF025C18C
:105BB0006AF00400190E0201C66F000139EC13F0FF
:105BC000010E0201C26F020EC36F00015BEC18F000
:105BD0001EEC1AF0919F0101DFD7196AF2BE198EEF
:105BE000F29E020E0201F26F000118EC0CF019BED9
:105BF000F28E91A90AD0010116510208D8A002D054
:105C0000000103D00001DDEC22F001011C91320EF5
:105C10000201C66F000139EC13F0929E899E929C9E
:105C2000899C0101252BD8B4262B26C16BF025C1F8
:105C30006AF004006C0EF66E1E0EF76E00017BEC2F
:105C400014F0FC51020809E00CEC1AF077EC1AF0A1
:105C500018EC1AF001011C8300010101252BD8B4B6
:105C6000262B26C16BF025C16AF004009C0EF66E4F
:105C70001E0EF76E00017BEC14F0A6EC22F0929E53
:105C8000899E929C899C01011C8500019DEC17F066
:105C9000960E0201C66F000139EC13F0D56ACC6A8A
:105CA000B36AB26AF29A9D92A0929D989D9A9D962F
:105CB00001011C85196AF2BE198EF29E0201F26B77
:105CC0000001F4EC0BF019BEF28E929E899E929C1C
:105CD000899C0101252BD8B4262B26C16BF025C148
:105CE0006AF0040078C01DF100017AEC23F0640E24
:105CF0000201C66F000139EC13F0919915C114F13E
:105D0000640E0201C66F000139EC13F00101166B3D
:105D10001D53D8B48DD0929E899E929C899CD3CFDE
:105D200000F0D39E030000C0D3FF252BD8B4262B50
:105D300026C16BF025C16AF0040000011EEC1AF0C8
:105D4000196AF2BE198EF29EEFEC0CF019BEF28EBB
:105D5000A551CF5D34E303E1CE51A45D30E20101F2
:105D60001CA302D000012BD000019185929E898E48
:105D70000A0E0201C66F000139EC13F0929C898C67
:105D800092EC23F09D820A0E0201C66F000139ECED
:105D900013F0C9EC23F0320E0201C66F000139EC9A
:105DA00013F00101252BD8B4262B26C16BF025C199
:105DB0006AF004000001CFEC23F0DDEC22F091A9A1
:105DC0000AD0010116510208D8A002D0000103D068
:105DD0000001DDEC22F0928880B828D09185949A59
:105DE0008B8A929E898E929C898C08EC0DF092ECA5
:105DF00023F09D820A0E0201C66F000139EC13F0F8
:105E0000C9EC23F0640E0201C66F000139EC13F0F7
:105E10000101252BD8B4262B26C16BF025C16AF0D1
:105E200004000001CFEC23F0DDEC22F0010170D77B
:105E300000014BD7DDEC22F076536FE101011C81AC
:105E4000929C898C000108EC0DF0190E0201C66FBE
:105E5000000139EC13F00101252BD8B4262B26C103
:105E60006BF025C16AF0040000017669C00EF66E81
:105E70001E0EF76E7BEC14F0196AF2BE198EF29EBC
:105E8000020E0201F26F000118EC0CF019BEF28E46
:105E9000196AF2BE198EF29E020E0201F26F000123
:105EA000F4EC0BF019BEF28ED5EC23F0196AF2BEB9
:105EB000198EF29E020E0201F26F000118EC0CF036
:105EC00019BEF28E020EF66E1F0EF76E7BEC14F00A
:105ED00001011A6B929C899C000192EC23F0929C28
:105EE000898C320E0201C66F000139EC13F0380EB6
:105EF000F66E1F0EF76E7BEC14F0EF6BEE6BF16B32
:105F0000F06BF36BF26BCF6BCE6B01011C91320E19
:105F10000201C66F000139EC13F0928880B895D168
:105F200091A993D101011E53D8B402D000018DD1A3
:105F3000252BD8B4262B26C16BF025C16AF00400AE
:105F4000190E0201C66F000139EC13F0928880B877
:105F500002D091B934D00201C26B250EC16FC2C20A
:105F6000F5F2C1C2F4F2010EF66FF4C2E9FFF5C218
:105F7000EAFFFA6BF96BECCFF8F2ED52EFCFF7F2E4
:105F8000020EF425E96E000EF521EA6EEFCFFCFF5C
:105F9000F65302E1010EF66FF6C224F0030EF4256B
:105FA000E96E000EF521EA6EEFCFE0FFF8C2FAFFCE
:105FB000F7C2E8FFF96E01C02FF01ED000019288F1
:105FC00080B819D091A917D0A6EC22F0010E676F06
:105FD000C9EC23F00101252BD8B4262B26C16BF088
:105FE00025C16AF00400640E0201C66F000139EC9D
:105FF00013F0CFEC23F002010001A6EC22F0500ECA
:10600000F66E1F0EF76E7BEC14F0640E0201C66F85
:10601000000139EC13F001011C81929C898C000174
:10602000D5EC23F001011C91320E0201C66F000174
:1060300039EC13F0929E899E929C899C0101252B3C
:10604000D8B4262B26C16BF025C16AF00400880E57
:10605000F66E1F0EF76E00017BEC14F0FC51020887
:1060600009E00CEC1AF077EC1AF018EC1AF00101C8
:106070001C8300010101252BD8B4262B26C16BF00F
:1060800025C16AF00400C00EF66E1F0EF76E000107
:106090007BEC14F0A6EC22F0929E899E929C899C47
:1060A00001011C8500019DEC17F0960E0201C66FE0
:1060B000000139EC13F0D56ACC6AB36AB26AF29A7D
:1060C0009D92A0929D989D9A9D9601011C85196AAA
:1060D000F2BE198EF29E0201F26B0001F4EC0BF09D
:1060E00019BEF28E929E899E929C899C0101252B5D
:1060F000D8B4262B26C16BF025C16AF0040078C005
:106100001DF100017AEC23F0640E0201C66F00015C
:1061100039EC13F0919915C114F1640E0201C66FA8
:10612000000139EC13F001011D53D8B48AD0929EBE
:10613000899E929C899CD3CF00F0D39E030000C01F
:10614000D3FF252BD8B4262B26C16BF025C16AF0CE
:10615000040000011EEC1AF0196AF2BE198EF29EBC
:10616000EFEC0CF019BEF28EA551CF5D34E303E1E4
:10617000CE51A45D30E201011CA302D000012BD05E
:1061800000019185929E898E0A0E0201C66F000160
:1061900039EC13F0929C898C92EC23F09D820A0ECC
:1061A0000201C66F000139EC13F0C9EC23F0320E86
:1061B0000201C66F000139EC13F00101252BD8B4A0
:1061C000262B26C16BF025C16AF004000001CFEC3C
:1061D00023F0DDEC22F091A902D0DDEC22F09288D0
:1061E00080B82ED09185949A8B8A929E898E929CAB
:1061F000898C08EC0DF092EC23F00A0E0201C66FB8
:10620000000139EC13F09D820A0E0201C66F0001F5
:1062100039EC13F0C9EC23F0640E0201C66F0001E3
:1062200039EC13F00101252BD8B4262B26C16BF0D5
:1062300025C16AF004000001CFEC23F0DDEC22F070
:1062400072D700014FD7DDEC22F0C151995DD8A083
:1062500040D104E19851C05DD8B03BD1FC51020857
:10626000D8A437D191A935D10101135306E11251B8
:106270000E08D8A002D000012CD11E53D8B402D0F1
:10628000000127D1E40EF66E1F0EF76E00017BECC5
:1062900014F001011C81929C898C0001D5EC23F043
:1062A00001011C91320E0201C66F000139EC13F09E
:1062B0000101252BD8B4262B26C16BF025C16AF02D
:1062C0000400140EF66E200EF76E00017BEC14F045
:1062D0000400440EF66E200EF76E7BEC14F0A6EC74
