:040800000EEF2BF0DC
:08080800046ED8CF05F0E0CF2B
:1008100006F00001E9CF0CF0EACF07F0E1CF08F0D5
:10082000E2CF09F0D9CF0AF0DACF0BF0F3CF12F014
:10083000F4CF13F0FACF14F0F5CF15F0F6CF16F091
:10084000F7CF17F000C00EF001C00FF002C010F09B
:1008500003C011F09DA630EF04F09EB6A5EF07F09F
:10086000A0A236EF04F0A1B23AEF0DF09DA03CEF4C
:1008700004F09EB0D0EF05F09DAA42EF04F09EBABE
:100880001EEF05F09DA848EF04F09EB8F9EF04F0C4
:10089000F2AA4EEF04F0F2B4CAEF0CF09DA254EFAE
:1008A00004F09EB2E2EF0CF0F2A65AEF04F0F2B0C0
:1008B000E6EF0CF00EC000F00FC001F010C002F027
:1008C00011C003F00CC0E9FF07C0EAFF078E08C0A3
:1008D000E1FF09C0E2FF0AC0D9FF0BC0DAFF12C076
:1008E000F3FF13C0F4FF14C0FAFF15C0F5FF16C0E4
:1008F000F6FF17C0F7FF045006C0E0FF05C0D8FFA1
:100900001000F36ED890F734F66EF746010EF71626
:10091000320EF626090EF7220900F5500900F626D8
:10092000F550F722F350F626000EF7220900F55095
:10093000120026002D0034003A003F004100440020
:10094000470051005C00620066006A006F007200A0
:10095000750079007F0086008D0040464143544F6A
:100960005259004056455253494F4E00405354414E
:100970005455530040414E544D500040504D00409E
:1009800052504900404241540040505752494E464F
:100990004F204F4E0040505752494E464F204F4631
:1009A0004600404C5052535441004054494D45007C
:1009B0004044415445004052544343460040414462
:1009C00031004041443200404245455000405245CC
:1009D00044204F4E0040524544204F46460040427E
:1009E0004C5545204F4E0040424C5545204F464601
:1009F00000000101B151B05D10E0036AB151300F48
:100A0000E96E010E0320EA6EEFCFEAF2EAC2ADFF13
:100A1000010EB1257F0BB16F01D09D989E9800010A
:100A20005AEF04F09EAAFED7ABCF1AF0AECF01F07A
:100A30001AA202D0AB98AB882CEF05F0036A020132
:100A40003251B20FE96E010E0320EA6EEACFEEF2E8
:100A5000E9CFEDF20001E6D7EEC2EAFFEDC2E9FF11
:100A600001C0EFFF32C2EAF2010E020132257F0B14
:100A7000326F3351325D02E1EAC232F29E9A0001D6
:100A80005AEF04F00A0D555053205049636F20521D
:100A900054432054696D653A253032753A25303219
:100AA000753A253032750A0D00000A0D5555505320
:100AB000205049636F2052544320446174653A25A5
:100AC00030344C753A253032753A253032750A0D7E
:100AD00000004C6F7720506F7765722052657374F9
:100AE0006172742054696D6528204C5052535441F2
:100AF000202969732575207365636F6E64730A0D11
:100B000000000201EB39006E0F0E001600500A0DB6
:100B1000F3CFECF2EB510F0BEC25016E000112004C
:100B20000201EA51060804E3EA2BEAC201F007D009
:100B3000EA51070804E1010EEA6FEAC201F0000180
:100B400044EF07F00201ED51016AEC5D03E2ECC2F3
:100B500000F00CD0006A080EEE6FEC370036ED5155
:100B6000005CD8B0006E0136EE2FF7D700011200FE
:100B7000EAC2ECF20A0E0201ED6F0001E3DF013878
:100B80000201EB6FF00EEB17EAC2ECF20A0EED6F0A
:100B90000001D8DF00500201EB25016E00011200B8
:100BA000CEA0FED7CE5001012E6FCFCF2FF1020184
:100BB000855310E12EC1EAF2800E01012F250201BA
:100BC000EB6F020EEA5F000EEB5BEBC2CFFFEAC2F7
:100BD000CEFF31D08551000817E28551800814E31B
:100BE0002EC1EAF2800E01012F250201EB6F855123
:100BF000EA27000EEB23020EEA5F000EEB5BEBC26E
:100C0000CFFFEAC2CEFF17D08551800814E22EC173
:100C1000EAF2800E01012F250201EB6F800E855D47
:100C2000EA5F000EEB5B020EEA5F000EEB5BEBC2CD
:100C3000CFFFEAC2CEFF01012DA942D002017E51B1
:100C40007F0BEA6FEB6F00015CDF01C075F2020100
:100C50007F517F0BEA6FEB6F000153DF01C076F22B
:100C6000020180513F0BEA6FEB6F00014ADF01C0C8
:100C700077F202018151070BEA6FEB6F000141DF50
:100C800001C078F2020182513F0BEA6FEB6F000165
:100C900038DF01C079F2020183511F0BEA6FEB6F5D
:100CA00000012FDF01C07AF2020184517F0BEA6F4D
:100CB000EB6F000126DF01C07BF201012D9936D1D7
:100CC0002DB903D00201752B01011751185D04E104
:100CD000000190970AD001011751185D05E000014D
:100CE00090870101186B192B000118C117F1010140
:100CF0001FA301D0AAD029A95AD0255302E1265317
:100D000048E02551275D45E12651285D42E1299BB8
:100D10002E0E2C6FE00E2B6F2B5302E12C5304E0B0
:100D200029BD01D001D0F8D7298F0201EB6B2A0E23
:100D3000EA6FEBC2EDF2EAC2ECF2020EEE6FECC229
:100D4000E9FFEDC2EAFFF26BF16BECCFF0F2ED528E
:100D5000EFCFEFF2020EEC25E96E000EED21EA6E08
:100D6000EFCFFCFFEE5302E1010EEE6FEEC224F076
:100D7000030EEC25E96E000EED21EA6EEFCFE0FFE9
:100D8000F0C2FAFFEFC2E8FFF96E01C02FF010D0F9
:100D90000101255302E126530AE02551275D03E1B5
:100DA0002651285D04E026C128F125C127F1020162
:100DB0000001852D0BD0FF51020808E101012453E9
:100DC000D8A402D0000102D0240700010101015380
:100DD00002E0010703D0015301E11F870001763DC6
:100DE00001D003D0765301E0760701011A5307E0E2
:100DF000000190B902D0010102D001011A070001DF
:100E0000FF51020808E190A706D00101152BD8B4C4
:100E1000162B09D00001FF51020806E090A704D06C
:100E20000101166B156B00010101235301E023073B
:100E30001FB501D01F85000190AD08D001011E53E0
:100E4000D8A402D0000102D01E07000101012053E6
:100E500001E02007215301E021071D5301E01D0798
:100E6000020175513C083DE1762B756B76513C08CB
:100E700038E1772B766B7751180833E1792B776B54
:100E800078C2EAF200014CD601C078F20201795131
:100E90001D0806E17A51020803E17B51030B18E1BA
:100EA00079511E0803E17A51020812E079511F08B6
:100EB0000CE17A5104080CE07A51060809E07A51F5
:100EC000090806E07A510B0803E07951200803E194
:100ED0007A2B010E796F7A510D0803E17B2B010EFD
:100EE0007A6F75C2EAF2000143DE01C07EF276C27B
:100EF000EAF23EDE01C07FF277C2EAF239DE01C0DB
:100F000080F278C2EAF234DE01C081F279C2EAF2FC
:100F10002FDE01C082F27AC2EAF22ADE01C083F239
:100F20007BC2EAF225DE01C084F201019E9000013D
:100F30005AEF04F0C950EDC2C9FFC6889E96C7B0EB
:100F4000FED7016AC6B8012A12000101298DC7BA6D
:100F500004D00201886BC7B4888F02018851882BA6
:100F6000EB6F2A0E006E002EFED70000EB518008BA
:100F7000D8A06ED0EB51800803E1C9CFEAF206D0C9
:100F8000C69C9EA6FED7C950C688EA6FEB5303E005
:100F9000EB51800803E1EAC287F25AD0EB2D03D06F
:100FA000EAC27CF255D0EB51010852E2EB518008C5
:100FB0004FE08751D00818E17C5107080AE37C51C3
:100FC0007C2B036A7E0FE96E020E0320EA6EEAC2F2
:100FD000EFFF7C51070808E1800ECF6ECE6A010159
:100FE0002D89020E02017D6F8751D2080EE17C51DE
:100FF00011080AE37C517C2B036A5C0FE96E000E3A
:101000000320EA6EEAC2EFFF23D08751D4080EE135
:101010007C5108080AE37C517C2B036A7E0FE96E41
:10102000020E0320EA6EEAC2EFFF12D08751D60803
:101030000EE17C5119080AE37C517C2B036A6E0F88
:10104000E96E000E0320EA6EEAC2EFFF01D0000055
:10105000EB517F08D8B09BD0EB51800802E1C9CF9B
:10106000EAF28751D10819E17C5108080EE37C515E
:101070007C2B036A7E0FE96E020E0320EA6EEFCF2F
:10108000EDF2000157DF08D002017C51080805E2AB
:10109000ED6900014FDF000002018751D3081AE11A
:1010A0007C5111080EE37C517C2B036A5C0FE96EC6
:1010B000000E0320EA6EEFCFEDF200013BDF08D017
:1010C00002017C51110805E2ED69000133DF0000E7
:1010D00002015DD08751D5081AE17C5108080EE362
:1010E0007C517C2B036A7E0FE96E020E0320EA6EB0
:1010F000EFCFEDF200011EDF08D002017C5108089D
:1011000005E2ED69000116DF0000020140D08751C1
:10111000D7081AE17C5119080EE37C517C2B036A35
:101120006E0FE96E000E0320EA6EEFCFEDF20001C4
:1011300001DF08D002017C51190805E2ED690001C8
:10114000F9DE0000020123D08751D90806E1ED69DC
:101150000001F0DE00001AD002018751DB0806E131
:10116000ED690001E7DE000011D002018751DD08C2
:1011700006E1ED690001DEDE000008D002018751C2
:10118000DF0805E1ED690001D5DE000002017E51B6
:10119000590802E275C27EF27F51590802E276C216
:1011A0007FF28051230802E277C280F28151070862
:1011B00002E278C281F28251310802E279C282F2FF
:1011C0008351120802E27AC283F28451990802E242
:1011D0007BC284F20101299D00009E9600015AEF16
:1011E00004F00A0D49324320616464726573732010
:1011F00053656C65637465643A004932435F4E4FD2
:10120000524D414C0A0D00004932435F4D494E4951
:101210004D414C0A0D004932435F4E4F5254430A30
:101220000D004932435F4D494E494D414C0A0D0076
:101230000A0D555053205049636F20524553544175
:1012400052542043415553453A20000052455345DE
:10125000545F494E535452554354494F4E005744DE
:10126000545F46524F4D5F534C4545500000574424
:10127000545F54494D454F5554004D434C525F46C1
:10128000524F4D5F534C454550004E4F524D414CCF
:101290005F504F5745525F55500042524F574E4F87
:1012A00055545F5245535441525400004D434C52E3
:1012B0005F46524F4D5F52554E00554E4B4E4F5765
:1012C0004E20524541534F4E00000A0D7069636F26
:1012D000636D642E7661722E626D6F64653A25755A
:1012E00000000A0D4261747465727920436861726E
:1012F000676572204F4E00000A0D4261747465727A
:10130000792043686172676572204F4646000A0D76
:101310002D2D2D2D2D2D2D2D2D2D2D2D2D2D2D2DFD
:101320002D2D2D2D2D2D0A0D00000A0D506F7765E6
:1013300072696E6720536F757263653A00004241AF
:1013400054004C50520052504900554E4B4E4F578E
:1013500000000A0D412F44312056616C75652069EB
:10136000733A254C58205B6D565D00000A0D412FE5
:1013700044322056616C75652069733A254C5820BB
:101380005B6D565D00000A0D52506920566F6C74FB
:101390006167653A25782E25782056000A0D42416E
:1013A0005420566F6C746167653A25782E25782035
:1013B00056000A0D5772697474696E67205365741C
:1013C000757020746F20555053205049636F20452D
:1013D0004550524F4D0A0D000A0D0A0D2D2D2D2D91
:1013E0002D2D2D2D2D2D2D2D2D2D2D2D2D2D2D2D2D
:1013F0002D2D0A0D7777772E70696D6F64756C658A
:10140000732E636F6D000A0D555053205049636F62
:101410002048617264776172652052656C65617302
:10142000653A2056312E3030202563000A0D555084
:1014300053205049636F2048617264776172652060
:1014400052656C656173653A2056312E3130202526
:1014500063000A0D555053205049636F2048617254
:1014600064776172652052656C656173653A2056D8
:10147000312E3131202563000A0D5550532050493B
:10148000636F2048617264776172652052656C6594
:101490006173653A2056312E3220256300000A0D13
:1014A000556E6B6E6F776E20547970653A25630ABE
:1014B0000D000A0D4669726D776172652052656C88
:1014C000656173653A2056257300312E30205842ED
:1014D0004D432032352E30322E32303136203078A6
:1014E00035430000466163746F727920446566611C
:1014F000756C74732053657474696E672075702001
:1015000050726F6365647572650A0D000A0D45724D
:101510006173696E6720555053205049636F20698D
:101520006E7465726E616C20454550524F4D0000DF
:101530000A0D454550524F4D204572617365640058
:101540000A0D466163746F7279204C6F7720506F7B
:1015500077657220526573746172742054696D6589
:101560002069733A202575205365636F6E6473009C
:101570000A0D466163746F727920426174746572FA
:10158000792052756E6E696E672054696D652069A9
:10159000732073657420746F3A202575207365631A
:1015A0006F6E647300000A0D4361626C6520506FBA
:1015B0007765722052657475726E207465737469F4
:1015C0006E672074696D656F75742073657420741F
:1015D0006F3A202575205365636F6E6473000A0DA2
:1015E0005374696C6C20416C6976652054696D6533
:1015F0007220686173206265656E20646973616240
:101600006C6564000A0D53657474696E67207570AB
:101610002052544300000A0D466163746F727920B2
:10162000536574757020596561723A323030300AF2
:101630000D466163746F7279205365747570204D27
:101640006F6E74683A30310A0D466163746F727957
:1016500020536574757020446F773A30310A0D4617
:101660006163746F72792053657475702044617979
:101670003A3031000A0D5265616C2054696D652065
:10168000436C6F636B20436F7272656374696F6E36
:1016900020466163746F722073657420746F20300C
:1016A000205365636F6E647300000A0D58424D430A
:1016B0002046756E6374696F6E616C697479206819
:1016C0006173206265656E2064697361626C656434
:1016D00000000A0D465353442054696D656F7574BC
:1016E0002053657420746F202575205365636F6ED9
:1016F000647300000A0D54656D70657261747572D3
:1017000020544F2D39322053656E736F72206973E8
:10171000204E4F5420696E7374616C6C65640000D8
:101720000A0D546865205049636F205365726961E2
:101730006C20506F727420697320656E61626C65F5
:101740006420284E4F5420617661696C61626C653B
:101750002920666F72206F74686572205261737001
:101760006265727279205069206170706C69636182
:1017700074696F6E73000A0D5254432073657420B0
:10178000746F2044656661756C740000020E02017E
:10179000EA5F0CE3020EEA6EEA0EE96EEF5006E035
:1017A00003D000D000D00000EF2EFBD700011200C4
:1017B00093948A9493928A92010E0201EE6FEE51F5
:1017C00008081AE3EDC203F0ECC2E9FFEDC2EAFF3C
:1017D000EF50800B03E193908A9002D093908A801F
:1017E000EDC2EAFFECC2E9FFD890EF3693948A8409
:1017F00093948A94EE2BE3D793928A8293928A925F
:1018000000011200010E006E0201EA51016E04E0B7
:10181000D8900036012EFCD70050FF0A1B161BC0C3
:10182000EBF2020EED6FEB0EEC6F0001C1DF120068
:101830000B0E01011C6FC80E0201EA6F0001A6DF4A
:10184000030E0201EA6F0001DDDF1200010E006EDF
:101850000201EA51016E04E0D8900036012EFCD757
:1018600000501B121BC0EBF2020EED6FEB0EEC6F83
:1018700000019EDF12000B0E01011C6FC80E020159
:10188000EA6F000183DFD251A25D09E303E1A151B8
:10189000D15D05E2030E0201EA6F0001B3DFA05142
:1018A000D25D09E303E1D1519F5D05E2030E020120
:1018B000EA6F0001CBDF120001012DAD06D000015F
:1018C000DADF01012D9D05D004D00001B1DF010157
:1018D0002D8D0001A9EF0CF001011FA304D0000120
:1018E000A7DF3BD0010100017D2D01D003D07D5148
:1018F000100830E17E5109E0010A09E0030A09E01D
:10190000010A16E0070A16E024D092DF22D0B3DFE6
:1019100020D002018F51030805E20001ACDF020173
:101920008F6B03D0000184DF02018F2B000111D0E7
:10193000C3D70FD002018F51030805E2000178DF01
:1019400002018F6B03D0000196DF02018F2B000193
:1019500000D003D07D5301E16BDFD4EF0CF0EB53EB
:1019600002E0EB0707D00201EA6B00014BDFEE5308
:1019700001E0EE076F530CE1EC5302E0EC0708D0F6
:10198000010E0201EA6F00013DDFEF5301E0EF07B6
:10199000DBEF0CF0F60ED76E3B0ED66E01010F5347
:1019A00001E00F07000198D70201905302E0900771
:1019B00005D00001D4D70A0E0201906FF294000105
:1019C0005AEF04F000009E925AEF04F0936881CF22
:1019D000EAF2000E020191BB010EEB6F000EEABBB2
:1019E000010EEB5D05E00101182BEAC291F2020144
:1019F0000000F29000015AEF04F00A0D2A202A207C
:101A00002A202A2042617474657279206375742DCE
:101A10006F66662070726F74656374696F6E2041C3
:101A20006374697661746564202A202A202A202A3A
:101A30000A0D0000000E016EC250C30B0110C26EF1
:101A4000C2820201EB91C2A2EB81EBB104D0EB9117
:101A5000C2A2EB81FAD7C2B2FED7C4CFD2F0000146
:101A6000C3CFD1F01200909B929A899A01011F99DD
:101A700000011200FD0EB36EA70EB26E01012D81A2
:101A80000001852D01D0908790AF01D0D7D09083F1
:101A9000D1DF90A50AD0949A8B8A929E898E929CCF
:101AA000898C01012D850001C9D00101055302E196
:101AB000065304E00551D8B4060705071B532BE075
:101AC0001B070001D251A45D25E303E1D151A35DC1
:101AD00021E3FF2D1FD090A71DD0949A8B8A929E50
:101AE000898E929C898C01012D850001BCDF020E3C
:101AF000FF6FFFC05CF0D2C0C6F0D1C0C5F079C0A6
:101B000001F1030E0101066FE80E056F3C0E246F14
:101B1000000194D001011C532BE01C070001D2519D
:101B2000A45D25E303E1D151A35D21E3FF2D1FD087
:101B300090A71DD0949A8B8A929E898E929C898CB4
:101B400001012D8500018FDF020EFF6FFFC05CF0E9
:101B5000D2C0C6F0D1C0C5F079C001F1030E0101B9
:101B6000066FE80E056F3C0E246F000167D001017F
:101B70000001FF2D63D090A761D001010553D8B4B7
:101B800002D000015BD00653D8B402D0000156D079
:101B90001B53D8B402D0000151D01C53D8B402D08A
:101BA00000014CD0F4C0F2F0F3C0F1F0F6C0F4F054
:101BB000F5C0F3F0D2C0F6F0D1C0F5F00F0E000181
:101BC000F325016E000EF421036E0350F25D11E364
:101BD00003E1F151015C0DE20F0EF525016E000EDF
:101BE000F621036E0350F45D04E30AE1F351015C56
:101BF00007E3D251A45D22E303E1D151A35D1EE3CB
:101C0000949A8B8A929E898E929C898C01012D8553
:101C1000000129DF020EFF6FD2C0C6F0D1C0C5F0AF
:101C2000FFC05CF079C001F1050E0101026F030EE7
:101C3000066FE80E056F3C0E246F000101010F5383
:101C400038E10001FF2D01D002D0010132D00C0E8D
:101C5000016EC250C30B0110C26EC2820201EA9132
:101C6000C2A2EA81EAB104D0EA91C2A2EA81FAD71B
:101C7000C2B2FED7C4CF08F10101C3CF07F1080EED
:101C8000016EC250C30B0110C26EC2820201EA9102
:101C9000C2A2EA81EAB104D0EA91C2A2EA81FAD7EB
:101CA000C2B2FED7C4CF0AF10101C3CF09F1800E41
:101CB0000F6F2D910000A19200015AEF04F00A0D60
:101CC000555053205049636F205374617475730AE3
:101CD0000D000A0D4176657261676520506F77656A
:101CE00072696E672056616C756573000A0D416EEE
:101CF000616C6F672F4469676974616C20436F6E14
:101D00007665727465722056616C756573000A0D94
:101D100046696C6520536166652053687574646F0D
:101D2000776E207768656E20506F776572206C6FD4
:101D30006F73652054696D652069733A257520536A
:101D400065636F6E647300000A0D46696C6520530D
:101D50006166652053687574646F776E2077686577
:101D60006E20506F776572206C6F6F7365205469B9
:101D70006D6572206973204F46462C2055505320C4
:101D80005049636F2077696C6C20776F726B207598
:101D90006E74696C20626174746572792064697311
:101DA00063686172676564000A0D5265616C205456
:101DB000696D6520436C6F636B20436F727265635E
:101DC00074696F6E20466163746F722076616C7502
:101DD000652069733A20307825780A0D00000A0DD5
:101DE000555053205049636F20466163746F727978
:101DF00020536574757020526571756573746564E0
:101E00000A0D00000A0D426565700A0D00000A0DFA
:101E100042616420436F6D6D616E643A2573200AE0
:101E20000D000A0D5175697474696E672066726FD2
:101E30006D2046535344204C505200000A0D55501B
:101E400053205049636F2048656C74682053797340
:101E500074656D204D6F6E69746F72696E67207264
:101E60006573746172740A0D00000A0D52544320A8
:101E700073657420746F2044656661756C7400002E
:101E80000A0D555053205049636F20537973746580
:101E90006D2053746172746564000A0D5261737031
:101EA00062657272792050692069732072756E6E56
:101EB0006E67202D20626F6F74696E672070726F7D
:101EC00074656374696F6E2064697361626C6564C4
:101ED0000A0D00000A0D52617370626572727920FA
:101EE0005069206973204E4F542072756E6E696E72
:101EF000670A0D000A0D5261737062657272792073
:101F00005069205368757474696E6720646F776ECA
:101F100020686173206265656E2064657465637412
:101F2000656400000A0D52617370626572727920F7
:101F30005069205368757474696E6720646F776E9A
:101F400020686173206265656E20636F6D706C65DB
:101F5000746564000A0D555053205049636F205337
:101F6000797374656D20456E746572696E67204C77
:101F70005052204D6F6465000A0D5374696C6C20DB
:101F8000416C6976652054696D6572207265616384
:101F90006865732030302C20555053205049636FB2
:101FA000204653534420686173206265656E206942
:101FB0006E6974696174656400000A0D5374696C1C
:101FC0006C20416C6976652054696D6572205550AE
:101FD00053205049636F2046535344206861732057
:101FE0006265656E20636F6D706C6574656400007A
:101FF0000A0D52657374617274696E672074686546
:102000002073797374656D000A0D46535344204262
:102010007574746F6E2050726573736564205550CB
:1020200053205049636F2046535344206861732006
:102030006265656E20696E6974696174656400002B
:102040000A0D4653534420427574746F6E205072CB
:10205000657373656420555053205049636F204663
:1020600053534420686173206265656E20636F6D11
:10207000706C6574656400000A0D5550532050491A
:10208000636F2053797374656D20456E7465726952
:102090006E67204C5052204D6F6465000A0D4C6FE6
:1020A00077204261747465727920555053205049ED
:1020B000636F204653534420686173206265656EE8
:1020C00020696E6974696174656400000A0D4C6F63
:1020D00077204261747465727920555053205049BD
:1020E000636F204653534420686173206265656EB8
:1020F00020636F6D706C6574656400000A0D555047
:1021000053205049636F2053797374656D20456E79
:10211000746572696E67204C5052204D6F64650083
:102120000A0D54696D65642046535344205550533D
:10213000205049636F20686173206265656E206975
:102140006E6974696174656400000A0D54696D6597
:1021500064204653534420555053205049636F2008
:102160004653534420686173206265656E20636F37
:102170006D706C65746564000A0D555053205049AC
:10218000636F2053797374656D20456E7465726951
:102190006E67204C5052204D6F6465000A0D205828
:1021A000424D432054696D65642046535344205585
:1021B0005053205049636F20686173206265656EDB
:1021C00020696E6974696174656400000A0D2058A5
:1021D000424D432054696D65642046535344205555
:1021E0005053205049636F20465353442068617315
:1021F000206265656E20636F6D706C657465640048
:102200000A0D555053205049636F205379737465FC
:102210006D20456E746572696E67204C5052204D7A
:102220006F6465000A0D4E65772025752073656320
:102230006F6E6473206F66204C5052535441206877
:102240006173206265656E207772697474656E20B3
:10225000746F2074686520555053205049636F2077
:10226000454550524F4D0A0D00000A0D4E6577202E
:10227000257520584D42432073657474696E67203C
:10228000686173206265656E207772697474656E2B
:1022900020746F2074686520555053205049636F37
:1022A00020454550524F4D0A0D000A0D4E657720CE
:1022B0002575207365636F6E647320465353442005
:1022C0004241542072756E6E696E672054696D6567
:1022D00020686173206265656E2077726974746529
:1022E0006E20746F207468652055505320504963E8
:1022F0006F20454550524F4D0A0D00000A0D4E65A6
:1023000077202575207365636F6E64732046535381
:10231000442074696D656F7574206861732062650F
:10232000656E207772697474656E20746F207468AE
:102330006520555053205049636F20454550524FFA
:102340004D0A0D000A0D46616E2053706565643AB2
:1023500020257520686173206265656E207772693B
:102360007474656E20746F20746865205550532016
:102370005049636F20454550524F4D0A0D000A0DDC
:102380006E6577205254434346203A2025752068D5
:102390006173206265656E207772697474656E2062
:1023A000746F2074686520555053205049636F2026
:1023B000454550524F4D0A0D00000A0D555053200F
:1023C0005049636F20544F2D39322074656D70650C
:1023D0007261747572652073656E736F72206973B4
:1023E00020676F696E6720746F206265204469738F
:1023F00061626C65640A0D000A0D55505320504906
:10240000636F20544F2D39322074656D7065726191
:10241000747572652073656E736F722069732067BF
:102420006F696E6720746F20626520456E61626C13
:10243000656400000A0D555053205049636F2052C7
:102440005332333220676F696E6720746F20626584
:102450002064697361626C65640A0D000A0D555051
:1024600053205049636F20525332333220676F69D3
:102470006E6720686173206265656E20656E6162BB
:102480006C6564000A0D555053205049636F205508
:102490006E636F6E646974696F6E616C204653532E
:1024A00044205265717565737465640A0D000A0DE8
:1024B000555053205049636F20556E636F6E6469A9
:1024C00074696F6E616C20465353442068617320B9
:1024D0006265656E20696E69746961746564000087
:1024E0000A0D555053205049636F20556E636F6E2F
:1024F000646974696F6E616C20465353442068614F
:1025000073206265656E20636F6D706C65746564C1
:1025100000000A0D555053205049636F20537973C2
:1025200074656D20456E746572696E67204C5052FB
:10253000204D6F6465000A0D555053205049636F5C
:1025400020466163746F72792053657475702052F0
:1025500065717565737465640A0D00000A0D555048
:1025600053205049636F2052657365742052657122
:102570007565737465640A0D00000A0D555053208B
:102580005049636F20426F6F746C6F616465722095
:102590005265717565737465640A0D000A0D4856BD
:1025A000312E30207265636F676E697A65640A0D3B
:1025B00000000A0D4856312E31207265636F676E38
:1025C000697A65640A0D00000A0D4856312E3131D2
:1025D000207265636F676E697A65640A0D000A0D83
:1025E0004856312E32207265636F676E697A656472
:1025F0000A0D00000A0D555053205049636F2049C1
:10260000324320686173206265656E2073657420B3
:10261000746F204932435F4E4F524D414C202D2064
:10262000726573657474696E670A0D000A0D555002
:1026300053205049636F2049324320686173206200
:1026400065656E2073657420746F204932435F4D59
:10265000494E494D414C202D207265736574746953
:102660006E670A0D00000A0D555053205049636FE4
:102670002049324320686173206265656E2073656E
:102680007420746F204932435F4E4F525443202DC3
:1026900020726573657474696E670A0D00000A0D17
:1026A000555053205049636F205254432068617342
:1026B000206265656E207570646174656420667261
:1026C0006F6D2F746F207468652052506900020E80
:1026D000EA6EBE0EE96EEF500DE00A0E016E006A62
:1026E000002EFED7012EFBD75F0E006E002EFED708
:1026F000EF2EF3D712009EA8FED70201BB51AD6E9C
:10270000ACA2FED78A0E006E002EFED7000000019C
:1027100094EF13F00900F5520CE0F6CFB9F2F7CFC1
:10272000BAF2F5CFBBF2E7D7B9C2F6FFBAC2F7FFEC
:10273000F1D71200F2CFBCF2F29EA96AA69CA69E27
:10274000A680A8500201BCBFF28E306E3050A00AA5
:10275000000105E0010A08E0030A0BE00FD0F00ECB
:10276000776ED00EC86E0ED0F80E776ED00EC86E93
:1027700009D0FA0E776ED20EC86E04D0F80E776EBE
:10278000D00EC86E1200F00EBD1694948B941200F9
:10279000D8B204D0020EEA6ECE0EE96E006A016A6B
:1027A000026A036A0201CE6BCF6BD06BD16BCD5145
:1027B000CC11CB11CA112CE0200ED26FD890C637A5
:1027C000C737C837C937CE37CF37D037D137CD51D4
:1027D000D15D08E1CC51D05D05E1CB51CF5D02E187
:1027E000CA51CE5D0FE3CA51CE5FCB51D8A0CB3DCD
:1027F000CF5FCC51D8A0CC3DD05FCD51D8A0CD3D3E
:10280000D15FD8800036013602360336D22FD6D7B4
:10281000CEC2EFFFCFC2ECFFD0C2ECFFD1C2ECFFC3
:1028200000011200C0C2C9F2BFC2C8F2BEC2C7F2E4
:10283000BDC2C6F2BCC2CDF2BBC2CCF2BAC2CBF2B0
:10284000B9C2CAF2A5DF025004E1015002E1005012
:102850002EE103C0C9F202C0C8F201C0C7F200C035
:10286000C6F20201CD6BCC6BCB6B040ECA6F0001BC
:102870008FDF025004E1015002E100501BE103C070
:10288000C9F202C0C8F201C0C7F200C0C6F202011C
:10289000CD6BCC6BCB6B040ECA6F000179DF02509D
:1028A00004E1015002E1005008E1006A06D0040E84
:1028B000CA6E05D0050ECA6E02D0060ECA6E00069C
:1028C00000C0CBFF0AEF2DF00201CA6BCB6B010EEB
:1028D000CC6FDA6AD96A020ECF6FC20ECE6F020ECB
:1028E000EA6EC60EE96ECFC2E2FFCEC2E1FFCCC2F5
:1028F000CDF2D890E550EE02F350CA23F450CB232A
:10290000CD2FF7D7CAC2DEFFCBC2CAF2CB6BD8B08D
:10291000CB2BCE2BD8B4CF2BCC2BCC510508DFE161
:1029200000011200CBCFBBF20201BC6BBB2BD8B4B1
:10293000BC2BD890BB37BC37BB37BC37C56BC46B1F
:10294000BCC2C3F2BBC2C2F2C96BC86BBAC2C7F287
:10295000B9C2C6F20001B8DF03C0C9F202C0C8F2B2
:1029600001C0C7F200C0C6F20201CD6BCC6B030EF2
:10297000CB6FE80ECA6F00010BDF00C002F001321E
:1029800000320132003200C0BEFF0236023602368B
:102990000236CF0EBD16300E0214BD1212EF2DF00E
:1029A000313C01D022D00201C5910101B151B05D8D
:1029B00003E10201C5810101036AB051300FE96EE4
:1029C000010E0320EA6EC4C2EFFF010EB0257F0B9B
:1029D0000201C66F0101B1510201C65DFBE0C6C232
:1029E000B0F1C5A101D09D88000112000900F55287
:1029F0000CE0F6CFBDF2F7CFBEF2F5CFC4F2D0DFD8
:102A0000BDC2F6FFBEC2F7FFF1D71200C1C201F08E
:102A1000C0C200F00066012A0900F5CFEEFF002ECB
:102A2000FBD7012EF9D7F86A25EF15F0F86A070EE3
:102A3000F76EFE0EF66E020EEA6EBD0EE96E020134
:102A4000C16B010EC06F0001E1D7BDC2BFF2020130
:102A5000BFC201F0000112000900F6CFBEF2F7CFAD
:102A6000BFF2F5CFC4F29CDFBEC2F6FFBFC2F7FFD4
:102A70000201BD2F01D002D00001EED700011200EB
:102A80000E0EF66E130EF76EB1DF12000A0E020183
:102A9000C46F000185DF0D0E0201C46F000180DFED
:102AA0001200D80EF66E130EF76EA0DFBFDF01C066
:102AB000BCF20201BC51500A000107E0010A12E019
:102AC000020A1DE0150A28E034D0060EF66E140E38
:102AD000F76E230E0201BD6F0001BEDFBCC2C4F25F
:102AE0005FDF3FD02C0EF66E140EF76E230E020140
:102AF000BD6F0001B1DFBCC2C4F252DF32D0520E52
:102B0000F66E140EF76E230E0201BD6F0001A4DFF6
:102B1000BCC2C4F245DF25D0780EF66E140EF76EF7
:102B2000220E0201BD6F000197DFBCC2C4F238DF84
:102B300018D09E0EF66E140EF76E0F0E0201BD6FCA
:102B400000018ADFBCC2C4F22BDF0A0E0201C46F8F
:102B5000000126DF0D0E0201C46F000121DF90DFAE
:102B600010D0B20EF66E140EF76E150E0201BD6F88
:102B7000000172DFCA0EF66E140EF76E37DF80DFCB
:102B800085DF12000150196AF2BE198EF29EBCC296
:102B9000ECF2640E0201ED6F0001A2EC05F019BE2B
:102BA000F28E00C0BCF20150300E08E10201BDA35C
:102BB0000FD0BDB70DD0BDB9200E04D00201BD9716
:102BC000BD99BD81012601C0C4F20001E9DE020108
:102BD000196AF2BE198EF29EBCC2ECF20A0EED6FBB
:102BE0000001A2EC05F019BEF28E00C0BCF201504B
:102BF000300E08E10201BDB70AD0BDA108D0BDB9B1
:102C0000200E0001012601C0C4F2CADE0201300E0E
:102C1000BC27BCC2C4F20001C3DE120002017B6B00
:102C2000010E796F79C278F278C27AF2776B77C247
:102C300075F2196AF2BE198EF29E75C2EAF20001AF
:102C4000B8EC05F019BEF28E01C07EF2196AF2BE30
:102C5000198EF29E76C2EAF2B8EC05F019BEF28E39
:102C600001C07FF2196AF2BE198EF29E77C2EAF2B3
:102C7000B8EC05F019BEF28E01C080F2196AF2BEFE
:102C8000198EF29E78C2EAF2B8EC05F019BEF28E07
:102C900001C081F2196AF2BE198EF29E79C2EAF27F
:102CA000B8EC05F019BEF28E01C082F2196AF2BECC
:102CB000198EF29E7AC2EAF2B8EC05F019BEF28ED5
:102CC00001C083F2196AF2BE198EF29E7BC2EAF24B
:102CD000B8EC05F019BEF28E01C084F21200B20EFB
:102CE000F66E130EF76E82DE12000201BD6BBC6B36
:102CF000196AF2BE198EF29E010EEA6F000126ECEF
:102D00000CF019BEF28E6F8FF29CF29EF2BEFDD7D0
:102D10000201BD6BBC6BBD5334E1BC512C0831E3E7
:102D2000036ABC51300FE96E000E0320EA6EEFCF4C
:102D3000BEF2A6B2FED7A694F250006EF29EBCC2BE
:102D4000A9FFBEC2A8FFA69CA69EA6840F01550E91
:102D5000A76EAA0EA76EA6820050F2120A0E0201FA
:102D6000BE6F0001B4DC0101252BD8B4262B26C18F
:102D70006BF025C16AF004000201BC2BD8B4BD2B56
:102D8000CAD7C00EF212196AF2BE198EF29E010E57
:102D9000EA6F000102EC0CF019BEF28E6F9F120078
:102DA000E20EF66E110EF76E21DEF2CFBCF2F29E4D
:102DB000A96AA69CA69EA680A8500201BCBFF28E5E
:102DC000305C01E0000E3050A00A000105E0010A6D
:102DD00009E0030A0DE012D0FA0EF66E110EF76E3E
:102DE00005DE11D0080EF66E120EF76EFFDD0BD069
:102DF000160EF66E120EF76EF9DD05D0220EF66E87
:102E0000120EF76EF3DD1200196AF2BE198EF29EF1
:102E1000070E0201EA6F000126EC0CF019BEF28EDB
:102E200040DEE40EF66E140EF76EE0DD0C0EF66E6C
:102E3000150EF76EDBDD0201BB6BBA6BBB510008F0
:102E400027E3A6B2FED7A694F250006EF29EBAC255
:102E5000A9FFA868A69CA69EA6840F01550EA76E82
:102E6000AA0EA76EA6820050F2120101252BD8B43B
:102E7000262B26C16BF025C16AF004000A0E020160
:102E8000BE6F000124DC0201BA2BD8B4BB2BD6D70D
:102E9000300EF66E150EF76E0001A8DDA10E306E35
:102EA000030E376E37C078F0400EF66E150EF76ED3
:102EB000250E0201BD6F0001CFDD37C0BCF21B0E35
:102EC0000201BD6F00015EDE670EF66E150EF76E35
:102ED000080E0201BD6F0001BFDD3C0E346E34C030
:102EE00077F0700EF66E150EF76E2A0E0201BD6FAA
:102EF0000001B2DD77C0BCF21B0E0201BD6F000104
:102F000041DE9C0EF66E150EF76E080E0201BD6FC7
:102F10000001A2DD030E356E35C079F0A60EF66E07
:102F2000150EF76E2D0E0201BD6F000195DD79C003
:102F3000BCF21B0E0201BD6F000124DED50EF66E41
:102F4000150EF76E080E0201BD6F000185DDDE0E65
:102F5000F66E150EF76E4ADD7669040EF66E160EE5
:102F6000F76E44DD5BDE160EF66E160EF76E3EDD76
:102F7000740EF66E160EF76E39DD0201856B85C292
:102F800038F0AA0EF66E160EF76E00012FDD856B77
:102F900085C03BF0D20EF66E160EF76E160E0201CD
:102FA000BD6F000159DD200E0201BC6F1B0EBD6F0D
:102FB0000001E8DDEA0EF66E160EF76E080E02014D
:102FC000BD6F000149DD200E866F86C033F0F40E20
:102FD000F66E160EF76E0ADD3268200EF66E170ECC
:102FE000F76E04DD316A0101252BD8B4262B26C1EA
:102FF0006BF025C16AF00400000171DE76DE46DD6B
:103000009AEC13F0CDDEFA0E0201BE6F000167EC00
:1030100013F0196AF2BE198EF29E070E0201EA6FD2
:10302000000102EC0CF019BEF28E54EF18F0196A90
:10303000F2BE198EF29E070E0201EA6F000102EC49
:103040000CF019BEF28E196AF2BE198EF29E010EB4
:103050000201EA6F000102EC0CF019BEF28E196A4F
:10306000F2BE198EF29E0201EA6B000102EC0CF036
:1030700019BEF28E196AF2BE198EF29E050E020179
:10308000EA6F000102EC0CF019BEF28E196AF2BE72
:10309000198EF29E060E0201EA6F000102EC0CF09E
:1030A00019BEF28E1200B0D60201B96BB9510408F4
:1030B00066E3020EBA6FFA0EBE6F000167EC13F002
:1030C0000201BA2FF8D70101252BD8B4262B26C12F
:1030D0006BF025C16AF004000001A9DF929A899A79
:1030E000FA0E0201BE6F000167EC13F00101252BFF
:1030F000D8B4262B26C16BF025C16AF00400929A41
:10310000898A196AF2BE198EF29E050E0201EA6FD3
:10311000000126EC0CF019BEF28E196AF2BE198E6F
:10312000F29E060E0201EA6F000126EC0CF019BEB9
:10313000F28E196AF2BE198EF29E0201EA6B00014C
:1031400026EC0CF019BEF28E196AF2BE198EF29EB0
:10315000010E0201EA6F000126EC0CF019BEF28E9E
:10316000196AF2BE198EF29E070E0201EA6F000183
:1031700026EC0CF019BEF28E0201B92B97D7929A69
:10318000899A320EBE6F000167EC13F012000C0E2C
:10319000BD1212007C51020801E1F9DF12007C51DE
:1031A000020802E1C3EC13F01200CA0EF66E120E12
:1031B000F76E140E0201BD6F00014EDC7CC0BCF244
:1031C0001B0E0201BD6F0001DDDCE4DF320E0201E7
:1031D000BE6F000167EC13F0E2DFC9EF19F0EB53AB
:1031E00011E1EE530FE1BAC2EBF0BBC2EEF0196A87
:1031F000F2BE198EF29E0201EA6B000126EC0CF081
:1032000019BEF28E1200010E0201BA6F020EBB6FE0
:103210000001E5DF196AF2BE198EF29E070E020167
:10322000EA6F000102EC0CF019BEF28E0101252BB1
:10323000D8B4262B26C16BF025C16AF004002351B7
:10324000010A000109E0030A20E0010A37E0070A49
:103250004EE0010A65E07DD0196AF2BE198EF29E39
:10326000050E0201EA6F000126EC0CF019BEF28E89
:10327000196AF2BE198EF29E060E0201EA6F000173
:1032800002EC0CF019BEF28E64D0196AF2BE198EEF
:10329000F29E050E0201EA6F000102EC0CF019BE6D
:1032A000F28E196AF2BE198EF29E060E0201EA6FC4
:1032B000000126EC0CF019BEF28E4BD0196AF2BE5A
:1032C000198EF29E050E0201EA6F000126EC0CF049
:1032D00019BEF28E196AF2BE198EF29E060E020116
:1032E000EA6F000102EC0CF019BEF28E32D0196ABE
:1032F000F2BE198EF29E050E0201EA6F000102EC89
:103300000CF019BEF28E196AF2BE198EF29E060EEC
:103310000201EA6F000126EC0CF019BEF28E19D002
:10332000196AF2BE198EF29E050E0201EA6F0001C3
:1033300026EC0CF019BEF28E196AF2BE198EF29EBE
:10334000060E0201EA6F000102EC0CF019BEF28ECB
:1033500000D0D5EF19F0010E7E6F7D6F060E0101D2
:10336000236F23C1B9F21F95252BD8B4262B26C174
:103370006BF025C16AF00400235319E00F0E02011F
:10338000BE6F000167EC13F001011FA504D000011E
:103390000CD701011F95252BD8B4262B26C16BF025
:1033A00025C16AF0040000012ED70101E5D7000114
:1033B0007D6B929E898E929C899C01012D95760E43
:1033C000F66E170EF76E0001F6EC14F038C085F2B9
:1033D00025DC12000201B96BB9513E080AE3036A09
:1033E000B951340FE96E020E0320EA6EEF6AB92B71
:1033F000F3D701012D9B0201746B0001120090A70D
:1034000046D00201B951FC0F43E2040F00014AEF1C
:103410001AF0196AF2BE198EF29E010E0201EA6FCD
:10342000000126EC0CF019BEF28E6F81020130D043
:10343000196AF2BE198EF29E010E0201EA6F0001B6
:1034400026EC0CF019BEF28E6F83020121D0196AAE
:10345000F2BE198EF29E010E0201EA6F000126EC07
:103460000CF019BEF28E6F85020112D0196AF2BEFD
:10347000198EF29E010E0201EA6F000126EC0CF09B
:1034800019BEF28E6F87020103D002D00001020143
:1034900000011200E824F76AF736AF0FF66E340E1B
:1034A000F7220A00F550FA6E0800F550F96E123452
:1034B00030344E346C3401012251070806E1030E0A
:1034C0000201B96F00019BDF01010001C6EF2DF081
:1034D0000BD0D051A25D08E303E1A151CF5D04E21E
:1034E0000201B96B00018BDF12000201BA6BB96BEC
:1034F000BA6BB96BBA5324E1B9512C0821E3036AC2
:10350000B951300FE96E000E0320EA6EF2CFBDF222
:10351000F29EB9C2A9FFA69CA69EA680A850BDBFD8
:10352000F28EEF6E0101252BD8B4262B26C16BF04D
:1035300025C16AF004000201B92BD8B4BA2BDAD73E
:103540000001CBEF2DF001011A5302E1050E1A6FB5
:1035500000019089908B01011F9900011200B48E27
:10356000B4ACFED701012DB1FED7A092C050C00B64
:103570003A09C06EC08EC2803C0E016EC250C30BB1
:103580000110C26EC2B22D97C2A22D87C2822DB782
:1035900005D0C2B22D97C2A22D87F9D7C2B2FED7ED
:1035A000C4CFAEF00001C3CFADF0C050C00B38099E
:1035B000C06EC08EC280A082AE51000808E2FF0A31
:1035C00003E1AD51C10803E201012A2B0001AE5114
:1035D000010807E303E1AD51C20803E301012A6BCF
:1035E0000001AE51000821E2FF0A03E1AD51C1081C
:1035F0001CE201012A511F08D8A002D0000115D0F9
:103600000001FF2D01D011D090BB0FD0FA0EF66E45
:10361000190EF76E8AEC13F0640E0201BE6F000102
:1036200067EC13F0949A8B9AFF00120001011A5371
:1036300024E1000190B902D001011FD0B10E0101B7
:103640001B6F000190B518D0FF2D16D0949A8B8A6D
:10365000010E0201BE6F000167EC13F0929A898A95
:103660009099E20EF66E120EF76EF6EC14F0010170
:103670001F89010E00016C6F0101000190BB10D089
:1036800001011FA902D000010BD0F80EF66E120E38
:10369000F76E0001F6EC14F001011F8900016C6B5C
:1036A0001200FF510208D8A46DD0A092908F908391
:1036B00079C001F1070E0101046FD00E036F000EF7
:1036C000016EC250C30B0110C26E929C899C2D9555
:1036D000035302E1045334E00351D8B40407030751
:1036E0000400C2820201B991C2A2B981B9B104D069
:1036F000B991C2A2B981FAD7C2B2FED7C4CFD2F073
:103700000001C3CFD1F0D251A45D18E303E1A3516E
:10371000D15D14E2929C898C01012D85030E066F08
:10372000E80E056F0001909F01011F97A082010E16
:103730000201BE6F000167EC13F024D00101C8D76D
:103740000001F26BF16BF46BF36BF66BF56BD26B04
:10375000D16B929C899C01012D950001F4DE66DFFE
:10376000010EFF6FFFC05CF0030E0101066FE80E53
:10377000056F0001909FA082010E0201BE6F000143
:1037800067EC13F0120001011FA703D0000189DFCD
:103790000101000124EF2EF08E0E006EDBC201F05D
:1037A000DAC202F0036A015209E102C001F0026AC2
:1037B000080E005E015202E1006A08D0D89001BEF6
:1037C00004D0023601360006F9D7019E120002012C
:1037D000D651D8B471D0006EDA51D8B46DD000266D
:1037E00004E3810E002668E204D07F0E005E64E3ED
:1037F00063E0D7C2DEF2DB51DE1BD78FDB8FD951FE
:10380000DD03F4CFE0F2D851DC03F4CF03F0F3CFC3
:10381000DFF2DD03F350E027F450DF23000E032234
:10382000D951DC03F350E027F450DF23000E026A85
:1038300003220222D751DD03F350DF27F450032285
:10384000000E0222D751DC03F3500326F45002226B
:10385000000E016A0122D951DB03F350DF27F45037
:103860000322000E02220122D851DB03F35003266B
:10387000F4500222000E0122D751DB03F35002263E
:10388000F4500122002A01BE05D0DF37033602368C
:1038900001360006000EDFAF0AD0032A0222012201
:1038A000015005E1025003E1035001E1002ADEBFAF
:1038B000018EDEAF019E04D0006A016A026A036ACB
:1038C000000112008E0E006E0201D651005ED7C2BA
:1038D00002F0D8C201F0028E005209E0D8900252E4
:1038E00002E1015204E002320132002EF7D7D7AFD5
:1038F00005D0011E021E012AD8B4022A00011200BE
:103900000201C969C869C3C2C5F2C2C2C4F2C76BA9
:10391000C66BC85302E1C9533FE0C851D8B4C907C8
:10392000C807C551260809E2FF0A03E1C4510F0880
:1039300004E2FF0E016E026E33D0C55102080CE2A4
:10394000FF0A03E1C451E70807E2E80EC45F030E73
:10395000C55B100EC7271FD0C55303E1C4516308D0
:1039600007E2640EC45F000EC55B010EC72713D0CB
:10397000C55303E1C451090809E20A0EC45F000EF1
:10398000C55B100EC627000EC72305D0C451C6273D
:10399000C551C72301D0BDD7C6C201F0C7C202F0CE
:1039A00000011200D89002018C35036AD30FE96E32
:1039B000000E0320EA6ED2C0ECFFED52D1C0EFFF43
:1039C0008C51000802E28C6B01D08C2B0001CE6B75
:1039D000CD6BCC6BCB6B0201B96BB951010816E30F
:1039E000D890B935036AD30FE96E000E0320EA6E52
:1039F000ECCF03F0ED52EF500001CB270350CC2366
:103A0000000ECD23CE230201B92BE7D7D8900001B9
:103A1000CE31CD31CC31016ECB31CF6F01C0D0F082
:103A2000D0C0DBF2CFC0DAF2B7DE03C0D9F202C0F9
:103A3000D8F201C0D7F200C0D6F28FC0DDF28EC03E
:103A4000DCF28DC0DBF28CC0DAF2C1DE03C0D9F249
:103A500002C0D8F201C0D7F200C0D6F233DF02C0F4
:103A6000BBF201C0BAF2BBC2C3F2BAC2C2F248DFB3
:103A700002C060F001C05FF039EF23F001012DB109
:103A8000FED7A092C050C00B3D09C06EC08EC28050
:103A9000040E016EC250C30B0110C26E0201BA9136
:103AA000C2A2BA81C282BAB104D0BA91C2A2BA810A
:103AB000FAD7C2B2FED7C4CFC4F00001C3CFC3F05F
:103AC000C050C00B3809C06EC08EC280A082D89092
:103AD00002018B35036AC70FE96E000E0320EA6E00
:103AE000C4C0ECFFED52C3C0EFFF8B51000802E2EF
:103AF0008B6B01D08B2B0001C06BBF6BBE6BBD6BA2
:103B00000201B96BB951010816E3D890B935036ABF
:103B1000C70FE96E000E0320EA6EECCF03F0ED5202
:103B2000EF500001BD270350BE23000EBF23C0236A
:103B30000201B92BE7D7D8900001C031BF31BE31A7
:103B4000016EBD31C16F01C0C2F0C2C0DBF2C1C0A5
:103B5000DAF222DE03C0D9F202C0D8F201C0D7F2F5
:103B600000C0D6F28BC0DDF28AC0DCF289C0DBF285
:103B700088C0DAF22CDE03C0D9F202C0D8F201C04C
:103B8000D7F200C0D6F29EDE02C0BCF201C0BBF28A
:103B9000BCC2C3F2BBC2C2F2B3DE02C05EF001C05F
:103BA0005DF03BEF23F0800ED8A202D00201DF1BB4
:103BB0000201E46BE56BDBC2E3F2DF51E31BDA5198
:103BC000D8B4DFD0E26F006EDE51D8B4E3D0E25F4C
:103BD000D8B483D03EE3DFC2E8F2E88FE0C2E7F278
:103BE000E1C2E6F2E56BD890E833E733E633E5333C
:103BF000E22FF8D7E3AF03D0E481E0D0E491E29183
:103C0000E489020EEA6EDD0EE96EEBD0E499E3BFC3
:103C10000AD0E2A113D0E833E733E633E533002AD4
:103C2000D8B4C7D00BD0E8BF0CD0D890E537E63772
:103C3000E737E8370006D8B4BCD0F5D7E48D6DD0AF
:103C4000E49DDBC2E3F2DBAF02D0E88FABD0E89FAC
:103C5000A9D0DEC2E2F2DEC200F0DA51E25FDBC2DE
:103C6000E8F2E88FDCC2E7F2DDC2E6F2E56BD8905D
:103C7000E833E733E633E533E22FF8D7E3AF03D099
:103C8000E4839CD0E493E291E48B020EEA6EE10EB1
:103C9000E96EA7D0E49BE3BF0AD0E2A113D0E833DA
:103CA000E733E633E533002AD8B483D00BD0E8BF3E
:103CB0000CD0D890E537E637E737E8370006D8B4B8
:103CC00078D0F5D7E48F29D0E49FDFC2E3F2DFAFED
:103CD00002D0E88F67D0E89F65D0DFC2E8F2E88FB6
:103CE000E0C2E7F2E1C2E6F2E3AF04D0E89FE48588
:103CF00065D0E495E56BE291020EEA6EDD0EE96EA9
:103D000070D0E3BF1CD0DBC2E3F2E2A106D0E833FF
:103D1000E733E633E533002A4CE0E5AF0BD0E62B82
:103D200009E1E72B07E1E82B05E1E833E733E63368
:103D3000002A3FE0E4BD84D7E4BFC6D71CD0800E84
:103D4000E81BE8AF04D03AD0DFC2E3F20AD0DBC20E
:103D5000E3F2E85306E1E75304E1E65302E1006AC7
:103D600021D0E8BF08D0D890E537E637E737E83705
:103D7000002EF7D71ED0E3AF02D0E88F13D0E89F14
:103D800011D0DEC200F0DFC2E8F2E0C2E7F2E1C229
:103D9000E6F208D0DAC200F0DBC2E8F2DCC2E7F2F9
:103DA000DDC2E6F2E8C201F0E7C202F0E6C203F0CB
:103DB00034D0006A016A026A036A2FD0E56BE61FFD
:103DC000E71FE81FE51FE52B05E1E62B03E1E72BE5
:103DD00001E1E82BE4B112D7E4B354D7E4B589D7B5
:103DE000B3D7EF50E62705E3E72B03E1E82BD8B480
:103DF000E281ED52EF50E72703E3E82BD8B4E281EC
:103E0000ED52EF50EFBE01D0800AE827D8B0E28132
:103E1000E4B9FCD6E4BB3ED774D70001120002011E
:103E2000C251D8B4A5D0CE6FC651D8B4A1D0CE5F00
:103E300005E37F0ECE27D8B09BD006D0810ECE5F93
:103E4000D8A096D0D8B494D0CEC200F0016A026A4D
:103E5000036ACD6BC3C2CCF2CC8FC4C2CBF2C5C255
:103E6000CAF2190ECE6FC951CA5F0DE2010ECB5FC7
:103E70000AE2CC5F08E2CD5F06E2CD2BCC2BCB2B48
:103E8000C951CA2728D0C851CB5F12E2010ECC5FBE
:103E90000FE2CD5F0DE2CD2BCC2BC851CB27C95102
:103EA000CA2719E3CB2B17E1CC2B15E1CD2B13D06F
:103EB000C7518009CC5F0EE2010ECD5F0BE2CD2B26
:103EC000C7518009CC27C851CB27E9E3CC2BE7E1C8
:103ED000CD2BE5D70380CE2F01D00BD0D890CA3799
:103EE000CB37CC37CD37D890033602360136CF37B3
:103EF000BAD7CFA106D0D890013202320332CF33E5
:103F000002D0000635E0CFBF1ED0D890CA37CB37DD
:103F1000CC37CD37C951CA5F07E2010ECB5F04E24F
:103F2000CC5F02E2CD5F1AE3C851CB5F05E2010E20
:103F3000CC5F02E2CD5F12E3C7518009CC5F03E2A0
:103F4000010ECD5F0BE3032A09E1022A07E1012AF2
:103F500005E1002A0DE0013202320332C3C2CEF283
:103F6000C751CE1BCEAF02D0018E06D0019E04D029
:103F7000006A016A026A036A00011200D7C2DEF217
:103F80000201DB51DE1BDEAF05D0D894D890D7BF3D
:103F9000D8802FD0D7C2DEF2DAC2DFF2D651DF5F8F
:103FA00006E0DEAF26D0D850010AD86E22D0DBC2A0
:103FB000DFF2D751DF5F06E0DEAF1BD0D850010A39
:103FC000D86E17D0DCC2DFF2D851DF5F06E0DEAF7B
:103FD00010D0D850010AD86E0CD0DDC2DFF2D95112
:103FE000DF5F06E0DEAF05D0D850010AD86E01D001
:103FF000D890000112000201D591C9C2CEF2C8C208
:10400000CDF2C7C2CCF2C6C2CBF2C9C2D9F2C8C285
:10401000D8F2C7C2D7F2C6C2D6F2DD6BDC6BDB6B5F
:10402000DA6B0001ABDF06E30201D581CC51800AD7
:10403000CC6F0001CEC2D9F2CDC2D8F2CCC2D7F239
:10404000CBC2D6F20201DD6BDC6BDB6B8E0EDA6F5E
:10405000000194DF01E218E1CEC2D9F2CDC2D8F25C
:10406000CCC2D7F2CBC2D6F22DDC02C0DBF201C04B
:10407000DAF2CCEC1BF003C0D2F202C0D1F201C0E4
:10408000D0F200C0CFF2D0D0CEC2D9F2CDC2D8F299
:10409000CCC2D7F2CBC2D6F2800E0201DD6F960EF3
:1040A000DC6F180EDB6F960EDA6F000167DFD8A0A9
:1040B000B3D0CEC2D9F2CDC2D8F2CCC2D7F2CBC2E5
:1040C000D6F20201DD6BDC6BDB6B700EDA6F000188
:1040D000E7EC1BF003C0D9F202C0D8F201C0D7F25E
:1040E00000C0D6F262EC1CF002C0D4F201C0D3F2E0
:1040F000CEC2D9F2CDC2D8F2CCC2D7F2CBC2D6F260
:104100000201DD6BDC6BDB6B700EDA6F0001E7EC3C
:104110001BF003C0D9F202C0D8F201C0D7F200C030
:10412000D6F2D4C2DBF2D3C2DAF2CCEC1BF0D882E6
:10413000D9C2DDF2D8C2DCF2D7C2DBF2D6C2DAF2E3
:1041400003C0E1F202C0E0F201C0DFF200C0DEF223
:104150002ADD0201D96BD86BD76B8E0ED66F03C0E8
:10416000DDF202C0DCF201C0DBF200C0DAF20001D5
:10417000E7EC1BF003C0CEF202C0CDF201C0CCF2DE
:1041800000C0CBF2D4C2DBF2D3C2DAF2CCEC1BF02B
:104190000201D96BD86BD76B8E0ED66F03C0DDF2E0
:1041A00002C0DCF201C0DBF200C0DAF20001E7EC91
:1041B0001BF003C0D2F202C0D1F201C0D0F200C0A5
:1041C000CFF2CEC2D9F2CDC2D8F2CCC2D7F2CBC296
:1041D000D6F262EC1CF002C0DBF201C0DAF2CCECE9
:1041E0001BF0D892D2C2DDF2D1C2DCF2D0C2DBF237
:1041F000CFC2DAF203C0E1F202C0E0F201C0DFF2A6
:1042000000C0DEF2D0DC03C0D2F202C0D1F201C0A5
:10421000D0F200C0CFF208D0CEC2D2F2CDC2D1F2DD
:10422000CCC2D0F2CBC2CFF2CEC2D9F2CDC2D8F23C
:10423000CCC2D7F2CBC2D6F262EC1CF002C0DBF2E9
:1042400001C0DAF2CCEC1BF0D882CEC2DDF2CDC2D6
:10425000DCF2CCC2DBF2CBC2DAF203C0E1F202C084
:10426000E0F201C0DFF200C0DEF29DDC03C0CEF25E
:1042700002C0CDF201C0CCF200C0CBF20201D5A148
:1042800003D0D051800AD06FCEC2D9F2CDC2D8F2BD
:10429000CCC2D7F2CBC2D6F2DD6BDC6BDB6BDA6B58
:1042A00000016CDE3AE00201D5A11BD0CA5319E12E
:1042B000D882D2C2DDF2D1C2DCF2D0C2DBF2CFC2F0
:1042C000DAF2E16BE06BDF6B7F0EDE6F00016BDC1F
:1042D00003C0D2F202C0D1F201C0D0F200C0CFF2CE
:1042E0000201D5B11BD0CA2D19D0D892D2C2DDF2AD
:1042F000D1C2DCF2D0C2DBF2CFC2DAF2E16BE06B0A
:10430000DF6B7F0EDE6F00014EDC03C0D2F202C015
:10431000D1F201C0D0F200C0CFF20201C9C2D9F27D
:10432000C8C2D8F2C7C2D7F2C6C2D6F2DD6BDC6B08
:10433000DB6BDA6B000122DE06E10201D26BD16B8E
:10434000D06BCF6B0001CFC200F0D0C201F0D1C260
:1043500002F0D2C203F0BAEF21F0C5C2C9F2C4C262
:10436000C8F2C3C2C7F2C2C2C6F2010E0201CA6FCE
:10437000000141D65AEF22F0D89002018D35036A30
:10438000DD0FE96E000E0320EA6E08C1ECFFED526E
:1043900007C1EFFF8D51000802E28D6B01D08D2B1C
:1043A0000001DA6BD96BD86BD76B0201B96BB951CD
:1043B000010816E3D890B935036ADD0FE96E000EE7
:1043C0000320EA6EECCF03F0ED52EF500001D72747
:1043D0000350D823000ED923DA230201B92BE7D7E3
:1043E000D8900001DA31D931D831016ED731DB6F85
:1043F00001C0DCF0DCC0DBF2DBC0DAF2CCEC1BF09D
:1044000003C0D9F202C0D8F201C0D7F200C0D6F280
:10441000330E0201DD6FDC6F530EDB6F760EDA6F49
:104420000001E7EC1BF003C0C1F202C0C0F201C002
:10443000BFF200C0BEF2D88203C0DDF202C0DCF2DF
:1044400001C0DBF200C0DAF2330E0201E16FE06F6F
:10445000DF6F7E0EDE6F0001D3EC1DF003C0C1F2F2
:1044600002C0C0F201C0BFF200C0BEF203C0C5F27C
:1044700002C0C4F201C0C3F200C0C2F2770E020152
:10448000C96FBE0EC86F1F0EC76F790EC66F0001D1
:10449000C6DC03C0C1F202C0C0F201C0BFF200C05E
:1044A000BEF203C0C5F202C0C4F201C0C3F200C034
:1044B000C2F253D703C0BDF202C0BCF201C0BBF2CE
:1044C00000C0BAF2BDC2D9F2BCC2D8F2BBC2D7F2A8
:1044D000BAC2D6F262EC1CF002C0BFF201C0BEF25A
:1044E000196AF2BE198EF29E01C0EAF2B8EC05F02C
:1044F00019BEF28E01C068F03CEF23F0D8900201A3
:104500008E35036AE70FE96E000E0320EA6E0AC1DA
:10451000ECFFED5209C1EFFF8E51000802E28E6BF5
:1045200001D08E2B0001E46BE36BE26BE16B0201C7
:10453000B96BB951010816E3D890B935036AE70F92
:10454000E96E000E0320EA6EECCF03F0ED52EF505F
:104550000001E1270350E223000EE323E4230201DC
:10456000B92BE7D7D8900001E431E331E231016E95
:10457000E131E56F01C0E6F0E6C0DBF2E5C0DAF25A
:10458000CCEC1BF003C0D9F202C0D8F201C0D7F2C4
:1045900000C0D6F2330E0201DD6FDC6F530EDB6F0D
:1045A000760EDA6F0001E7EC1BF003C0C1F202C027
:1045B000C0F201C0BFF200C0BEF2D88203C0DDF27B
:1045C00002C0DCF201C0DBF200C0DAF2CD0E020163
:1045D000E16FCC0EE06F4C0EDF6F7D0EDE6F0001E1
:1045E000D3EC1DF003C0C1F202C0C0F201C0BFF2A3
:1045F00000C0BEF203C0C5F202C0C4F201C0C3F2E3
:1046000000C0C2F2770E0201C96FBE0EC86F1F0E46
:10461000C76F790EC66F000102DC03C0BDF202C095
:10462000BCF201C0BBF200C0BAF2323C02D0696BEE
:104630001CD032521AE1BDC2D9F2BCC2D8F2BBC200
:10464000D7F2BAC2D6F262EC1CF002C0BFF201C0CF
:10465000BEF2196AF2BE198EF29E01C0EAF2B8ECFF
:1046600005F019BEF28E01C069F03DEF23F0D2EFE4
:104670001CF03EEF1DF080D641D726EF2EF00DD076
:10468000C251945D0AE303E19351C15D06E2010E5C
:104690000201B96F0001FFEC19F028EF2EF07A2D1E
:1046A0000DD0196AF2BE198EF29E050E0201EA6F54
:1046B000000126EC0CF019BEF28E0CD0196AF2BE85
:1046C000198EF29E050E0201EA6F000102EC0CF059
:1046D00019BEF28E7B2D0DD0196AF2BE198EF29E94
:1046E000060E0201EA6F000126EC0CF019BEF28EF4
:1046F0000CD0196AF2BE198EF29E060E0201EA6F04
:10470000000102EC0CF019BEF28E12000101299991
:1047100000019085F26BF16BF46BF36BF66BF56B4C
:10472000D26BD16B01011F93949A8B8A929E898ED2
:10473000929C898C2D85030E066FE80E056F000193
:10474000909F050E0101216F010E016F026F840E13
:10475000D56EA50EB16E00019AEC13F0196AF2BE87
:10476000198EF29E640E0201EA6F0001C6EC0BF096
:1047700019BEF28E0101252BD8B4262B9D86F28618
:104780007D8AF28A9D82A082315202E19D889D8AB3
:104790000F0E0201BE6F000167EC13F0220EF66EE1
:1047A0001E0EF76EF6EC14F00101252BD8B4262B63
:1047B00026C16BF025C16AF00400640E0201BE6FD1
:1047C000000167EC13F051EC1BF0909D01012D935B
:1047D0000201BA6B250EB96FBAC2EDF2B9C2ECF2A2
:1047E000010EEE6FECC2E9FFEDC2EAFFF26BF16B76
:1047F000ECCFF0F2ED52EFCFEFF2020EEC25E96EC6
:10480000000EED21EA6EEFCFFCFFEE5302E1010E48
:10481000EE6FEEC224F0030EEC25E96E000EED21E2
:10482000EA6EEFCFE0FFF0C2FAFFEFC2E8FFF96EE9
:1048300001C02FF000011200196AF2BE198EF29E1B
:104840001AEC0DF019BEF28ED251A65D09E303E118
:10485000A551D15D05E201011F9104D003D00001F3
:1048600001011F8100011200196AF2BE198EF29E29
:10487000040E0201EA6F000126EC0CF019BEF28E64
:10488000196AF2BE198EF29E040E0201EA6F00014F
:1048900002EC0CF019BEF28EFA0E0201BE6F00019E
:1048A00067EC13F0196AF2BE198EF29E040E020133
:1048B000EA6F000102EC0CF019BEF28E196AF2BE2A
:1048C000198EF29E040E0201EA6F000126EC0CF034
:1048D00019BEF28E1200196AF2BE198EF29E020EF5
:1048E0000201EA6F000102EC0CF019BEF28E86C0E4
:1048F0001DF101011D531BE00001D1DE0101252B3B
:10490000D8B4262B26C16BF025C16AF00400190E1D
:104910000201BE6F000167EC13F0010E0201BA6FD5
:10492000020EBB6F0001EFEC18F0E3D70101196A2A
:10493000F2BE198EF29E020E0201EA6F000126EC11
:104940000CF019BEF28E1200010100510001FF5D52
:1049500025E0FF2D0ED0CAEC18F0190E0201BE6F33
:10496000000167EC13F0CFEC18F0FFC000F1FFC0BE
:104970005CF0FF5102080EE1CAEC18F0640E02016F
:10498000BE6F000167EC13F0CFEC18F0FFC000F130
:10499000FFC05CF0FFC000F1FFC05CF0ACEF35F091
:1049A000EC5312E1EF5310E1B9C2ECF0BAC2EFF0F0
:1049B000196AF2BE198EF29E010E0201EA6F000121
:1049C00026EC0CF019BEF28E12006F5338E1C25182
:1049D000965D0BE303E1C151955D07E3010E020112
:1049E000B96F020EBA6F0001DBDF9651C25D12E3B0
:1049F00003E1C151955D0EE2C251985D0BE303E105
:104A0000C151975D07E3010E0201B96F050EBA6F40
:104A10000001C6DF9851C25D12E303E1C151975D09
:104A20000EE2C2519A5D0BE303E1C151995D07E3C8
:104A3000010E0201B96F140EBA6F0001B1DFB3EFBE
:104A400035F001012DB1FED7A092C050C00B3D0939
:104A5000C06EC08EC280240E016EC250C30B011006
:104A6000C26E0201B991C2A2B981C282B9B104D0A9
:104A7000B991C2A2B981FAD7C2B2FED7C4CF11F19F
:104A80000101C3CF10F1C050C00B3809C06EC08EF9
:104A9000C280A0820201C56BC46B11C1C3F210C1F8
:104AA000C2F2C96B020EC86F8B0EC76F0B0EC66FBA
:104AB000000164EC14F003C0C5F202C0C4F201C0EE
:104AC000C3F200C0C2F2D89203C0C9F202C0C8F259
:104AD00001C0C7F200C0C6F20201CD6BCC6B270E3D
:104AE000CB6F100ECA6F0001C8EC13F003C0C1F207
:104AF00002C0C0F201C0BFF200C0BEF20201C56B2D
:104B0000C46B0C0EC36F9A0EC26FC1C2C9F2C0C291
:104B1000C8F2BFC2C7F2BEC2C6F2000164EC14F014
:104B200003C0C5F202C0C4F201C0C3F200C0C2F2A9
:104B3000D89203C0C9F202C0C8F201C0C7F200C0D7
:104B4000C6F20201CD6B010ECC6F860ECB6FA00EAC
:104B5000CA6F0001C8EC13F003C0BDF202C0BCF282
:104B600001C0BBF200C0BAF2BBC2C3F2BAC2C2F209
:104B700080EC1CF002C062F001C061F0F2EF35F091
:104B800001012DB1FED7A092C050C00B3D09C06EEF
:104B9000C08EC2802C0E016EC250C30B0110C26EBB
:104BA0000201B991C2A2B981C282B9B104D0B9914E
:104BB000C2A2B981FAD7C2B2FED7C4CF13F10101A4
:104BC000C3CF12F1C050C00B3809C06EC08EC28076
:104BD000A0820201C56BC46B13C1C3F212C1C2F241
:104BE000C96B020EC86F8B0EC76F0B0EC66F00012C
:104BF00064EC14F003C0C5F202C0C4F201C0C3F2F9
:104C000000C0C2F2D89203C0C9F202C0C8F201C00B
:104C1000C7F200C0C6F20201CD6BCC6B270ECB6F82
:104C2000100ECA6F0001C8EC13F003C0C1F202C03D
:104C3000C0F201C0BFF200C0BEF20201C56BC46B7E
:104C40000C0EC36F9A0EC26FC1C2C9F2C0C2C8F2C5
:104C5000BFC2C7F2BEC2C6F2000164EC14F003C0CA
:104C6000C5F202C0C4F201C0C3F200C0C2F2D892C1
:104C700003C0C9F202C0C8F201C0C7F200C0C6F248
:104C80000201CD6B010ECC6F860ECB6FA00ECA6FEA
:104C90000001C8EC13F003C0BDF202C0BCF201C0B9
:104CA000BBF200C0BAF2BBC2C3F2BAC2C2F280EC1D
:104CB0001CF002C064F001C063F0F4EF35F00201B3
:104CC000BA6B313C01D01DD03351325D0BE1BA2BB0
:104CD000BA510A0807E3010EBE6F000167EC13F03A
:104CE0000201F2D7036A3351B20FE96E010E0320BD
:104CF000EA6EEFCFB9F2010E33257F0B336FB9C2E5
:104D000001F00001A9EF3BF00201B96BB9511F0896
:104D10000AE3036AB951920FE96E020E0320EA6EAC
:104D2000EF6AB92BF3D70001C7EF29F00201D9517F
:104D3000DB03F3CF01F0F4CF00F0DC03F3500026E7
:104D4000DA51DB03F3500020026E00011FEF27F061
:104D5000DCC203F00201DBC2E9FFDCC2EAFFEF5272
:104D600005E1D9C201F0DAC202F05DD0DAC203F087
:104D7000D9C2E9FFDAC2EAFFEF5252E0DAC2DEF24C
:104D8000D9C2DDF2DCC2E0F2DBC2DFF2E0C203F046
:104D9000DFC2E9FFE0C2EAFFEF5216E0DDC2E9FF41
:104DA000DEC2EAFFEFCFE1F2E0C203F0DFC2E9FFCB
:104DB000E0C2EAFFEF50E15D07E1DD2BD8B4DE2B66
:104DC000DF2BD8B4E02BE2D7E0C203F0DFC2E9FF6B
:104DD00003C0EAFFEF5205E1D9C201F0DAC202F0E6
:104DE00022D0D92BD8B4DA2BDAC203F0D9C2E9FF2A
:104DF000DAC2EAFFEF5213E0D9C2E9FFDAC2EAFFF2
:104E0000EFCFE1F2DCC203F0DBC2E9FFDCC2EAFF74
:104E1000EF50E15D04E0D92BD8B4DA2BE5D7A6D763
:104E2000000E016E026E00013FEF27F00201DA6B07
:104E3000B2C2D9F2010EDC6FDB6B000177D702C082
:104E4000DAF2020101C0D9F2020EEA6EB90EE96E81
:104E500002C0F7FF0150000181EC04F00A000900D4
:104E6000F550EE6E0009FBE1020E0201DA6F340E1E
:104E7000D96F020EDC6FB90EDB6F000169D702C07B
:104E8000DAF201C0D9F20201D95302E1DA5304E0A7
:104E9000010E016E03D002D0000E016E000112005F
:104EA0002A0EF66E130EF76EF6EC14F0FF51020A9E
:104EB00005E0010A0AE0020A0FE015D03E0EF66E88
:104EC000130EF76EF6EC14F014D0420EF66E130EBD
:104ED000F76EF6EC14F00DD0460EF66E130EF76E6C
:104EE000F6EC14F006D04A0EF66E130EF76EF6ECE2
:104EF00014F046EC15F01200EACFC3F2E9CFC2F28B
:104F00000201BC39F009BE6FBE27E20FBF6F320F3E
:104F1000C16FBC510F0BBF27BF27C127E90FC06F5F
:104F2000C027C027BB390F0BC027C127C037C137E7
:104F3000C11FC137BB510F0BC127BE37070EBD6F55
:104F40000A0EC007C127FDE3BF07C027FDE3BE0768
:104F5000BF27FDE3BD07BE27FDE3020EEA6EBD0ECF
:104F6000E96E070EC215C29DE926000EEA22E9503D
:104F7000C10804E1EA50020801E1C28DEF50006E61
:104F800008E1C2BD06D0C2B916D0C2B702D0200E09
:104F900003D0C287C299300E0026EACFBCF2E9CF17
:104FA000BBF200C0C4F20001D0EC14F0BCC2EAFFB6
:104FB000BBC2E9FF0201EE50C2ADD9D70001F9EF43
:104FC00027F0D00E02017B25B96F070EBA6FD8B05B
:104FD000BA2BAA0EF66E0A0EF76E150EBD6F000103
:104FE0002CEC15F0090EE96EBAC2BCF2B9C2BBF2E4
:104FF00083D73A0E0201C46F0001D0EC14F07AC2DC
:10500000BCF2010E0201BD6F0001C2EC15F03A0EB8
:105010000201C46F0001D0EC14F079C2BCF2010EA1
:105020000201BD6F0001C2EC15F00A0E0201C46F4F
:105030000001D0EC14F00D0E0201C46F0001D0ECA1
:1050400014F01200840EF66E0A0EF76E140E0201B2
:10505000BD6F00012CEC15F077C2BCF2010E02010D
:10506000BD6F0001C2EC15F03A0E0201C46F0001E1
:10507000D0EC14F076C2BCF2010E0201BD6F00014B
:10508000C2EC15F03A0E0201C46F0001D0EC14F02E
:1050900075C2BCF2010E0201BD6F0001C2EC15F039
:1050A0000A0E0201C46F0001D0EC14F00D0E0201D3
:1050B000C46F0001D0EC14F012000201BCBF12D08A
:1050C0000F0E006EBB3900160A0E005C03E2300EB4
:1050D000002602D0BC51002600C0C4F20001D0EC72
:1050E00014F002010F0EBB170A0EBB5D02E2300E78
:1050F00002D0BC9FBC51BB27BBC2C4F20001D0ECA4
:1051000014F0120060C0BAF25FC0B9F2860EF66EFB
:10511000130EF76E0E0E0201BD6F00012CEC15F0A0
:10512000BAC2BBF2570E0201BC6F0001C6DF2E0EE1
:105130000201C46F0001D0EC14F0B9C2BBF2570EEB
:105140000201BC6F0001B9DF200E0201C46F000133
:10515000D0EC14F0560E0201C46F0001D0EC14F034
:1051600012005EC0BAF25DC0B9F29C0EF66E130E6C
:10517000F76E0E0E0201BD6F00012CEC15F0BAC2E5
:10518000BBF2570E0201BC6F000197DF2E0E020129
:10519000C46F0001D0EC14F0B9C2BBF2570E02018B
:1051A000BC6F00018ADF200E0201C46F0001D0EC49
:1051B00014F0560E0201C46F0001D0EC14F012007E
:1051C000520EF66E130EF76E100E0201BD6F000147
:1051D0002CEC15F062C0BBF2370E0201BC6F00016F
:1051E0006CDF61C0BBF2370E0201BC6F000165DFEE
:1051F000650EF66E130EF76E050E0201BD6F00010F
:105200002CEC15F012006C0EF66E130EF76E100EED
:105210000201BD6F00012CEC15F064C0BBF2370E2B
:105220000201BC6F000149DF63C0BBF2370E02010F
:10523000BC6F000142DF7F0EF66E130EF76E050E97
:105240000201BD6F00012CEC15F01200D20EF66EBB
:105250000A0EF76E220E0201BD6F00012CEC15F054
:1052600037C0BCF21B0E0201BD6F0001C2EC15F08D
:10527000F60EF66E0A0EF76E0A0E0201BD6F000101
:105280002CEC15F068EF29F0ACEF29F051EC15F09B
:10529000BE0EF66E1C0EF76EF6EC14F001DE91DE1B
:1052A000D1DED20EF66E1C0EF76EF6EC14F02ADF8D
:1052B00058DF40EC15F0EC0EF66E1C0EF76EF6ECB7
:1052C00014F07EDFA0DF40EC15F046EC15F0BED701
:1052D000773D01D01DD00E0EF66E1D0EF76E2E0E10
:1052E0000201BD6F00012CEC15F077C0BCF21B0E63
:1052F0000201BD6F0001C2EC15F03E0EF66E1D0EF0
:10530000F76E080E0201BD6F00012CEC15F006D0FF
:10531000480EF66E1D0EF76EF6EC14F0A80EF66E43
:105320001D0EF76E300E0201BD6F00012CEC15F062
:1053300085C2BBF2570E0201BC6F0001BEDE0A0E31
:105340000201C46F0001D0EC14F00D0E0201C46F15
:105350000001D0EC14F098D746EC15F017EF2AF0C6
:10536000EF5210E0EACFBAF2E9CFB9F2EFCFC4F2D0
:10537000D0EC14F0BAC2EAFFB9C2E9FFE92AD8B406
:10538000EA2AEED7FEEF2AF046EC15F0BDD4020172
:10539000B26B00014BDD012C34D0DE0EF66E1D0E1B
:1053A000F76EF6EC14F05C0E6E6FFA0E0201BE6F33
:1053B000000167EC13F0196AF2BE198EF29E070E17
:1053C0000201EA6F000126EC0CF019BEF28E53ECDC
:1053D00018F0640E0201BE6F000167EC13F0196A49
:1053E000F2BE198EF29E070E0201EA6F000102EC76
:1053F0000CF019BEF28E46EC15F0EAEC19F0FF0045
:105400000BD1010E0201B26F000110DD012C07D09B
:1054100051EC15F046EC15F0EAEC19F0FDD0020E57
:105420000201B26F000102DD012C06D02FD746EC3D
:1054300015F0EAEC19F0F0D0040E0201B26F000191
:10544000F5DC012C06D02CDD46EC15F0EAEC19F069
:10545000E3D00D0E0201B26F0001E8DC012C06D092
:10546000AFDE46EC15F0EAEC19F0D6D00E0E0201D4
:10547000B26F0001DBDC012C06D0C5DE46EC15F076
:10548000EAEC19F0C9D0060E0201B26F0001CEDCC1
:10549000012C06D066DE46EC15F0EAEC19F0BCD023
:1054A000050E0201B26F0001C1DC012C06D02ADE1C
:1054B00046EC15F0EAEC19F0AFD00A0E0201B26F1B
:1054C0000001B4DC012C06D0BDDD46EC15F0EAECA1
:1054D00019F0A2D00B0E0201B26F0001A7DC012C63
:1054E00006D06FDD46EC15F0EAEC19F095D00F0E02
:1054F0000201B26F00019ADC012C11D0C7EC18F048
:10550000640E0201BE6F000167EC13F0040EF66E2C
:105510001E0EF76EF6EC14F0EAEC19F07DD0100ECA
:105520000201B26F000182DC012C11D0010E7B6FF1
:10553000196AF2BE198EF29E060E0201EA6F000190
:1055400026EC0CF019BEF28EEAEC19F065D0110EC3
:105550000201B26F00016ADC012C10D07B6B196A6A
:10556000F2BE198EF29E060E0201EA6F000102ECF5
:105570000CF019BEF28EEAEC19F04ED0120E0201B8
:10558000B26F000153DC012C12D0010E7A6F196A40
:10559000F2BE198EF29E050E0201EA6F000126ECA2
:1055A0000CF019BEF28EEAEC19F036D035D0130E9D
:1055B0000201B26F00013ADC012C11D07A6B196A3A
:1055C000F2BE198EF29E050E0201EA6F000102EC96
:1055D0000CF019BEF28EEAEC19F01ED01DD00E0EA2
:1055E000F66E1E0EF76E0E0E0201BD6F00012CEC62
:1055F00015F0020EEA6E340EE96EB2D61E0EF66E8D
:105600001E0EF76E030E0201BD6F00012CEC15F0AB
:1056100046EC15F0EAEC19F0D9EF3BF0F86AD09EB1
:10562000078EFE0E006E060E016E020EE96E000E73
:10563000EA6EEE6A002EFDD7012EFBD7600ED36E08
:105640009B8C9B9E1A6AB8960C0EAF6EA20EAC6E27
:10565000900EAB6E94869488D20EC86E360EC66ECF
:10566000C580CF0ECB6E060ECA6E9494B76AB66A2A
:10567000010EB96E680EBE6E0C0EBD6E030E0201F9
:10568000886F8A6B896B000E7E6EC198C19A7F50BD
:10569000E00B7F6E799A79987A6A7B6A020E236EA4
:1056A000F30E226E030EF46F090EF36FF66BF56BBB
:1056B00000011C6A1D6AD09C949A8B9AE00E7C6E45
:1056C000F19E420E006E002EFED70000929A899A3B
:1056D000929E899E929C899C01012D95320E020119
:1056E000BE6F000167EC13F00101298B0201846990
:1056F0000101299F2D930201BA6B2A0EB96FBAC21C
:10570000BCF2B9C2BBF2BBC2E9FFBCC2EAFF570E92
:10571000036E400EEF6E03C0ECFF020EBB25E96E78
:10572000000EBC21EA6EFCCFEFFF030EBB25E96E35
:10573000000EBC21EA6EE0CFEFFF000E016E02D03A
:1057400024C001F001C02FF001012999266B256BBF
:1057500029AF11D0929A899A949A8B8A929E898EB7
:10576000929C898C2D853C0EF66E1E0EF76E000104
:105770008AEC13F00101299F252BD8B4262B196A36
:10578000F2BE198EF29E040E0201EA6F000126ECB1
:105790000CF019BEF28E196AF2BE198EF29E020E3C
:1057A0000201EA6F000126EC0CF019BEF28E196AB4
:1057B000F2BE198EF29E030E0201EA6F000102ECA6
:1057C0000CF019BEF28EF2CFB9F2F29E010EA96E64
:1057D000A69CA69EA680A8500201B9BFF28E316E8B
:1057E000F2CFB9F2F29E020EA96EA69CA69EA680EA
:1057F000A850B9BFF28E326E00019AEC13F0C3ECE0
:1058000013F0840ED56E8F0ECD6E000E0509CA6E94
:10581000640ECB6EA50EB16E323C09D00B0E7E6EBF
:10582000C198C19A7F50E00B0A097F6E0AD03252AC
:1058300008E10F0E7E6EC198C19A7F50E00B0A09F5
:105840007F6EC050C00B3809C06EC08EC280799A7E
:105850007998040E7A6E7B6EC198C19A020E946F8D
:10586000650E936F020E966F780E956F020E986F0D
:10587000810E976F020E9A6FB00E996F020E9C6F99
:10588000E80E9B6F020E9E6FFA0E9D6F030EA06FC7
:10589000730E9F6F030EA26F6A0EA16F030EA46FAB
:1058A000570EA36F030EA66F4E0EA56F020EA86FC4
:1058B000E80EA76F020EAA6F8A0EA96F000E016E86
:1058C000C250C30B0110C26EC2820201B8B104D033
:1058D000B891C2A2B881FAD7C2B2FED7C4CFD2F073
:1058E0000001C3CFD1F0D251A85D2BE303E1A75152
:1058F000D15D27E2949A8B9A929E899E929C899C74
:1059000001012D95929A899A0400FA0E0201BE6F48
:10591000000167EC13F0000E016EC250C30B0110C2
:10592000C26EC2820201B8B104D0B891C2A2B881DD
:10593000FAD7C2B2FED7C4CFD2F00001C3CFD1F0A4
:10594000D2D7949A8B8A9085B06B7C0EAF6FB26B76
:10595000820EB16F010EB46F310EB36F010EB66FD0
:105960006D0EB56F010EB86FAA0EB76F010EBA6F4C
:10597000C80EB96F020EBC6F040EBB6F690E8B6F41
:10598000A20E8A6F090E896F7E0E886F690E8F6F67
:10599000A20E8E6F090E8D6F7E0E8C6F01012A6B29
:1059A000050E1A6F186B0001909D776901011F9316
:1059B000800E0F6F010E0001FF6FFFC05CF0948E30
:1059C000948C9D86FB0ED76E1D0ED66EF28A9D803E
:1059D0009D82FE0EB36ED30EB26EA082315202E1F2
:1059E0009D889D8AF2867D8AC00EF2129AEC13F091
:1059F000020E7C6F0201BC6BBB6B090EBA6F600EAE
:105A0000B96FC06B7A0EBF6F120EBE6FBD6B000117
:105A100012EF14F0010E0201BA6FF40EB96F00011B
:105A200092EF14F09091196AF2BE198EF29E070E51
:105A30000201EA6F000102EC0CF019BEF28E0400C4
:105A4000190E0201BE6F000167EC13F0938C81BC4C
:105A50001CD0196AF2BE198EF29E070E0201EA6F7F
:105A6000000126EC0CF019BEF28E53EC18F0ABECF2
:105A700019F0196AF2BE198EF29E070E0201EA6F42
:105A8000000102EC0CF019BEF28E010129AB11D01D
:105A90000001ABEC19F0196AF2BE198EF29E070EE6
:105AA0000201EA6F000102EC0CF019BEF28E010156
:105AB000299B000151EC15F0EAEC19F0190E0201D6
:105AC000BE6F000167EC13F001011F9B1F9D1F9F1C
:105AD000299129932995299702017E51590803E2BA
:105AE00001011F8B02017F51590803E201011F8D43
:105AF00002018051230803E201011F8F020181513D
:105B0000070802E3815303E1010129810201825167
:105B1000310802E3825303E1010129830201835129
:105B2000120802E3835303E1010129850201845134
:105B3000990803E201012987020101011FBB0CD072
:105B40001FBD0AD01FBF08D029B106D029B304D089
:105B500029B502D029A70CD06A0EF66E1E0EF76E7C
:105B60000001F6EC14F038C085F20EEC16F00101DD
:105B7000196AF2BE198EF29E030E0201EA6F00014D
:105B800002EC0CF019BEF28E5BEF1AF068EC1AF022
:105B9000909175EF1AF037C078F035C079F034C0C5
:105BA00077F03AC07EF039C07DF03BC085F033C05D
:105BB00086F07669FFC000F1FFC05CF0600E010165
:105BC000146F800EF66E1E0EF76E0001F6EC14F0E8
:105BD000D0EC16F0050E0101216F0001A3EC1AF0C4
:105BE0000400196AF2BE198EF29E070E0201EA6FD6
:105BF000000102EC0CF019BEF28E196AF2BE198E89
:105C0000F29E010E0201EA6F000102EC0CF019BED7
:105C1000F28E0101066B056B1B6B1C6B2989000161
:105C2000AFEC1AF00101252BD8B4262B26C16BF05E
:105C300025C16AF00400000116EC1BF0323C02D0D2
:105C400092948984C3EF1BF037EF23F03FEF23F0EA
:105C500068EC1AF0B6C0B5F2B5C0B4F2050EB55D89
:105C60000201B66F000E0001B6590201B76F0001C4
:105C70008553D8A4DCEF34F090A514D0AFEC1AF023
:105C8000010E0201BA6F020EBB6F0001EFEC18F0BB
:105C90000101252BD8B4262B26C16BF025C16AF053
:105CA0000400000190A728D090A526D0909594518B
:105CB000C25D0CE303E19351C15D08E3929E898EBE
:105CC000929C898C01012D850ED00001C251945DFA
:105CD0000BE303E19351C15D07E2929E899E929C82
:105CE000899C01012D9500019A0EF66E1E0EF76E2D
:105CF000F6EC14F016EC1BF090B77BD190B579D18F
:105D0000D40EF66E1E0EF76EF6EC14F04FEC23F088
:105D1000F40EF66E1E0EF76EF6EC14F0640E020131
:105D2000BE6F000167EC13F0908F929E898E929C5B
:105D3000898C01012D85020E0001FF6F230E86253F
:105D400001011D6F1D531FE000014FEC23F0010105
:105D5000252BD8B4262B26C16BF025C16AF0040090
:105D6000190E0201BE6F000167EC13F0010E020173
:105D7000BA6F020EBB6F0001EFEC18F0AFEC1AF037
:105D8000909D0101DFD7196AF2BE198EF29E020EB4
:105D90000201EA6F000126EC0CF019BEF28E90A70A
:105DA0000AD0010119510208D8A002D0000103D085
:105DB000000186EC23F0909F320E0201BE6F0001BD
:105DC00067EC13F0929E899E929C899C01012D950F
:105DD000252BD8B4262B26C16BF025C16AF0040010
:105DE000240EF66E1F0EF76E0001F6EC14F0FF5154
:105DF000020807E0A3EC1AF016EC1BF001011F816A
:105E000000010101252BD8B4262B26C16BF025C13A
:105E10006AF00400540EF66E1F0EF76E0001F6ECE9
:105E200014F04FEC23F0929E899E929C899C010174
:105E30002D951F83000117EC18F0960E0201BE6F1E
:105E4000000167EC13F0D56ACC6AB36AB26AF29AC1
:105E50009D92A0929D989D9A9D9601011F83196A1B
:105E6000F2BE198EF29E0201EA6B000102EC0CF008
:105E700019BEF28E929E899E929C899C01012D955D
:105E8000252BD8B4262B26C16BF025C16AF004005F
:105E900078C020F100011CEC24F0640E0201BE6FFA
:105EA000000167EC13F0909718C117F1640E02011E
:105EB000BE6F000167EC13F00101196B2053D8B4D9
:105EC00094D0929E899E929C899C2D95D3CF00F070
:105ED000D39E030000C0D3FF252BD8B4262B26C1A8
:105EE0006BF025C16AF004000001AFEC1AF0196AEA
:105EF000F2BE198EF29E1AEC0DF019BEF28EA4516C
:105F0000D25D37E303E1D151A35D33E201011FA16B
:105F100002D000012ED000019085929E898E0A0E3B
:105F20000201BE6F000167EC13F0929C898C0101A5
:105F30002D85000134EC24F09D820A0E0201BE6F13
:105F4000000167EC13F0CAEC18F0320E0201BE6FCC
:105F5000000167EC13F00101252BD8B4262B26C1D4
:105F60006BF025C16AF004000001CFEC18F086EC5C
:105F700023F090A70AD0010119510208D8A002D03D
:105F8000000103D0000186EC23F0928880B82BD06A
:105F90009085949A8B8A929E898E929C898C01011D
:105FA0002D85000133EC0DF034EC24F09D820A0EB7
:105FB0000201BE6F000167EC13F0CAEC18F0640E2A
:105FC0000201BE6F000167EC13F00101252BD8B46C
:105FD000262B26C16BF025C16AF004000001CFEC2E
:105FE00018F086EC23F0010169D7000143D786EC55
:105FF00023F0765372E1908F929C898C01012D855C
:10600000000133EC0DF0190E0201BE6F000167ECC8
:1060100013F00101252BD8B4262B26C16BF025C126
:106020006AF0040000017669780EF66E1F0EF76EB6
:10603000F6EC14F0196AF2BE198EF29E020E0201FD
:10604000EA6F000126EC0CF019BEF28E196AF2BE5E
:10605000198EF29E020E0201EA6F000102EC0CF0B2
:1060600019BEF28E6BEC24F0196AF2BE198EF29E04
:10607000020E0201EA6F000126EC0CF019BEF28E4E
:10608000BA0EF66E1F0EF76EF6EC14F001011D6BE2
:10609000929C899C2D95000134EC24F0929C898C73
:1060A00001012D85320E0201BE6F000167EC13F075
:1060B000F00EF66E1F0EF76EF6EC14F0F26BF16B4D
:1060C000F46BF36BF66BF56BD26BD16B909F320E6A
:1060D0000201BE6F000167EC13F0928880B89DD179
:1060E00090A79BD101012153D8B402D0000195D1D2
:1060F000252BD8B4262B26C16BF025C16AF00400ED
:10610000190E0201BE6F000167EC13F0928880B88F
:1061100002D090B734D00201BA6B250EB96FBAC263
:10612000EDF2B9C2ECF2010EEE6FECC2E9FFEDC286
:10613000EAFFF26BF16BECCFF0F2ED52EFCFEFF242
:10614000020EEC25E96E000EED21EA6EEFCFFCFFAA
:10615000EE5302E1010EEE6FEEC224F0030EEC25C9
:10616000E96E000EED21EA6EEFCFE0FFF0C2FAFF1C
:10617000EFC2E8FFF96E01C02FF01ED00001928837
:1061800080B819D090A717D04FEC23F0010E676F9D
:10619000CAEC18F00101252BD8B4262B26C16BF0D0
:1061A00025C16AF00400640E0201BE6F000167ECB5
:1061B00013F0CFEC18F0020100014FEC23F0080EB1
:1061C000F66E200EF76EF6EC14F0640E0201BE6F50
:1061D000000167EC13F0908F929C898C01012D8552
:1061E00000016BEC24F0909F320E0201BE6F0001A3
:1061F00067EC13F0929E899E929C899C01012D95DB
:10620000252BD8B4262B26C16BF025C16AF00400DB
:10621000400EF66E200EF76E0001F6EC14F0FF5102
:10622000020807E0A3EC1AF016EC1BF001011F8135
:1062300000010101252BD8B4262B26C16BF025C106
:106240006AF00400780EF66E200EF76E0001F6EC90
:1062500014F04FEC23F0929E899E929C899C010140
:106260002D951F83000117EC18F0960E0201BE6FEA
:10627000000167EC13F0D56ACC6AB36AB26AF29A8D
:106280009D92A0929D989D9A9D9601011F83196AE7
:10629000F2BE198EF29E0201EA6B000102EC0CF0D4
:1062A00019BEF28E929E899E929C899C01012D9529
:1062B000252BD8B4262B26C16BF025C16AF004002B
:1062C00078C020F100011CEC24F0640E0201BE6FC6
:1062D000000167EC13F0909718C117F1640E0201EA
